{
  "contractName": "ArtworkOwnership",
  "abi": [
    {
      "constant": true,
      "inputs": [
        {
          "name": "_interfaceId",
          "type": "bytes4"
        }
      ],
      "name": "supportsInterface",
      "outputs": [
        {
          "name": "",
          "type": "bool"
        }
      ],
      "payable": false,
      "stateMutability": "view",
      "type": "function"
    },
    {
      "constant": true,
      "inputs": [
        {
          "name": "_tokenId",
          "type": "uint256"
        }
      ],
      "name": "getArtwork",
      "outputs": [
        {
          "name": "",
          "type": "string"
        },
        {
          "name": "",
          "type": "string"
        },
        {
          "name": "",
          "type": "string"
        },
        {
          "name": "",
          "type": "string"
        },
        {
          "name": "",
          "type": "string"
        },
        {
          "name": "",
          "type": "uint16"
        }
      ],
      "payable": false,
      "stateMutability": "view",
      "type": "function"
    },
    {
      "constant": true,
      "inputs": [],
      "name": "InterfaceId_ERC165",
      "outputs": [
        {
          "name": "",
          "type": "bytes4"
        }
      ],
      "payable": false,
      "stateMutability": "view",
      "type": "function"
    },
    {
      "constant": true,
      "inputs": [
        {
          "name": "_tokenId",
          "type": "uint256"
        }
      ],
      "name": "getArtworkOwner",
      "outputs": [
        {
          "name": "",
          "type": "address"
        }
      ],
      "payable": false,
      "stateMutability": "view",
      "type": "function"
    },
    {
      "constant": true,
      "inputs": [],
      "name": "getAllAuctionAddresses",
      "outputs": [
        {
          "name": "",
          "type": "address[]"
        }
      ],
      "payable": false,
      "stateMutability": "view",
      "type": "function"
    },
    {
      "constant": false,
      "inputs": [
        {
          "name": "_galleryAddress",
          "type": "address"
        },
        {
          "name": "_name",
          "type": "string"
        },
        {
          "name": "_completeAddress",
          "type": "string"
        }
      ],
      "name": "addGallery",
      "outputs": [],
      "payable": false,
      "stateMutability": "nonpayable",
      "type": "function"
    },
    {
      "constant": true,
      "inputs": [
        {
          "name": "_tokenId",
          "type": "uint256"
        }
      ],
      "name": "getArtworkOwnerHistoryCount",
      "outputs": [
        {
          "name": "",
          "type": "uint256"
        }
      ],
      "payable": false,
      "stateMutability": "view",
      "type": "function"
    },
    {
      "constant": true,
      "inputs": [
        {
          "name": "",
          "type": "uint256"
        }
      ],
      "name": "artworks",
      "outputs": [
        {
          "name": "title",
          "type": "string"
        },
        {
          "name": "category",
          "type": "string"
        },
        {
          "name": "artist",
          "type": "string"
        },
        {
          "name": "photoIpfsHash",
          "type": "string"
        },
        {
          "name": "description",
          "type": "string"
        },
        {
          "name": "year",
          "type": "uint16"
        },
        {
          "name": "currentOwner",
          "type": "address"
        }
      ],
      "payable": false,
      "stateMutability": "view",
      "type": "function"
    },
    {
      "constant": true,
      "inputs": [
        {
          "name": "",
          "type": "uint256"
        }
      ],
      "name": "auctions",
      "outputs": [
        {
          "name": "",
          "type": "address"
        }
      ],
      "payable": false,
      "stateMutability": "view",
      "type": "function"
    },
    {
      "constant": false,
      "inputs": [],
      "name": "renounceOwnership",
      "outputs": [],
      "payable": false,
      "stateMutability": "nonpayable",
      "type": "function"
    },
    {
      "constant": false,
      "inputs": [
        {
          "name": "_title",
          "type": "string"
        },
        {
          "name": "_category",
          "type": "string"
        },
        {
          "name": "_artist",
          "type": "string"
        },
        {
          "name": "_photoIpfsHash",
          "type": "string"
        },
        {
          "name": "_description",
          "type": "string"
        },
        {
          "name": "_year",
          "type": "uint16"
        }
      ],
      "name": "addArtwork",
      "outputs": [
        {
          "name": "",
          "type": "bool"
        }
      ],
      "payable": false,
      "stateMutability": "nonpayable",
      "type": "function"
    },
    {
      "constant": true,
      "inputs": [
        {
          "name": "",
          "type": "address"
        }
      ],
      "name": "galleries",
      "outputs": [
        {
          "name": "name",
          "type": "string"
        },
        {
          "name": "completeAddress",
          "type": "string"
        },
        {
          "name": "artworkCount",
          "type": "uint256"
        },
        {
          "name": "canAddArtwork",
          "type": "bool"
        },
        {
          "name": "canCreateAuction",
          "type": "bool"
        }
      ],
      "payable": false,
      "stateMutability": "view",
      "type": "function"
    },
    {
      "constant": true,
      "inputs": [],
      "name": "owner",
      "outputs": [
        {
          "name": "",
          "type": "address"
        }
      ],
      "payable": false,
      "stateMutability": "view",
      "type": "function"
    },
    {
      "constant": true,
      "inputs": [
        {
          "name": "_category",
          "type": "string"
        }
      ],
      "name": "getArtworksByCategory",
      "outputs": [
        {
          "name": "",
          "type": "uint256[]"
        }
      ],
      "payable": false,
      "stateMutability": "view",
      "type": "function"
    },
    {
      "constant": true,
      "inputs": [],
      "name": "getTotalSupply",
      "outputs": [
        {
          "name": "",
          "type": "uint256"
        }
      ],
      "payable": false,
      "stateMutability": "view",
      "type": "function"
    },
    {
      "constant": false,
      "inputs": [
        {
          "name": "_newOwner",
          "type": "address"
        }
      ],
      "name": "transferOwnership",
      "outputs": [],
      "payable": false,
      "stateMutability": "nonpayable",
      "type": "function"
    },
    {
      "inputs": [],
      "payable": false,
      "stateMutability": "nonpayable",
      "type": "constructor"
    },
    {
      "anonymous": false,
      "inputs": [
        {
          "indexed": true,
          "name": "_from",
          "type": "address"
        },
        {
          "indexed": true,
          "name": "_to",
          "type": "address"
        },
        {
          "indexed": true,
          "name": "_tokenId",
          "type": "uint256"
        }
      ],
      "name": "Transfer",
      "type": "event"
    },
    {
      "anonymous": false,
      "inputs": [
        {
          "indexed": true,
          "name": "_owner",
          "type": "address"
        },
        {
          "indexed": true,
          "name": "_approved",
          "type": "address"
        },
        {
          "indexed": true,
          "name": "_tokenId",
          "type": "uint256"
        }
      ],
      "name": "Approval",
      "type": "event"
    },
    {
      "anonymous": false,
      "inputs": [
        {
          "indexed": true,
          "name": "_owner",
          "type": "address"
        },
        {
          "indexed": true,
          "name": "_operator",
          "type": "address"
        },
        {
          "indexed": false,
          "name": "_approved",
          "type": "bool"
        }
      ],
      "name": "ApprovalForAll",
      "type": "event"
    },
    {
      "anonymous": false,
      "inputs": [
        {
          "indexed": true,
          "name": "_galleryAddress",
          "type": "address"
        },
        {
          "indexed": false,
          "name": "_name",
          "type": "string"
        },
        {
          "indexed": false,
          "name": "_completeAddress",
          "type": "string"
        }
      ],
      "name": "AddGallery",
      "type": "event"
    },
    {
      "anonymous": false,
      "inputs": [
        {
          "indexed": true,
          "name": "_galleryAddress",
          "type": "address"
        },
        {
          "indexed": false,
          "name": "_title",
          "type": "string"
        },
        {
          "indexed": false,
          "name": "_category",
          "type": "string"
        },
        {
          "indexed": false,
          "name": "_artist",
          "type": "string"
        },
        {
          "indexed": false,
          "name": "_photoIpfsHash",
          "type": "string"
        },
        {
          "indexed": false,
          "name": "_description",
          "type": "string"
        },
        {
          "indexed": false,
          "name": "_year",
          "type": "uint16"
        }
      ],
      "name": "AddArtwork",
      "type": "event"
    },
    {
      "anonymous": false,
      "inputs": [
        {
          "indexed": false,
          "name": "_creator",
          "type": "address"
        },
        {
          "indexed": false,
          "name": "_tokenId",
          "type": "uint256"
        },
        {
          "indexed": false,
          "name": "_durationInSec",
          "type": "uint256"
        },
        {
          "indexed": false,
          "name": "_startingBid",
          "type": "uint256"
        },
        {
          "indexed": false,
          "name": "_highestAllowedBidAmount",
          "type": "uint256"
        },
        {
          "indexed": false,
          "name": "_bidIncrement",
          "type": "uint256"
        },
        {
          "indexed": false,
          "name": "_auctionAddress",
          "type": "address"
        }
      ],
      "name": "CreateAuction",
      "type": "event"
    },
    {
      "anonymous": false,
      "inputs": [
        {
          "indexed": true,
          "name": "previousOwner",
          "type": "address"
        }
      ],
      "name": "OwnershipRenounced",
      "type": "event"
    },
    {
      "anonymous": false,
      "inputs": [
        {
          "indexed": true,
          "name": "previousOwner",
          "type": "address"
        },
        {
          "indexed": true,
          "name": "newOwner",
          "type": "address"
        }
      ],
      "name": "OwnershipTransferred",
      "type": "event"
    },
    {
      "constant": false,
      "inputs": [
        {
          "name": "_tokenId",
          "type": "uint256"
        },
        {
          "name": "_durationInSec",
          "type": "uint256"
        },
        {
          "name": "_startingBid",
          "type": "uint256"
        },
        {
          "name": "_highestAllowedBidAmount",
          "type": "uint256"
        },
        {
          "name": "_bidIncrement",
          "type": "uint256"
        }
      ],
      "name": "createAuction",
      "outputs": [
        {
          "name": "",
          "type": "address"
        }
      ],
      "payable": false,
      "stateMutability": "nonpayable",
      "type": "function"
    },
    {
      "constant": true,
      "inputs": [
        {
          "name": "_owner",
          "type": "address"
        }
      ],
      "name": "tokensOfOwner",
      "outputs": [
        {
          "name": "",
          "type": "uint256[]"
        }
      ],
      "payable": false,
      "stateMutability": "view",
      "type": "function"
    },
    {
      "constant": true,
      "inputs": [
        {
          "name": "_owner",
          "type": "address"
        }
      ],
      "name": "balanceOf",
      "outputs": [
        {
          "name": "",
          "type": "uint256"
        }
      ],
      "payable": false,
      "stateMutability": "view",
      "type": "function"
    },
    {
      "constant": true,
      "inputs": [
        {
          "name": "_tokenId",
          "type": "uint256"
        }
      ],
      "name": "ownerOf",
      "outputs": [
        {
          "name": "",
          "type": "address"
        }
      ],
      "payable": false,
      "stateMutability": "view",
      "type": "function"
    },
    {
      "constant": true,
      "inputs": [
        {
          "name": "_tokenId",
          "type": "uint256"
        }
      ],
      "name": "exists",
      "outputs": [
        {
          "name": "",
          "type": "bool"
        }
      ],
      "payable": false,
      "stateMutability": "view",
      "type": "function"
    },
    {
      "constant": false,
      "inputs": [
        {
          "name": "_to",
          "type": "address"
        },
        {
          "name": "_tokenId",
          "type": "uint256"
        }
      ],
      "name": "approve",
      "outputs": [],
      "payable": false,
      "stateMutability": "nonpayable",
      "type": "function"
    },
    {
      "constant": true,
      "inputs": [
        {
          "name": "_tokenId",
          "type": "uint256"
        }
      ],
      "name": "getApproved",
      "outputs": [
        {
          "name": "",
          "type": "address"
        }
      ],
      "payable": false,
      "stateMutability": "view",
      "type": "function"
    },
    {
      "constant": false,
      "inputs": [
        {
          "name": "_to",
          "type": "address"
        },
        {
          "name": "_approved",
          "type": "bool"
        }
      ],
      "name": "setApprovalForAll",
      "outputs": [],
      "payable": false,
      "stateMutability": "nonpayable",
      "type": "function"
    },
    {
      "constant": true,
      "inputs": [
        {
          "name": "_owner",
          "type": "address"
        },
        {
          "name": "_operator",
          "type": "address"
        }
      ],
      "name": "isApprovedForAll",
      "outputs": [
        {
          "name": "",
          "type": "bool"
        }
      ],
      "payable": false,
      "stateMutability": "view",
      "type": "function"
    },
    {
      "constant": false,
      "inputs": [
        {
          "name": "_from",
          "type": "address"
        },
        {
          "name": "_to",
          "type": "address"
        },
        {
          "name": "_tokenId",
          "type": "uint256"
        }
      ],
      "name": "transferFrom",
      "outputs": [],
      "payable": false,
      "stateMutability": "nonpayable",
      "type": "function"
    },
    {
      "constant": false,
      "inputs": [
        {
          "name": "_from",
          "type": "address"
        },
        {
          "name": "_to",
          "type": "address"
        },
        {
          "name": "_tokenId",
          "type": "uint256"
        }
      ],
      "name": "safeTransferFrom",
      "outputs": [],
      "payable": false,
      "stateMutability": "nonpayable",
      "type": "function"
    },
    {
      "constant": false,
      "inputs": [
        {
          "name": "_from",
          "type": "address"
        },
        {
          "name": "_to",
          "type": "address"
        },
        {
          "name": "_tokenId",
          "type": "uint256"
        },
        {
          "name": "_data",
          "type": "bytes"
        }
      ],
      "name": "safeTransferFrom",
      "outputs": [],
      "payable": false,
      "stateMutability": "nonpayable",
      "type": "function"
    }
  ],
  "bytecode": "0x60806040523480156200001157600080fd5b50336000806101000a81548173ffffffffffffffffffffffffffffffffffffffff021916908373ffffffffffffffffffffffffffffffffffffffff160217905550336000806101000a81548173ffffffffffffffffffffffffffffffffffffffff021916908373ffffffffffffffffffffffffffffffffffffffff160217905550620000cf6301ffc9a77c0100000000000000000000000000000000000000000000000000000000026200014f640100000000026401000000009004565b6200010c6380ac58cd7c0100000000000000000000000000000000000000000000000000000000026200014f640100000000026401000000009004565b62000149634f558e797c0100000000000000000000000000000000000000000000000000000000026200014f640100000000026401000000009004565b6200020e565b63ffffffff7c010000000000000000000000000000000000000000000000000000000002817bffffffffffffffffffffffffffffffffffffffffffffffffffffffff191614151515620001a157600080fd5b6001600a6000837bffffffffffffffffffffffffffffffffffffffffffffffffffffffff19167bffffffffffffffffffffffffffffffffffffffffffffffffffffffff1916815260200190815260200160002060006101000a81548160ff02191690831515021790555050565b615830806200021e6000396000f30060806040526004361062000187576000357c0100000000000000000000000000000000000000000000000000000000900463ffffffff16806301ffc9a7146200018c578063081812fc14620001f3578063095ea7b31462000263578063167ddf6e14620002b357806319fa8f50146200052a5780632198d39a146200059657806323b872dd14620006065780632804617914620006765780633d960ffc14620006e757806342842e0e14620007b95780634735504114620008295780634b602673146200086d5780634f558e791462000b17578063571a26a01462000b5f5780636352211e1462000bcf57806370a082311462000c3f578063715018a61462000c99578063812413841462000cb35780638462151c1462000e5d578063893764ea1462000efa5780638a157df314620010485780638da5cb5b14620010e0578063a22cb465146200113a578063aac77ee3146200118c578063b88d4fde1462001221578063c4e41b2214620012d7578063e985e9c51462001305578063f2fde38b1462001383575b600080fd5b3480156200019957600080fd5b50620001d960048036038101908080357bffffffffffffffffffffffffffffffffffffffffffffffffffffffff19169060200190929190505050620013c9565b604051808215151515815260200191505060405180910390f35b3480156200020057600080fd5b50620002216004803603810190808035906020019092919050505062001431565b604051808273ffffffffffffffffffffffffffffffffffffffff1673ffffffffffffffffffffffffffffffffffffffff16815260200191505060405180910390f35b3480156200027057600080fd5b50620002b1600480360381019080803573ffffffffffffffffffffffffffffffffffffffff169060200190929190803590602001909291905050506200146e565b005b348015620002c057600080fd5b50620002e160048036038101908080359060200190929190505050620015ba565b6040518080602001806020018060200180602001806020018761ffff1661ffff16815260200186810386528c818151815260200191508051906020019080838360005b838110156200034157808201518184015260208101905062000324565b50505050905090810190601f1680156200036f5780820380516001836020036101000a031916815260200191505b5086810385528b818151815260200191508051906020019080838360005b83811015620003aa5780820151818401526020810190506200038d565b50505050905090810190601f168015620003d85780820380516001836020036101000a031916815260200191505b5086810384528a818151815260200191508051906020019080838360005b8381101562000413578082015181840152602081019050620003f6565b50505050905090810190601f168015620004415780820380516001836020036101000a031916815260200191505b50868103835289818151815260200191508051906020019080838360005b838110156200047c5780820151818401526020810190506200045f565b50505050905090810190601f168015620004aa5780820380516001836020036101000a031916815260200191505b50868103825288818151815260200191508051906020019080838360005b83811015620004e5578082015181840152602081019050620004c8565b50505050905090810190601f168015620005135780820380516001836020036101000a031916815260200191505b509b50505050505050505050505060405180910390f35b3480156200053757600080fd5b5062000542620019f6565b60405180827bffffffffffffffffffffffffffffffffffffffffffffffffffffffff19167bffffffffffffffffffffffffffffffffffffffffffffffffffffffff1916815260200191505060405180910390f35b348015620005a357600080fd5b50620005c46004803603810190808035906020019092919050505062001a1d565b604051808273ffffffffffffffffffffffffffffffffffffffff1673ffffffffffffffffffffffffffffffffffffffff16815260200191505060405180910390f35b3480156200061357600080fd5b5062000674600480360381019080803573ffffffffffffffffffffffffffffffffffffffff169060200190929190803573ffffffffffffffffffffffffffffffffffffffff1690602001909291908035906020019092919050505062001a82565b005b3480156200068357600080fd5b506200068e62001b98565b6040518080602001828103825283818151815260200191508051906020019060200280838360005b83811015620006d3578082015181840152602081019050620006b6565b505050509050019250505060405180910390f35b348015620006f457600080fd5b50620007b7600480360381019080803573ffffffffffffffffffffffffffffffffffffffff169060200190929190803590602001908201803590602001908080601f0160208091040260200160405190810160405280939291908181526020018383808284378201915050505050509192919290803590602001908201803590602001908080601f016020809104026020016040519081016040528093929190818152602001838380828437820191505050505050919291929050505062001c28565b005b348015620007c657600080fd5b5062000827600480360381019080803573ffffffffffffffffffffffffffffffffffffffff169060200190929190803573ffffffffffffffffffffffffffffffffffffffff1690602001909291908035906020019092919050505062001eb6565b005b3480156200083657600080fd5b50620008576004803603810190808035906020019092919050505062001ed9565b6040518082815260200191505060405180910390f35b3480156200087a57600080fd5b506200089b6004803603810190808035906020019092919050505062001f2f565b6040518080602001806020018060200180602001806020018861ffff1661ffff1681526020018773ffffffffffffffffffffffffffffffffffffffff1673ffffffffffffffffffffffffffffffffffffffff16815260200186810386528d818151815260200191508051906020019080838360005b838110156200092d57808201518184015260208101905062000910565b50505050905090810190601f1680156200095b5780820380516001836020036101000a031916815260200191505b5086810385528c818151815260200191508051906020019080838360005b838110156200099657808201518184015260208101905062000979565b50505050905090810190601f168015620009c45780820380516001836020036101000a031916815260200191505b5086810384528b818151815260200191508051906020019080838360005b83811015620009ff578082015181840152602081019050620009e2565b50505050905090810190601f16801562000a2d5780820380516001836020036101000a031916815260200191505b5086810383528a818151815260200191508051906020019080838360005b8381101562000a6857808201518184015260208101905062000a4b565b50505050905090810190601f16801562000a965780820380516001836020036101000a031916815260200191505b50868103825289818151815260200191508051906020019080838360005b8381101562000ad157808201518184015260208101905062000ab4565b50505050905090810190601f16801562000aff5780820380516001836020036101000a031916815260200191505b509c5050505050505050505050505060405180910390f35b34801562000b2457600080fd5b5062000b4560048036038101908080359060200190929190505050620022bb565b604051808215151515815260200191505060405180910390f35b34801562000b6c57600080fd5b5062000b8d600480360381019080803590602001909291905050506200232d565b604051808273ffffffffffffffffffffffffffffffffffffffff1673ffffffffffffffffffffffffffffffffffffffff16815260200191505060405180910390f35b34801562000bdc57600080fd5b5062000bfd600480360381019080803590602001909291905050506200236c565b604051808273ffffffffffffffffffffffffffffffffffffffff1673ffffffffffffffffffffffffffffffffffffffff16815260200191505060405180910390f35b34801562000c4c57600080fd5b5062000c83600480360381019080803573ffffffffffffffffffffffffffffffffffffffff169060200190929190505050620023eb565b6040518082815260200191505060405180910390f35b34801562000ca657600080fd5b5062000cb162002470565b005b34801562000cc057600080fd5b5062000e43600480360381019080803590602001908201803590602001908080601f0160208091040260200160405190810160405280939291908181526020018383808284378201915050505050509192919290803590602001908201803590602001908080601f0160208091040260200160405190810160405280939291908181526020018383808284378201915050505050509192919290803590602001908201803590602001908080601f0160208091040260200160405190810160405280939291908181526020018383808284378201915050505050509192919290803590602001908201803590602001908080601f0160208091040260200160405190810160405280939291908181526020018383808284378201915050505050509192919290803590602001908201803590602001908080601f0160208091040260200160405190810160405280939291908181526020018383808284378201915050505050509192919290803561ffff16906020019092919050505062002573565b604051808215151515815260200191505060405180910390f35b34801562000e6a57600080fd5b5062000ea1600480360381019080803573ffffffffffffffffffffffffffffffffffffffff16906020019092919050505062002d09565b6040518080602001828103825283818151815260200191508051906020019060200280838360005b8381101562000ee657808201518184015260208101905062000ec9565b505050509050019250505060405180910390f35b34801562000f0757600080fd5b5062000f3e600480360381019080803573ffffffffffffffffffffffffffffffffffffffff16906020019092919050505062002e5c565b6040518080602001806020018681526020018515151515815260200184151515158152602001838103835288818151815260200191508051906020019080838360005b8381101562000f9e57808201518184015260208101905062000f81565b50505050905090810190601f16801562000fcc5780820380516001836020036101000a031916815260200191505b50838103825287818151815260200191508051906020019080838360005b838110156200100757808201518184015260208101905062000fea565b50505050905090810190601f168015620010355780820380516001836020036101000a031916815260200191505b5097505050505050505060405180910390f35b3480156200105557600080fd5b506200109e600480360381019080803590602001909291908035906020019092919080359060200190929190803590602001909291908035906020019092919050505062002fe4565b604051808273ffffffffffffffffffffffffffffffffffffffff1673ffffffffffffffffffffffffffffffffffffffff16815260200191505060405180910390f35b348015620010ed57600080fd5b50620010f862003456565b604051808273ffffffffffffffffffffffffffffffffffffffff1673ffffffffffffffffffffffffffffffffffffffff16815260200191505060405180910390f35b3480156200114757600080fd5b506200118a600480360381019080803573ffffffffffffffffffffffffffffffffffffffff1690602001909291908035151590602001909291905050506200347b565b005b3480156200119957600080fd5b50620011c8600480360381019080803590602001908201803590602001919091929391929390505050620035b8565b6040518080602001828103825283818151815260200191508051906020019060200280838360005b838110156200120d578082015181840152602081019050620011f0565b505050509050019250505060405180910390f35b3480156200122e57600080fd5b50620012d5600480360381019080803573ffffffffffffffffffffffffffffffffffffffff169060200190929190803573ffffffffffffffffffffffffffffffffffffffff16906020019092919080359060200190929190803590602001908201803590602001908080601f016020809104026020016040519081016040528093929190818152602001838380828437820191505050505050919291929050505062003638565b005b348015620012e457600080fd5b50620012ef62003665565b6040518082815260200191505060405180910390f35b3480156200131257600080fd5b5062001369600480360381019080803573ffffffffffffffffffffffffffffffffffffffff169060200190929190803573ffffffffffffffffffffffffffffffffffffffff16906020019092919050505062003672565b604051808215151515815260200191505060405180910390f35b3480156200139057600080fd5b50620013c7600480360381019080803573ffffffffffffffffffffffffffffffffffffffff16906020019092919050505062003706565b005b6000600a6000837bffffffffffffffffffffffffffffffffffffffffffffffffffffffff19167bffffffffffffffffffffffffffffffffffffffffffffffffffffffff1916815260200190815260200160002060009054906101000a900460ff169050919050565b60006005600083815260200190815260200160002060009054906101000a900473ffffffffffffffffffffffffffffffffffffffff169050919050565b60006200147b826200236c565b90508073ffffffffffffffffffffffffffffffffffffffff168373ffffffffffffffffffffffffffffffffffffffff1614151515620014b957600080fd5b8073ffffffffffffffffffffffffffffffffffffffff163373ffffffffffffffffffffffffffffffffffffffff161480620014fc5750620014fb813362003672565b5b15156200150857600080fd5b826005600084815260200190815260200160002060006101000a81548173ffffffffffffffffffffffffffffffffffffffff021916908373ffffffffffffffffffffffffffffffffffffffff160217905550818373ffffffffffffffffffffffffffffffffffffffff163373ffffffffffffffffffffffffffffffffffffffff167f8c5be1e5ebec7d5bd14f71427d1e84f3dd0314c0f7b2291e5b200ac8c7c3b92560405160405180910390a4505050565b60608060608060606000866000600180549050118015620015df575060018054905081105b1515620015eb57600080fd5b600188815481101515620015fb57fe5b90600052602060002090600702016000016001898154811015156200161c57fe5b906000526020600020906007020160010160018a8154811015156200163d57fe5b906000526020600020906007020160020160018b8154811015156200165e57fe5b906000526020600020906007020160030160018c8154811015156200167f57fe5b906000526020600020906007020160040160018d815481101515620016a057fe5b906000526020600020906007020160050160009054906101000a900461ffff16858054600181600116156101000203166002900480601f016020809104026020016040519081016040528092919081815260200182805460018160011615610100020316600290048015620017595780601f106200172d5761010080835404028352916020019162001759565b820191906000526020600020905b8154815290600101906020018083116200173b57829003601f168201915b50505050509550848054600181600116156101000203166002900480601f016020809104026020016040519081016040528092919081815260200182805460018160011615610100020316600290048015620017f95780601f10620017cd57610100808354040283529160200191620017f9565b820191906000526020600020905b815481529060010190602001808311620017db57829003601f168201915b50505050509450838054600181600116156101000203166002900480601f016020809104026020016040519081016040528092919081815260200182805460018160011615610100020316600290048015620018995780601f106200186d5761010080835404028352916020019162001899565b820191906000526020600020905b8154815290600101906020018083116200187b57829003601f168201915b50505050509350828054600181600116156101000203166002900480601f016020809104026020016040519081016040528092919081815260200182805460018160011615610100020316600290048015620019395780601f106200190d5761010080835404028352916020019162001939565b820191906000526020600020905b8154815290600101906020018083116200191b57829003601f168201915b50505050509250818054600181600116156101000203166002900480601f016020809104026020016040519081016040528092919081815260200182805460018160011615610100020316600290048015620019d95780601f10620019ad57610100808354040283529160200191620019d9565b820191906000526020600020905b815481529060010190602001808311620019bb57829003601f168201915b505050505091509650965096509650965096505091939550919395565b6301ffc9a77c01000000000000000000000000000000000000000000000000000000000281565b600081600060018054905011801562001a3a575060018054905081105b151562001a4657600080fd5b6003600084815260200190815260200160002060009054906101000a900473ffffffffffffffffffffffffffffffffffffffff16915050919050565b62001a8e338262003770565b151562001a9a57600080fd5b600073ffffffffffffffffffffffffffffffffffffffff168373ffffffffffffffffffffffffffffffffffffffff161415151562001ad757600080fd5b600073ffffffffffffffffffffffffffffffffffffffff168273ffffffffffffffffffffffffffffffffffffffff161415151562001b1457600080fd5b62001b2083826200380d565b62001b2c838262003914565b62001b38828262003a48565b808273ffffffffffffffffffffffffffffffffffffffff168473ffffffffffffffffffffffffffffffffffffffff167fddf252ad1be2c89b69c2b068fc378daa952ba7f163c4a11628f55a4df523b3ef60405160405180910390a4505050565b6060600280548060200260200160405190810160405280929190818152602001828054801562001c1e57602002820191906000526020600020905b8160009054906101000a900473ffffffffffffffffffffffffffffffffffffffff1673ffffffffffffffffffffffffffffffffffffffff168152602001906001019080831162001bd3575b5050505050905090565b62001c3262003f16565b6000809054906101000a900473ffffffffffffffffffffffffffffffffffffffff1673ffffffffffffffffffffffffffffffffffffffff163373ffffffffffffffffffffffffffffffffffffffff1614151562001c8e57600080fd5b60a0604051908101604052808481526020018381526020016000815260200160011515815260200160011515815250905080600760008673ffffffffffffffffffffffffffffffffffffffff1673ffffffffffffffffffffffffffffffffffffffff168152602001908152602001600020600082015181600001908051906020019062001d1d92919062003f4a565b50602082015181600101908051906020019062001d3c92919062003f4a565b506040820151816002015560608201518160030160006101000a81548160ff02191690831515021790555060808201518160030160016101000a81548160ff0219169083151502179055509050508373ffffffffffffffffffffffffffffffffffffffff167f4acd702547bb71d8efddd1d7f34b6bfa61e999232186937d44d2dbb8de5525ce8484604051808060200180602001838103835285818151815260200191508051906020019080838360005b8381101562001e0a57808201518184015260208101905062001ded565b50505050905090810190601f16801562001e385780820380516001836020036101000a031916815260200191505b50838103825284818151815260200191508051906020019080838360005b8381101562001e7357808201518184015260208101905062001e56565b50505050905090810190601f16801562001ea15780820380516001836020036101000a031916815260200191505b5094505050505060405180910390a250505050565b62001ed4838383602060405190810160405280600081525062003638565b505050565b600081600060018054905011801562001ef6575060018054905081105b151562001f0257600080fd5b60018381548110151562001f1257fe5b906000526020600020906007020160060180549050915050919050565b60018181548110151562001f3f57fe5b9060005260206000209060070201600091509050806000018054600181600116156101000203166002900480601f01602080910402602001604051908101604052809291908181526020018280546001816001161561010002031660029004801562001fef5780601f1062001fc35761010080835404028352916020019162001fef565b820191906000526020600020905b81548152906001019060200180831162001fd157829003601f168201915b505050505090806001018054600181600116156101000203166002900480601f016020809104026020016040519081016040528092919081815260200182805460018160011615610100020316600290048015620020915780601f10620020655761010080835404028352916020019162002091565b820191906000526020600020905b8154815290600101906020018083116200207357829003601f168201915b505050505090806002018054600181600116156101000203166002900480601f016020809104026020016040519081016040528092919081815260200182805460018160011615610100020316600290048015620021335780601f10620021075761010080835404028352916020019162002133565b820191906000526020600020905b8154815290600101906020018083116200211557829003601f168201915b505050505090806003018054600181600116156101000203166002900480601f016020809104026020016040519081016040528092919081815260200182805460018160011615610100020316600290048015620021d55780601f10620021a957610100808354040283529160200191620021d5565b820191906000526020600020905b815481529060010190602001808311620021b757829003601f168201915b505050505090806004018054600181600116156101000203166002900480601f016020809104026020016040519081016040528092919081815260200182805460018160011615610100020316600290048015620022775780601f106200224b5761010080835404028352916020019162002277565b820191906000526020600020905b8154815290600101906020018083116200225957829003601f168201915b5050505050908060050160009054906101000a900461ffff16908060050160029054906101000a900473ffffffffffffffffffffffffffffffffffffffff16905087565b6000806003600084815260200190815260200160002060009054906101000a900473ffffffffffffffffffffffffffffffffffffffff169050600073ffffffffffffffffffffffffffffffffffffffff168173ffffffffffffffffffffffffffffffffffffffff161415915050919050565b6002818154811015156200233d57fe5b906000526020600020016000915054906101000a900473ffffffffffffffffffffffffffffffffffffffff1681565b6000806003600084815260200190815260200160002060009054906101000a900473ffffffffffffffffffffffffffffffffffffffff169050600073ffffffffffffffffffffffffffffffffffffffff168173ffffffffffffffffffffffffffffffffffffffff1614151515620023e257600080fd5b80915050919050565b60008073ffffffffffffffffffffffffffffffffffffffff168273ffffffffffffffffffffffffffffffffffffffff16141515156200242957600080fd5b600460008373ffffffffffffffffffffffffffffffffffffffff1673ffffffffffffffffffffffffffffffffffffffff168152602001908152602001600020549050919050565b6000809054906101000a900473ffffffffffffffffffffffffffffffffffffffff1673ffffffffffffffffffffffffffffffffffffffff163373ffffffffffffffffffffffffffffffffffffffff16141515620024cc57600080fd5b6000809054906101000a900473ffffffffffffffffffffffffffffffffffffffff1673ffffffffffffffffffffffffffffffffffffffff167ff8df31144d9c2f0f6b59d69b8b98abd5459d07f2742c4df920b25aae33c6482060405160405180910390a260008060006101000a81548173ffffffffffffffffffffffffffffffffffffffff021916908373ffffffffffffffffffffffffffffffffffffffff160217905550565b60006200257f62003fd1565b6000600760003373ffffffffffffffffffffffffffffffffffffffff1673ffffffffffffffffffffffffffffffffffffffff16815260200190815260200160002060030160009054906101000a900460ff161515620025dd57600080fd5b610100604051908101604052808a81526020018981526020018881526020018781526020018681526020018561ffff1681526020013373ffffffffffffffffffffffffffffffffffffffff16815260200160006040519080825280602002602001820160405280156200265f5781602001602082028038833980820191505090505b50815250915060018083908060018154018082558091505090600182039060005260206000209060070201600090919290919091506000820151816000019080519060200190620026b292919062003f4a565b506020820151816001019080519060200190620026d192919062003f4a565b506040820151816002019080519060200190620026f092919062003f4a565b5060608201518160030190805190602001906200270f92919062003f4a565b5060808201518160040190805190602001906200272e92919062003f4a565b5060a08201518160050160006101000a81548161ffff021916908361ffff16021790555060c08201518160050160026101000a81548173ffffffffffffffffffffffffffffffffffffffff021916908373ffffffffffffffffffffffffffffffffffffffff16021790555060e0820151816006019080519060200190620027b792919062004031565b505050039050336003600083815260200190815260200160002060006101000a81548173ffffffffffffffffffffffffffffffffffffffff021916908373ffffffffffffffffffffffffffffffffffffffff160217905550620028646001600460003373ffffffffffffffffffffffffffffffffffffffff1673ffffffffffffffffffffffffffffffffffffffff1681526020019081526020016000205462003ba590919063ffffffff16565b600460003373ffffffffffffffffffffffffffffffffffffffff1673ffffffffffffffffffffffffffffffffffffffff168152602001908152602001600020819055506008886040518082805190602001908083835b602083101515620028e15780518252602082019150602081019050602083039250620028ba565b6001836020036101000a03801982511681845116808217855250505050505090500191505090815260200160405180910390208190806001815401808255809150509060018203906000526020600020016000909192909190915055506009876040518082805190602001908083835b60208310151562002978578051825260208201915060208101905060208303925062002951565b6001836020036101000a038019825116818451168082178552505050505050905001915050908152602001604051809103902081908060018154018082558091505090600182039060005260206000200160009091929091909150555062002a2d6001600760003373ffffffffffffffffffffffffffffffffffffffff1673ffffffffffffffffffffffffffffffffffffffff1681526020019081526020016000206002015462003ba590919063ffffffff16565b600760003373ffffffffffffffffffffffffffffffffffffffff1673ffffffffffffffffffffffffffffffffffffffff168152602001908152602001600020600201819055503373ffffffffffffffffffffffffffffffffffffffff167fb2b3b3ae2eb6e0427d61d459873621f106e7310f904b84b55366c9e91c770e668a8a8a8a8a8a6040518080602001806020018060200180602001806020018761ffff1661ffff16815260200186810386528c818151815260200191508051906020019080838360005b8381101562002b1157808201518184015260208101905062002af4565b50505050905090810190601f16801562002b3f5780820380516001836020036101000a031916815260200191505b5086810385528b818151815260200191508051906020019080838360005b8381101562002b7a57808201518184015260208101905062002b5d565b50505050905090810190601f16801562002ba85780820380516001836020036101000a031916815260200191505b5086810384528a818151815260200191508051906020019080838360005b8381101562002be357808201518184015260208101905062002bc6565b50505050905090810190601f16801562002c115780820380516001836020036101000a031916815260200191505b50868103835289818151815260200191508051906020019080838360005b8381101562002c4c57808201518184015260208101905062002c2f565b50505050905090810190601f16801562002c7a5780820380516001836020036101000a031916815260200191505b50868103825288818151815260200191508051906020019080838360005b8381101562002cb557808201518184015260208101905062002c98565b50505050905090810190601f16801562002ce35780820380516001836020036101000a031916815260200191505b509b50505050505050505050505060405180910390a26001925050509695505050505050565b60606000606060008062002d1d86620023eb565b9350600084141562002d6357600060405190808252806020026020018201604052801562002d5a5781602001602082028038833980820191505090505b50945062002e53565b8360405190808252806020026020018201604052801562002d935781602001602082028038833980820191505090505b50925060009150600190505b62002da962003665565b8111151562002e4f578573ffffffffffffffffffffffffffffffffffffffff166003600083815260200190815260200160002060009054906101000a900473ffffffffffffffffffffffffffffffffffffffff1673ffffffffffffffffffffffffffffffffffffffff16141562002e415780838381518110151562002e2a57fe5b906020019060200201818152505081806001019250505b808060010191505062002d9f565b8294505b50505050919050565b6007602052806000526040600020600091509050806000018054600181600116156101000203166002900480601f01602080910402602001604051908101604052809291908181526020018280546001816001161561010002031660029004801562002f0c5780601f1062002ee05761010080835404028352916020019162002f0c565b820191906000526020600020905b81548152906001019060200180831162002eee57829003601f168201915b505050505090806001018054600181600116156101000203166002900480601f01602080910402602001604051908101604052809291908181526020018280546001816001161561010002031660029004801562002fae5780601f1062002f825761010080835404028352916020019162002fae565b820191906000526020600020905b81548152906001019060200180831162002f9057829003601f168201915b5050505050908060020154908060030160009054906101000a900460ff16908060030160019054906101000a900460ff16905085565b600080600760003373ffffffffffffffffffffffffffffffffffffffff1673ffffffffffffffffffffffffffffffffffffffff16815260200190815260200160002060030160019054906101000a900460ff1615156200304357600080fd5b866003600082815260200190815260200160002060009054906101000a900473ffffffffffffffffffffffffffffffffffffffff1673ffffffffffffffffffffffffffffffffffffffff163373ffffffffffffffffffffffffffffffffffffffff16141515620030b257600080fd5b8486101515620030c157600080fd5b620030d6868662003bc290919063ffffffff16565b84101515620030e457600080fd5b87338888888830620030f5620040c0565b808881526020018773ffffffffffffffffffffffffffffffffffffffff1673ffffffffffffffffffffffffffffffffffffffff1681526020018681526020018581526020018481526020018381526020018273ffffffffffffffffffffffffffffffffffffffff1673ffffffffffffffffffffffffffffffffffffffff168152602001975050505050505050604051809103906000f0801580156200319e573d6000803e3d6000fd5b50915081600360008a815260200190815260200160002060006101000a81548173ffffffffffffffffffffffffffffffffffffffff021916908373ffffffffffffffffffffffffffffffffffffffff160217905550620032486001600460008573ffffffffffffffffffffffffffffffffffffffff1673ffffffffffffffffffffffffffffffffffffffff1681526020019081526020016000205462003ba590919063ffffffff16565b600460008473ffffffffffffffffffffffffffffffffffffffff1673ffffffffffffffffffffffffffffffffffffffff16815260200190815260200160002081905550620032e06001600460003373ffffffffffffffffffffffffffffffffffffffff1673ffffffffffffffffffffffffffffffffffffffff1681526020019081526020016000205462003bc290919063ffffffff16565b600460003373ffffffffffffffffffffffffffffffffffffffff1673ffffffffffffffffffffffffffffffffffffffff1681526020019081526020016000208190555060028290806001815401808255809150509060018203906000526020600020016000909192909190916101000a81548173ffffffffffffffffffffffffffffffffffffffff021916908373ffffffffffffffffffffffffffffffffffffffff160217905550507fbf7b3d991e76607f43a6d4129ac753a8d4777609e5b7b35dbb62f219c163b0b533898989898988604051808873ffffffffffffffffffffffffffffffffffffffff1673ffffffffffffffffffffffffffffffffffffffff1681526020018781526020018681526020018581526020018481526020018381526020018273ffffffffffffffffffffffffffffffffffffffff1673ffffffffffffffffffffffffffffffffffffffff16815260200197505050505050505060405180910390a1819250505095945050505050565b6000809054906101000a900473ffffffffffffffffffffffffffffffffffffffff1681565b3373ffffffffffffffffffffffffffffffffffffffff168273ffffffffffffffffffffffffffffffffffffffff1614151515620034b757600080fd5b80600660003373ffffffffffffffffffffffffffffffffffffffff1673ffffffffffffffffffffffffffffffffffffffff16815260200190815260200160002060008473ffffffffffffffffffffffffffffffffffffffff1673ffffffffffffffffffffffffffffffffffffffff16815260200190815260200160002060006101000a81548160ff0219169083151502179055508173ffffffffffffffffffffffffffffffffffffffff163373ffffffffffffffffffffffffffffffffffffffff167f17307eab39ab6107e8899845ad3d59bd9653f200f220920489ca2b5937696c3183604051808215151515815260200191505060405180910390a35050565b6060600883836040518083838082843782019150509250505090815260200160405180910390208054806020026020016040519081016040528092919081815260200182805480156200362b57602002820191906000526020600020905b81548152602001906001019080831162003616575b5050505050905092915050565b6200364584848462001a82565b620036538484848462003bdc565b15156200365f57600080fd5b50505050565b6000600180549050905090565b6000600660008473ffffffffffffffffffffffffffffffffffffffff1673ffffffffffffffffffffffffffffffffffffffff16815260200190815260200160002060008373ffffffffffffffffffffffffffffffffffffffff1673ffffffffffffffffffffffffffffffffffffffff16815260200190815260200160002060009054906101000a900460ff16905092915050565b6000809054906101000a900473ffffffffffffffffffffffffffffffffffffffff1673ffffffffffffffffffffffffffffffffffffffff163373ffffffffffffffffffffffffffffffffffffffff161415156200376257600080fd5b6200376d8162003e08565b50565b6000806200377e836200236c565b90508073ffffffffffffffffffffffffffffffffffffffff168473ffffffffffffffffffffffffffffffffffffffff161480620037f057508373ffffffffffffffffffffffffffffffffffffffff16620037d88462001431565b73ffffffffffffffffffffffffffffffffffffffff16145b8062003804575062003803818562003672565b5b91505092915050565b8173ffffffffffffffffffffffffffffffffffffffff166200382f826200236c565b73ffffffffffffffffffffffffffffffffffffffff161415156200385257600080fd5b600073ffffffffffffffffffffffffffffffffffffffff166005600083815260200190815260200160002060009054906101000a900473ffffffffffffffffffffffffffffffffffffffff1673ffffffffffffffffffffffffffffffffffffffff16141515620039105760006005600083815260200190815260200160002060006101000a81548173ffffffffffffffffffffffffffffffffffffffff021916908373ffffffffffffffffffffffffffffffffffffffff1602179055505b5050565b8173ffffffffffffffffffffffffffffffffffffffff1662003936826200236c565b73ffffffffffffffffffffffffffffffffffffffff161415156200395957600080fd5b620039ae6001600460008573ffffffffffffffffffffffffffffffffffffffff1673ffffffffffffffffffffffffffffffffffffffff1681526020019081526020016000205462003bc290919063ffffffff16565b600460008473ffffffffffffffffffffffffffffffffffffffff1673ffffffffffffffffffffffffffffffffffffffff1681526020019081526020016000208190555060006003600083815260200190815260200160002060006101000a81548173ffffffffffffffffffffffffffffffffffffffff021916908373ffffffffffffffffffffffffffffffffffffffff1602179055505050565b600073ffffffffffffffffffffffffffffffffffffffff166003600083815260200190815260200160002060009054906101000a900473ffffffffffffffffffffffffffffffffffffffff1673ffffffffffffffffffffffffffffffffffffffff1614151562003ab757600080fd5b816003600083815260200190815260200160002060006101000a81548173ffffffffffffffffffffffffffffffffffffffff021916908373ffffffffffffffffffffffffffffffffffffffff16021790555062003b5e6001600460008573ffffffffffffffffffffffffffffffffffffffff1673ffffffffffffffffffffffffffffffffffffffff1681526020019081526020016000205462003ba590919063ffffffff16565b600460008473ffffffffffffffffffffffffffffffffffffffff1673ffffffffffffffffffffffffffffffffffffffff168152602001908152602001600020819055505050565b6000818301905082811015151562003bb957fe5b80905092915050565b600082821115151562003bd157fe5b818303905092915050565b60008062003c008573ffffffffffffffffffffffffffffffffffffffff1662003f03565b151562003c11576001915062003dff565b8473ffffffffffffffffffffffffffffffffffffffff1663150b7a02338887876040518563ffffffff167c0100000000000000000000000000000000000000000000000000000000028152600401808573ffffffffffffffffffffffffffffffffffffffff1673ffffffffffffffffffffffffffffffffffffffff1681526020018473ffffffffffffffffffffffffffffffffffffffff1673ffffffffffffffffffffffffffffffffffffffff16815260200183815260200180602001828103825283818151815260200191508051906020019080838360005b8381101562003d0857808201518184015260208101905062003ceb565b50505050905090810190601f16801562003d365780820380516001836020036101000a031916815260200191505b5095505050505050602060405180830381600087803b15801562003d5957600080fd5b505af115801562003d6e573d6000803e3d6000fd5b505050506040513d602081101562003d8557600080fd5b8101908080519060200190929190505050905063150b7a027c0100000000000000000000000000000000000000000000000000000000027bffffffffffffffffffffffffffffffffffffffffffffffffffffffff1916817bffffffffffffffffffffffffffffffffffffffffffffffffffffffff19161491505b50949350505050565b600073ffffffffffffffffffffffffffffffffffffffff168173ffffffffffffffffffffffffffffffffffffffff161415151562003e4557600080fd5b8073ffffffffffffffffffffffffffffffffffffffff166000809054906101000a900473ffffffffffffffffffffffffffffffffffffffff1673ffffffffffffffffffffffffffffffffffffffff167f8be0079c531659141344cd1fd0a4f28419497f9722a3daafe3b4186f6b6457e060405160405180910390a3806000806101000a81548173ffffffffffffffffffffffffffffffffffffffff021916908373ffffffffffffffffffffffffffffffffffffffff16021790555050565b600080823b905060008111915050919050565b60a0604051908101604052806060815260200160608152602001600081526020016000151581526020016000151581525090565b828054600181600116156101000203166002900490600052602060002090601f016020900481019282601f1062003f8d57805160ff191683800117855562003fbe565b8280016001018555821562003fbe579182015b8281111562003fbd57825182559160200191906001019062003fa0565b5b50905062003fcd9190620040d1565b5090565b610100604051908101604052806060815260200160608152602001606081526020016060815260200160608152602001600061ffff168152602001600073ffffffffffffffffffffffffffffffffffffffff168152602001606081525090565b828054828255906000526020600020908101928215620040ad579160200282015b82811115620040ac5782518260006101000a81548173ffffffffffffffffffffffffffffffffffffffff021916908373ffffffffffffffffffffffffffffffffffffffff1602179055509160200191906001019062004052565b5b509050620040bc9190620040f9565b5090565b6040516116c5806200414083390190565b620040f691905b80821115620040f2576000816000905550600101620040d8565b5090565b90565b6200413c91905b808211156200413857600081816101000a81549073ffffffffffffffffffffffffffffffffffffffff02191690555060010162004100565b5090565b905600608060405234801561001057600080fd5b5060405160e0806116c583398101806040528101908080519060200190929190805190602001909291908051906020019092919080519060200190929190805190602001909291908051906020019092919080519060200190929190505050806000806101000a81548173ffffffffffffffffffffffffffffffffffffffff021916908373ffffffffffffffffffffffffffffffffffffffff16021790555033600160006101000a81548173ffffffffffffffffffffffffffffffffffffffff021916908373ffffffffffffffffffffffffffffffffffffffff1602179055504260028190555061011985600254610188640100000000026114ca179091906401000000009004565b6003819055508660068190555085600160006101000a81548173ffffffffffffffffffffffffffffffffffffffff021916908373ffffffffffffffffffffffffffffffffffffffff160217905550836004819055508260078190555081600581905550505050505050506101a4565b6000818301905082811015151561019b57fe5b80905092915050565b611512806101b36000396000f30060806040526004361061011d576000357c0100000000000000000000000000000000000000000000000000000000900463ffffffff1680630b97bc8614610122578063166034a31461014d57806317d70f7c1461017c5780633ccfd60b146101a75780633f8c8244146101c95780634979440a14610220578063799a53591461024b5780638da5cb5b146102625780638e7ea5b2146102b957806391f901571461031757806395ee12211461036e578063abf0eb501461039d578063b3cc167a146103f8578063b9fdd56914610423578063c24a0f8b1461044e578063ce5e0ddb14610479578063dac6270d146104d0578063ea8a1af0146104fb578063ecb70fb714610512578063ecfc7ecc14610541578063fa2473961461054b575b600080fd5b34801561012e57600080fd5b50610137610576565b6040518082815260200191505060405180910390f35b34801561015957600080fd5b5061016261057c565b604051808215151515815260200191505060405180910390f35b34801561018857600080fd5b5061019161058f565b6040518082815260200191505060405180910390f35b6101af610595565b604051808215151515815260200191505060405180910390f35b3480156101d557600080fd5b506101de610a70565b604051808273ffffffffffffffffffffffffffffffffffffffff1673ffffffffffffffffffffffffffffffffffffffff16815260200191505060405180910390f35b34801561022c57600080fd5b50610235610a95565b6040518082815260200191505060405180910390f35b34801561025757600080fd5b50610260610afe565b005b34801561026e57600080fd5b50610277610d0f565b604051808273ffffffffffffffffffffffffffffffffffffffff1673ffffffffffffffffffffffffffffffffffffffff16815260200191505060405180910390f35b3480156102c557600080fd5b506102ce610d35565b604051808373ffffffffffffffffffffffffffffffffffffffff1673ffffffffffffffffffffffffffffffffffffffff1681526020018281526020019250505060405180910390f35b34801561032357600080fd5b5061032c610df1565b604051808273ffffffffffffffffffffffffffffffffffffffff1673ffffffffffffffffffffffffffffffffffffffff16815260200191505060405180910390f35b34801561037a57600080fd5b50610383610e17565b604051808215151515815260200191505060405180910390f35b3480156103a957600080fd5b506103de600480360381019080803573ffffffffffffffffffffffffffffffffffffffff169060200190929190505050610e2a565b604051808215151515815260200191505060405180910390f35b34801561040457600080fd5b5061040d610ece565b6040518082815260200191505060405180910390f35b34801561042f57600080fd5b50610438610ed4565b6040518082815260200191505060405180910390f35b34801561045a57600080fd5b50610463610eda565b6040518082815260200191505060405180910390f35b34801561048557600080fd5b506104ba600480360381019080803573ffffffffffffffffffffffffffffffffffffffff169060200190929190505050610ee0565b6040518082815260200191505060405180910390f35b3480156104dc57600080fd5b506104e5610f29565b6040518082815260200191505060405180910390f35b34801561050757600080fd5b50610510610f49565b005b34801561051e57600080fd5b50610527611155565b604051808215151515815260200191505060405180910390f35b610549611162565b005b34801561055757600080fd5b50610560611481565b6040518082815260200191505060405180910390f35b60025481565b600860009054906101000a900460ff1681565b60065481565b600061059f611155565b15156105aa57600080fd5b600160009054906101000a900473ffffffffffffffffffffffffffffffffffffffff1673ffffffffffffffffffffffffffffffffffffffff163373ffffffffffffffffffffffffffffffffffffffff1614801561060c575061060a611487565b155b1561062d576001600860006101000a81548160ff0219169083151502179055505b610635611487565b151561064057600080fd5b3373ffffffffffffffffffffffffffffffffffffffff16600860029054906101000a900473ffffffffffffffffffffffffffffffffffffffff1673ffffffffffffffffffffffffffffffffffffffff161415151561069d57600080fd5b600160009054906101000a900473ffffffffffffffffffffffffffffffffffffffff1673ffffffffffffffffffffffffffffffffffffffff163373ffffffffffffffffffffffffffffffffffffffff161480156107075750600860009054906101000a900460ff16155b1561091057600160009054906101000a900473ffffffffffffffffffffffffffffffffffffffff1673ffffffffffffffffffffffffffffffffffffffff166108fc60096000600860029054906101000a900473ffffffffffffffffffffffffffffffffffffffff1673ffffffffffffffffffffffffffffffffffffffff1673ffffffffffffffffffffffffffffffffffffffff168152602001908152602001600020549081150290604051600060405180830381858888f193505050501580156107d5573d6000803e3d6000fd5b50600060096000600860029054906101000a900473ffffffffffffffffffffffffffffffffffffffff1673ffffffffffffffffffffffffffffffffffffffff1673ffffffffffffffffffffffffffffffffffffffff168152602001908152602001600020819055506001600860006101000a81548160ff0219169083151502179055503373ffffffffffffffffffffffffffffffffffffffff167f884edad9ce6fa2440d8a54cc123490eb96d2768479d49ff9c7366125a942436460096000600860029054906101000a900473ffffffffffffffffffffffffffffffffffffffff1673ffffffffffffffffffffffffffffffffffffffff1673ffffffffffffffffffffffffffffffffffffffff168152602001908152602001600020546040518082815260200191505060405180910390a260019050610a6d565b3373ffffffffffffffffffffffffffffffffffffffff166108fc600960003373ffffffffffffffffffffffffffffffffffffffff1673ffffffffffffffffffffffffffffffffffffffff168152602001908152602001600020549081150290604051600060405180830381858888f19350505050158015610995573d6000803e3d6000fd5b506000600960003373ffffffffffffffffffffffffffffffffffffffff1673ffffffffffffffffffffffffffffffffffffffff168152602001908152602001600020819055503373ffffffffffffffffffffffffffffffffffffffff167f884edad9ce6fa2440d8a54cc123490eb96d2768479d49ff9c7366125a9424364600960003373ffffffffffffffffffffffffffffffffffffffff1673ffffffffffffffffffffffffffffffffffffffff168152602001908152602001600020546040518082815260200191505060405180910390a2600190505b90565b6000809054906101000a900473ffffffffffffffffffffffffffffffffffffffff1681565b600060096000600860029054906101000a900473ffffffffffffffffffffffffffffffffffffffff1673ffffffffffffffffffffffffffffffffffffffff1673ffffffffffffffffffffffffffffffffffffffff16815260200190815260200160002054905090565b6000600860029054906101000a900473ffffffffffffffffffffffffffffffffffffffff169050610b2d611487565b1515610b5957600160009054906101000a900473ffffffffffffffffffffffffffffffffffffffff1690505b7f45460b687880bc387518917b7b2f038276df3129fdea2e03690b3f59239b8ec23082600654604051808473ffffffffffffffffffffffffffffffffffffffff1673ffffffffffffffffffffffffffffffffffffffff1681526020018373ffffffffffffffffffffffffffffffffffffffff1673ffffffffffffffffffffffffffffffffffffffff168152602001828152602001935050505060405180910390a16000809054906101000a900473ffffffffffffffffffffffffffffffffffffffff1673ffffffffffffffffffffffffffffffffffffffff166323b872dd30836006546040518463ffffffff167c0100000000000000000000000000000000000000000000000000000000028152600401808473ffffffffffffffffffffffffffffffffffffffff1673ffffffffffffffffffffffffffffffffffffffff1681526020018373ffffffffffffffffffffffffffffffffffffffff1673ffffffffffffffffffffffffffffffffffffffff1681526020018281526020019350505050600060405180830381600087803b158015610cf457600080fd5b505af1158015610d08573d6000803e3d6000fd5b5050505050565b600160009054906101000a900473ffffffffffffffffffffffffffffffffffffffff1681565b600080610d40611155565b8015610d595750600860019054906101000a900460ff16155b1515610d6457600080fd5b600860029054906101000a900473ffffffffffffffffffffffffffffffffffffffff1660096000600860029054906101000a900473ffffffffffffffffffffffffffffffffffffffff1673ffffffffffffffffffffffffffffffffffffffff1673ffffffffffffffffffffffffffffffffffffffff16815260200190815260200160002054915091509091565b600860029054906101000a900473ffffffffffffffffffffffffffffffffffffffff1681565b600860019054906101000a900460ff1681565b6000600160009054906101000a900473ffffffffffffffffffffffffffffffffffffffff1673ffffffffffffffffffffffffffffffffffffffff168273ffffffffffffffffffffffffffffffffffffffff161480610ec757506000600960008473ffffffffffffffffffffffffffffffffffffffff1673ffffffffffffffffffffffffffffffffffffffff16815260200190815260200160002054115b9050919050565b60055481565b60045481565b60035481565b6000600960008373ffffffffffffffffffffffffffffffffffffffff1673ffffffffffffffffffffffffffffffffffffffff168152602001908152602001600020549050919050565b6000600354421115610f3e5760009050610f46565b426003540390505b90565b600160009054906101000a900473ffffffffffffffffffffffffffffffffffffffff1673ffffffffffffffffffffffffffffffffffffffff163373ffffffffffffffffffffffffffffffffffffffff16141515610fa557600080fd5b6000610faf610f29565b111515610fbb57600080fd5b6000809054906101000a900473ffffffffffffffffffffffffffffffffffffffff1673ffffffffffffffffffffffffffffffffffffffff166323b872dd30600160009054906101000a900473ffffffffffffffffffffffffffffffffffffffff166006546040518463ffffffff167c0100000000000000000000000000000000000000000000000000000000028152600401808473ffffffffffffffffffffffffffffffffffffffff1673ffffffffffffffffffffffffffffffffffffffff1681526020018373ffffffffffffffffffffffffffffffffffffffff1673ffffffffffffffffffffffffffffffffffffffff1681526020018281526020019350505050600060405180830381600087803b1580156110d757600080fd5b505af11580156110eb573d6000803e3d6000fd5b505050506000600860026101000a81548173ffffffffffffffffffffffffffffffffffffffff021916908373ffffffffffffffffffffffffffffffffffffffff160217905550426003819055506001600860016101000a81548160ff021916908315150217905550565b6000600354421015905090565b600061116c610f29565b11151561117857600080fd5b60006111cc34600960003373ffffffffffffffffffffffffffffffffffffffff1673ffffffffffffffffffffffffffffffffffffffff168152602001908152602001600020546114ca90919063ffffffff16565b90506000600860029054906101000a900473ffffffffffffffffffffffffffffffffffffffff1673ffffffffffffffffffffffffffffffffffffffff16141561122157600454811015151561122057600080fd5b5b61129760055460096000600860029054906101000a900473ffffffffffffffffffffffffffffffffffffffff1673ffffffffffffffffffffffffffffffffffffffff1673ffffffffffffffffffffffffffffffffffffffff168152602001908152602001600020546114ca90919063ffffffff16565b81101515156112a557600080fd5b60075481111515156112b657600080fd5b600160009054906101000a900473ffffffffffffffffffffffffffffffffffffffff1673ffffffffffffffffffffffffffffffffffffffff163373ffffffffffffffffffffffffffffffffffffffff161415151561131357600080fd5b33600860026101000a81548173ffffffffffffffffffffffffffffffffffffffff021916908373ffffffffffffffffffffffffffffffffffffffff1602179055506113a634600960003373ffffffffffffffffffffffffffffffffffffffff1673ffffffffffffffffffffffffffffffffffffffff168152602001908152602001600020546114ca90919063ffffffff16565b600960003373ffffffffffffffffffffffffffffffffffffffff1673ffffffffffffffffffffffffffffffffffffffff168152602001908152602001600020819055503373ffffffffffffffffffffffffffffffffffffffff167fea602cde4e1d0ea7d2d2404223fa40af5db611461db974bf307e94352d6eabb534600960003373ffffffffffffffffffffffffffffffffffffffff1673ffffffffffffffffffffffffffffffffffffffff16815260200190815260200160002054604051808381526020018281526020019250505060405180910390a250565b60075481565b600080600860029054906101000a900473ffffffffffffffffffffffffffffffffffffffff1673ffffffffffffffffffffffffffffffffffffffff161415905090565b600081830190508281101515156114dd57fe5b809050929150505600a165627a7a72305820744db04b20bf06f95734c7685573ce9696b8215c3af5761e43aac5d6adc5ce9a0029a165627a7a723058207041d49c14e37d4330611811f559978a3e61f6ab1219912a267f4c92a8eb2d800029",
  "source": "pragma solidity ^0.4.24;\n\nimport '../node_modules/zeppelin-solidity/contracts/token/ERC721/ERC721Basic.sol';\nimport '../node_modules/zeppelin-solidity/contracts/token/ERC721/ERC721Receiver.sol';\nimport '../node_modules/zeppelin-solidity/contracts/AddressUtils.sol';\nimport '../node_modules/zeppelin-solidity/contracts/introspection/SupportsInterfaceWithLookup.sol';\n\nimport './ArtworkBase.sol';\nimport './Auction.sol';\n\ncontract ArtworkOwnership is ArtworkBase, ERC721Basic, SupportsInterfaceWithLookup {\n  \n  using AddressUtils for address;\n\n  bytes4 private constant ERC721_RECEIVED = 0x150b7a02;\n\n  constructor () public {\n    _registerInterface(InterfaceId_ERC721);\n    _registerInterface(InterfaceId_ERC721Exists);\n  }\n\n  function createAuction(uint _tokenId, uint _durationInSec, uint _startingBid, uint _highestAllowedBidAmount, uint _bidIncrement) public canCreateAuction isOwnerOfToken(_tokenId) returns (address) {\n    require(_startingBid < _highestAllowedBidAmount);\n    require(_bidIncrement < _highestAllowedBidAmount.sub(_startingBid));\n    Auction auction = new Auction(_tokenId, msg.sender, _durationInSec, _startingBid, _highestAllowedBidAmount, _bidIncrement, this);\n    artworkIndexToOwner[_tokenId] = auction;\n    ownershipTokenCount[auction] = ownershipTokenCount[auction].add(1);\n    ownershipTokenCount[msg.sender] = ownershipTokenCount[msg.sender].sub(1);\n    auctions.push(auction);\n    emit CreateAuction(msg.sender, _tokenId, _durationInSec, _startingBid, _highestAllowedBidAmount, _bidIncrement, auction);\n    return auction;\n  }\n\n  function tokensOfOwner(address _owner) external view returns (uint256[]) {\n    uint256 tokenCount = balanceOf(_owner);\n\n    if (tokenCount == 0) {\n      return new uint256[](0);\n    }\n    uint256[] memory result = new uint256[](tokenCount);\n    uint256 currentIndex = 0;\n\n    uint256 artworkIndex;\n\n    for (artworkIndex = 1; artworkIndex <= getTotalSupply(); artworkIndex++) {\n      if (artworkIndexToOwner[artworkIndex] == _owner) {\n        result[currentIndex] = artworkIndex;\n        currentIndex++;\n      }\n    }\n    return result;\n  }\n\n  function balanceOf(address _owner) public view returns (uint256) {\n    require(_owner != address(0));\n    return ownershipTokenCount[_owner];\n  }\n\n  function ownerOf(uint256 _tokenId) public view returns (address) {\n    address owner = artworkIndexToOwner[_tokenId];\n    require(owner != address(0));\n    return owner;\n  }\n\n  function exists(uint256 _tokenId) public view returns (bool) {\n    address owner = artworkIndexToOwner[_tokenId];\n    return owner != address(0);\n  }\n\n function approve(address _to, uint256 _tokenId) public {\n  address owner = ownerOf(_tokenId);\n  require(_to != owner);\n  require(msg.sender == owner || isApprovedForAll(owner, msg.sender));\n  artworkApprovals[_tokenId] = _to;\n  emit Approval(msg.sender, _to, _tokenId);\n }\n\n  function getApproved(uint256 _tokenId) public view returns (address) {\n    return artworkApprovals[_tokenId];\n  }\n\n  function setApprovalForAll(address _to, bool _approved) public {\n    require(_to != msg.sender);\n    operatorApprovals[msg.sender][_to] = _approved;\n    emit ApprovalForAll(msg.sender, _to, _approved);\n  }\n\n  function isApprovedForAll(address _owner, address _operator) public view returns (bool) {\n    return operatorApprovals[_owner][_operator];\n  }\n\n  function transferFrom(address _from, address _to, uint256 _tokenId) public {\n    require(isApprovedOrOwner(msg.sender, _tokenId));\n    require(_from != address(0));\n    require(_to != address(0));\n    clearApproval(_from, _tokenId);\n    removeTokenFrom(_from, _tokenId);\n    addTokenTo(_to, _tokenId);\n    emit Transfer(_from, _to, _tokenId);\n  }\n\n  function safeTransferFrom(address _from, address _to, uint256 _tokenId) public {\n    safeTransferFrom(_from, _to, _tokenId, \"\");\n  }\n  \n  function safeTransferFrom(address _from, address _to, uint256 _tokenId, bytes _data) public {\n    transferFrom(_from, _to, _tokenId);\n    require(checkAndCallSafeTransfer(_from, _to, _tokenId, _data));\n  }\n\n  function isApprovedOrOwner(address _spender, uint _tokenId) internal view returns (bool) {\n    address owner = ownerOf(_tokenId);\n    return (\n      _spender == owner ||\n      getApproved(_tokenId) == _spender ||\n      isApprovedForAll(owner, _spender)\n    );\n  }\n\n  function clearApproval(address _owner, uint _tokenId) internal {\n    require(ownerOf(_tokenId) == _owner);\n    if (artworkApprovals[_tokenId] != address(0)) {\n      artworkApprovals[_tokenId] = address(0);\n    }\n  }\n\n  function addTokenTo(address _to, uint _tokenId) internal {\n    require(artworkIndexToOwner[_tokenId] == address(0));\n    artworkIndexToOwner[_tokenId] = _to;\n    ownershipTokenCount[_to] = ownershipTokenCount[_to].add(1);\n  }\n\n  function removeTokenFrom(address _from, uint _tokenId) internal {\n    require(ownerOf(_tokenId) == _from);\n    ownershipTokenCount[_from] = ownershipTokenCount[_from].sub(1);\n    artworkIndexToOwner[_tokenId] = address(0);\n  }\n\n  function checkAndCallSafeTransfer(address _from, address _to, uint _tokenId, bytes _data) internal returns (bool) {\n    if (!_to.isContract()) {\n      return true;\n    }\n    bytes4 retval = ERC721Receiver(_to).onERC721Received(\n      msg.sender, _from, _tokenId, _data);\n    return (retval == ERC721_RECEIVED);\n  }\n}",
  "sourcePath": "C:\\Users\\User\\Trainings\\SoftUni_BlockChain\\DApp\\DArt\\contracts\\ArtworkOwnership.sol",
  "compiler": {
    "name": "solc",
    "version": "0.4.24+commit.e67f0147.Emscripten.clang"
  },
  "schemaVersion": "2.0.1",
  "updatedAt": "2018-09-29T17:27:19.910Z"
}