{
  "contractName": "ArtworkBase",
  "abi": [
    {
      "constant": true,
      "inputs": [
        {
          "name": "",
          "type": "uint256"
        }
      ],
      "name": "artworks",
      "outputs": [
        {
          "name": "title",
          "type": "string"
        },
        {
          "name": "category",
          "type": "string"
        },
        {
          "name": "artist",
          "type": "string"
        },
        {
          "name": "photoIpfsHash",
          "type": "string"
        },
        {
          "name": "description",
          "type": "string"
        },
        {
          "name": "year",
          "type": "uint16"
        },
        {
          "name": "currentOwner",
          "type": "address"
        }
      ],
      "payable": false,
      "stateMutability": "view",
      "type": "function"
    },
    {
      "constant": true,
      "inputs": [
        {
          "name": "",
          "type": "uint256"
        }
      ],
      "name": "auctions",
      "outputs": [
        {
          "name": "",
          "type": "address"
        }
      ],
      "payable": false,
      "stateMutability": "view",
      "type": "function"
    },
    {
      "constant": false,
      "inputs": [],
      "name": "renounceOwnership",
      "outputs": [],
      "payable": false,
      "stateMutability": "nonpayable",
      "type": "function"
    },
    {
      "constant": true,
      "inputs": [
        {
          "name": "",
          "type": "address"
        }
      ],
      "name": "galleries",
      "outputs": [
        {
          "name": "name",
          "type": "string"
        },
        {
          "name": "completeAddress",
          "type": "string"
        },
        {
          "name": "artworkCount",
          "type": "uint256"
        },
        {
          "name": "canAddArtwork",
          "type": "bool"
        },
        {
          "name": "canCreateAuction",
          "type": "bool"
        }
      ],
      "payable": false,
      "stateMutability": "view",
      "type": "function"
    },
    {
      "constant": true,
      "inputs": [],
      "name": "owner",
      "outputs": [
        {
          "name": "",
          "type": "address"
        }
      ],
      "payable": false,
      "stateMutability": "view",
      "type": "function"
    },
    {
      "constant": false,
      "inputs": [
        {
          "name": "_newOwner",
          "type": "address"
        }
      ],
      "name": "transferOwnership",
      "outputs": [],
      "payable": false,
      "stateMutability": "nonpayable",
      "type": "function"
    },
    {
      "inputs": [],
      "payable": false,
      "stateMutability": "nonpayable",
      "type": "constructor"
    },
    {
      "anonymous": false,
      "inputs": [
        {
          "indexed": true,
          "name": "_galleryAddress",
          "type": "address"
        },
        {
          "indexed": false,
          "name": "_name",
          "type": "string"
        },
        {
          "indexed": false,
          "name": "_completeAddress",
          "type": "string"
        }
      ],
      "name": "AddGallery",
      "type": "event"
    },
    {
      "anonymous": false,
      "inputs": [
        {
          "indexed": true,
          "name": "_galleryAddress",
          "type": "address"
        },
        {
          "indexed": false,
          "name": "_title",
          "type": "string"
        },
        {
          "indexed": false,
          "name": "_category",
          "type": "string"
        },
        {
          "indexed": false,
          "name": "_artist",
          "type": "string"
        },
        {
          "indexed": false,
          "name": "_photoIpfsHash",
          "type": "string"
        },
        {
          "indexed": false,
          "name": "_description",
          "type": "string"
        },
        {
          "indexed": false,
          "name": "_year",
          "type": "uint16"
        }
      ],
      "name": "AddArtwork",
      "type": "event"
    },
    {
      "anonymous": false,
      "inputs": [
        {
          "indexed": false,
          "name": "_creator",
          "type": "address"
        },
        {
          "indexed": false,
          "name": "_tokenId",
          "type": "uint256"
        },
        {
          "indexed": false,
          "name": "_durationInSec",
          "type": "uint256"
        },
        {
          "indexed": false,
          "name": "_startingBid",
          "type": "uint256"
        },
        {
          "indexed": false,
          "name": "_highestAllowedBidAmount",
          "type": "uint256"
        },
        {
          "indexed": false,
          "name": "_bidIncrement",
          "type": "uint256"
        },
        {
          "indexed": false,
          "name": "_auctionAddress",
          "type": "address"
        }
      ],
      "name": "CreateAuction",
      "type": "event"
    },
    {
      "anonymous": false,
      "inputs": [
        {
          "indexed": true,
          "name": "previousOwner",
          "type": "address"
        }
      ],
      "name": "OwnershipRenounced",
      "type": "event"
    },
    {
      "anonymous": false,
      "inputs": [
        {
          "indexed": true,
          "name": "previousOwner",
          "type": "address"
        },
        {
          "indexed": true,
          "name": "newOwner",
          "type": "address"
        }
      ],
      "name": "OwnershipTransferred",
      "type": "event"
    },
    {
      "constant": false,
      "inputs": [
        {
          "name": "_galleryAddress",
          "type": "address"
        },
        {
          "name": "_name",
          "type": "string"
        },
        {
          "name": "_completeAddress",
          "type": "string"
        }
      ],
      "name": "addGallery",
      "outputs": [],
      "payable": false,
      "stateMutability": "nonpayable",
      "type": "function"
    },
    {
      "constant": false,
      "inputs": [
        {
          "name": "_title",
          "type": "string"
        },
        {
          "name": "_category",
          "type": "string"
        },
        {
          "name": "_artist",
          "type": "string"
        },
        {
          "name": "_photoIpfsHash",
          "type": "string"
        },
        {
          "name": "_description",
          "type": "string"
        },
        {
          "name": "_year",
          "type": "uint16"
        }
      ],
      "name": "addArtwork",
      "outputs": [
        {
          "name": "",
          "type": "bool"
        }
      ],
      "payable": false,
      "stateMutability": "nonpayable",
      "type": "function"
    },
    {
      "constant": true,
      "inputs": [
        {
          "name": "_tokenId",
          "type": "uint256"
        }
      ],
      "name": "getArtwork",
      "outputs": [
        {
          "name": "",
          "type": "string"
        },
        {
          "name": "",
          "type": "string"
        },
        {
          "name": "",
          "type": "string"
        },
        {
          "name": "",
          "type": "string"
        },
        {
          "name": "",
          "type": "string"
        },
        {
          "name": "",
          "type": "uint16"
        }
      ],
      "payable": false,
      "stateMutability": "view",
      "type": "function"
    },
    {
      "constant": true,
      "inputs": [
        {
          "name": "_tokenId",
          "type": "uint256"
        }
      ],
      "name": "getArtworkOwner",
      "outputs": [
        {
          "name": "",
          "type": "address"
        }
      ],
      "payable": false,
      "stateMutability": "view",
      "type": "function"
    },
    {
      "constant": true,
      "inputs": [
        {
          "name": "_tokenId",
          "type": "uint256"
        }
      ],
      "name": "getArtworkOwnerHistoryCount",
      "outputs": [
        {
          "name": "",
          "type": "uint256"
        }
      ],
      "payable": false,
      "stateMutability": "view",
      "type": "function"
    },
    {
      "constant": true,
      "inputs": [],
      "name": "getTotalSupply",
      "outputs": [
        {
          "name": "",
          "type": "uint256"
        }
      ],
      "payable": false,
      "stateMutability": "view",
      "type": "function"
    },
    {
      "constant": true,
      "inputs": [],
      "name": "getAllAuctionAddresses",
      "outputs": [
        {
          "name": "",
          "type": "address[]"
        }
      ],
      "payable": false,
      "stateMutability": "view",
      "type": "function"
    },
    {
      "constant": true,
      "inputs": [
        {
          "name": "_category",
          "type": "string"
        }
      ],
      "name": "getArtworksByCategory",
      "outputs": [
        {
          "name": "",
          "type": "uint256[]"
        }
      ],
      "payable": false,
      "stateMutability": "view",
      "type": "function"
    }
  ],
  "bytecode": "0x608060405234801561001057600080fd5b50336000806101000a81548173ffffffffffffffffffffffffffffffffffffffff021916908373ffffffffffffffffffffffffffffffffffffffff160217905550336000806101000a81548173ffffffffffffffffffffffffffffffffffffffff021916908373ffffffffffffffffffffffffffffffffffffffff16021790555061266a806100a06000396000f3006080604052600436106100d0576000357c0100000000000000000000000000000000000000000000000000000000900463ffffffff168063167ddf6e146100d55780632198d39a1461033a57806328046179146103a75780633d960ffc1461041357806347355041146104e25780634b60267314610523578063571a26a0146107bb578063715018a614610828578063812413841461083f578063893764ea146109e65780638da5cb5b14610b2b578063aac77ee314610b82578063c4e41b2214610c12578063f2fde38b14610c3d575b600080fd5b3480156100e157600080fd5b5061010060048036038101908080359060200190929190505050610c80565b6040518080602001806020018060200180602001806020018761ffff1661ffff16815260200186810386528c818151815260200191508051906020019080838360005b8381101561015e578082015181840152602081019050610143565b50505050905090810190601f16801561018b5780820380516001836020036101000a031916815260200191505b5086810385528b818151815260200191508051906020019080838360005b838110156101c45780820151818401526020810190506101a9565b50505050905090810190601f1680156101f15780820380516001836020036101000a031916815260200191505b5086810384528a818151815260200191508051906020019080838360005b8381101561022a57808201518184015260208101905061020f565b50505050905090810190601f1680156102575780820380516001836020036101000a031916815260200191505b50868103835289818151815260200191508051906020019080838360005b83811015610290578082015181840152602081019050610275565b50505050905090810190601f1680156102bd5780820380516001836020036101000a031916815260200191505b50868103825288818151815260200191508051906020019080838360005b838110156102f65780820151818401526020810190506102db565b50505050905090810190601f1680156103235780820380516001836020036101000a031916815260200191505b509b50505050505050505050505060405180910390f35b34801561034657600080fd5b50610365600480360381019080803590602001909291905050506110a0565b604051808273ffffffffffffffffffffffffffffffffffffffff1673ffffffffffffffffffffffffffffffffffffffff16815260200191505060405180910390f35b3480156103b357600080fd5b506103bc611103565b6040518080602001828103825283818151815260200191508051906020019060200280838360005b838110156103ff5780820151818401526020810190506103e4565b505050509050019250505060405180910390f35b34801561041f57600080fd5b506104e0600480360381019080803573ffffffffffffffffffffffffffffffffffffffff169060200190929190803590602001908201803590602001908080601f0160208091040260200160405190810160405280939291908181526020018383808284378201915050505050509192919290803590602001908201803590602001908080601f0160208091040260200160405190810160405280939291908181526020018383808284378201915050505050509192919290505050611191565b005b3480156104ee57600080fd5b5061050d60048036038101908080359060200190929190505050611412565b6040518082815260200191505060405180910390f35b34801561052f57600080fd5b5061054e60048036038101908080359060200190929190505050611465565b6040518080602001806020018060200180602001806020018861ffff1661ffff1681526020018773ffffffffffffffffffffffffffffffffffffffff1673ffffffffffffffffffffffffffffffffffffffff16815260200186810386528d818151815260200191508051906020019080838360005b838110156105de5780820151818401526020810190506105c3565b50505050905090810190601f16801561060b5780820380516001836020036101000a031916815260200191505b5086810385528c818151815260200191508051906020019080838360005b83811015610644578082015181840152602081019050610629565b50505050905090810190601f1680156106715780820380516001836020036101000a031916815260200191505b5086810384528b818151815260200191508051906020019080838360005b838110156106aa57808201518184015260208101905061068f565b50505050905090810190601f1680156106d75780820380516001836020036101000a031916815260200191505b5086810383528a818151815260200191508051906020019080838360005b838110156107105780820151818401526020810190506106f5565b50505050905090810190601f16801561073d5780820380516001836020036101000a031916815260200191505b50868103825289818151815260200191508051906020019080838360005b8381101561077657808201518184015260208101905061075b565b50505050905090810190601f1680156107a35780820380516001836020036101000a031916815260200191505b509c5050505050505050505050505060405180910390f35b3480156107c757600080fd5b506107e6600480360381019080803590602001909291905050506117dc565b604051808273ffffffffffffffffffffffffffffffffffffffff1673ffffffffffffffffffffffffffffffffffffffff16815260200191505060405180910390f35b34801561083457600080fd5b5061083d61181a565b005b34801561084b57600080fd5b506109cc600480360381019080803590602001908201803590602001908080601f0160208091040260200160405190810160405280939291908181526020018383808284378201915050505050509192919290803590602001908201803590602001908080601f0160208091040260200160405190810160405280939291908181526020018383808284378201915050505050509192919290803590602001908201803590602001908080601f0160208091040260200160405190810160405280939291908181526020018383808284378201915050505050509192919290803590602001908201803590602001908080601f0160208091040260200160405190810160405280939291908181526020018383808284378201915050505050509192919290803590602001908201803590602001908080601f0160208091040260200160405190810160405280939291908181526020018383808284378201915050505050509192919290803561ffff16906020019092919050505061191c565b604051808215151515815260200191505060405180910390f35b3480156109f257600080fd5b50610a27600480360381019080803573ffffffffffffffffffffffffffffffffffffffff16906020019092919050505061208b565b6040518080602001806020018681526020018515151515815260200184151515158152602001838103835288818151815260200191508051906020019080838360005b83811015610a85578082015181840152602081019050610a6a565b50505050905090810190601f168015610ab25780820380516001836020036101000a031916815260200191505b50838103825287818151815260200191508051906020019080838360005b83811015610aeb578082015181840152602081019050610ad0565b50505050905090810190601f168015610b185780820380516001836020036101000a031916815260200191505b5097505050505050505060405180910390f35b348015610b3757600080fd5b50610b4061220b565b604051808273ffffffffffffffffffffffffffffffffffffffff1673ffffffffffffffffffffffffffffffffffffffff16815260200191505060405180910390f35b348015610b8e57600080fd5b50610bbb600480360381019080803590602001908201803590602001919091929391929390505050612230565b6040518080602001828103825283818151815260200191508051906020019060200280838360005b83811015610bfe578082015181840152602081019050610be3565b505050509050019250505060405180910390f35b348015610c1e57600080fd5b50610c276122ae565b6040518082815260200191505060405180910390f35b348015610c4957600080fd5b50610c7e600480360381019080803573ffffffffffffffffffffffffffffffffffffffff1690602001909291905050506122bb565b005b60608060608060606000866000600180549050118015610ca4575060018054905081105b1515610caf57600080fd5b600188815481101515610cbe57fe5b9060005260206000209060070201600001600189815481101515610cde57fe5b906000526020600020906007020160010160018a815481101515610cfe57fe5b906000526020600020906007020160020160018b815481101515610d1e57fe5b906000526020600020906007020160030160018c815481101515610d3e57fe5b906000526020600020906007020160040160018d815481101515610d5e57fe5b906000526020600020906007020160050160009054906101000a900461ffff16858054600181600116156101000203166002900480601f016020809104026020016040519081016040528092919081815260200182805460018160011615610100020316600290048015610e135780601f10610de857610100808354040283529160200191610e13565b820191906000526020600020905b815481529060010190602001808311610df657829003601f168201915b50505050509550848054600181600116156101000203166002900480601f016020809104026020016040519081016040528092919081815260200182805460018160011615610100020316600290048015610eaf5780601f10610e8457610100808354040283529160200191610eaf565b820191906000526020600020905b815481529060010190602001808311610e9257829003601f168201915b50505050509450838054600181600116156101000203166002900480601f016020809104026020016040519081016040528092919081815260200182805460018160011615610100020316600290048015610f4b5780601f10610f2057610100808354040283529160200191610f4b565b820191906000526020600020905b815481529060010190602001808311610f2e57829003601f168201915b50505050509350828054600181600116156101000203166002900480601f016020809104026020016040519081016040528092919081815260200182805460018160011615610100020316600290048015610fe75780601f10610fbc57610100808354040283529160200191610fe7565b820191906000526020600020905b815481529060010190602001808311610fca57829003601f168201915b50505050509250818054600181600116156101000203166002900480601f0160208091040260200160405190810160405280929190818152602001828054600181600116156101000203166002900480156110835780601f1061105857610100808354040283529160200191611083565b820191906000526020600020905b81548152906001019060200180831161106657829003601f168201915b505050505091509650965096509650965096505091939550919395565b60008160006001805490501180156110bc575060018054905081105b15156110c757600080fd5b6003600084815260200190815260200160002060009054906101000a900473ffffffffffffffffffffffffffffffffffffffff16915050919050565b6060600280548060200260200160405190810160405280929190818152602001828054801561118757602002820191906000526020600020905b8160009054906101000a900473ffffffffffffffffffffffffffffffffffffffff1673ffffffffffffffffffffffffffffffffffffffff168152602001906001019080831161113d575b5050505050905090565b611199612438565b6000809054906101000a900473ffffffffffffffffffffffffffffffffffffffff1673ffffffffffffffffffffffffffffffffffffffff163373ffffffffffffffffffffffffffffffffffffffff161415156111f457600080fd5b60a0604051908101604052808481526020018381526020016000815260200160011515815260200160011515815250905080600760008673ffffffffffffffffffffffffffffffffffffffff1673ffffffffffffffffffffffffffffffffffffffff168152602001908152602001600020600082015181600001908051906020019061128192919061246c565b50602082015181600101908051906020019061129e92919061246c565b506040820151816002015560608201518160030160006101000a81548160ff02191690831515021790555060808201518160030160016101000a81548160ff0219169083151502179055509050508373ffffffffffffffffffffffffffffffffffffffff167f4acd702547bb71d8efddd1d7f34b6bfa61e999232186937d44d2dbb8de5525ce8484604051808060200180602001838103835285818151815260200191508051906020019080838360005b8381101561136a57808201518184015260208101905061134f565b50505050905090810190601f1680156113975780820380516001836020036101000a031916815260200191505b50838103825284818151815260200191508051906020019080838360005b838110156113d05780820151818401526020810190506113b5565b50505050905090810190601f1680156113fd5780820380516001836020036101000a031916815260200191505b5094505050505060405180910390a250505050565b600081600060018054905011801561142e575060018054905081105b151561143957600080fd5b60018381548110151561144857fe5b906000526020600020906007020160060180549050915050919050565b60018181548110151561147457fe5b9060005260206000209060070201600091509050806000018054600181600116156101000203166002900480601f0160208091040260200160405190810160405280929190818152602001828054600181600116156101000203166002900480156115205780601f106114f557610100808354040283529160200191611520565b820191906000526020600020905b81548152906001019060200180831161150357829003601f168201915b505050505090806001018054600181600116156101000203166002900480601f0160208091040260200160405190810160405280929190818152602001828054600181600116156101000203166002900480156115be5780601f10611593576101008083540402835291602001916115be565b820191906000526020600020905b8154815290600101906020018083116115a157829003601f168201915b505050505090806002018054600181600116156101000203166002900480601f01602080910402602001604051908101604052809291908181526020018280546001816001161561010002031660029004801561165c5780601f106116315761010080835404028352916020019161165c565b820191906000526020600020905b81548152906001019060200180831161163f57829003601f168201915b505050505090806003018054600181600116156101000203166002900480601f0160208091040260200160405190810160405280929190818152602001828054600181600116156101000203166002900480156116fa5780601f106116cf576101008083540402835291602001916116fa565b820191906000526020600020905b8154815290600101906020018083116116dd57829003601f168201915b505050505090806004018054600181600116156101000203166002900480601f0160208091040260200160405190810160405280929190818152602001828054600181600116156101000203166002900480156117985780601f1061176d57610100808354040283529160200191611798565b820191906000526020600020905b81548152906001019060200180831161177b57829003601f168201915b5050505050908060050160009054906101000a900461ffff16908060050160029054906101000a900473ffffffffffffffffffffffffffffffffffffffff16905087565b6002818154811015156117eb57fe5b906000526020600020016000915054906101000a900473ffffffffffffffffffffffffffffffffffffffff1681565b6000809054906101000a900473ffffffffffffffffffffffffffffffffffffffff1673ffffffffffffffffffffffffffffffffffffffff163373ffffffffffffffffffffffffffffffffffffffff1614151561187557600080fd5b6000809054906101000a900473ffffffffffffffffffffffffffffffffffffffff1673ffffffffffffffffffffffffffffffffffffffff167ff8df31144d9c2f0f6b59d69b8b98abd5459d07f2742c4df920b25aae33c6482060405160405180910390a260008060006101000a81548173ffffffffffffffffffffffffffffffffffffffff021916908373ffffffffffffffffffffffffffffffffffffffff160217905550565b60006119266124ec565b6000600760003373ffffffffffffffffffffffffffffffffffffffff1673ffffffffffffffffffffffffffffffffffffffff16815260200190815260200160002060030160009054906101000a900460ff16151561198357600080fd5b610100604051908101604052808a81526020018981526020018881526020018781526020018681526020018561ffff1681526020013373ffffffffffffffffffffffffffffffffffffffff1681526020016000604051908082528060200260200182016040528015611a045781602001602082028038833980820191505090505b50815250915060018083908060018154018082558091505090600182039060005260206000209060070201600090919290919091506000820151816000019080519060200190611a5592919061246c565b506020820151816001019080519060200190611a7292919061246c565b506040820151816002019080519060200190611a8f92919061246c565b506060820151816003019080519060200190611aac92919061246c565b506080820151816004019080519060200190611ac992919061246c565b5060a08201518160050160006101000a81548161ffff021916908361ffff16021790555060c08201518160050160026101000a81548173ffffffffffffffffffffffffffffffffffffffff021916908373ffffffffffffffffffffffffffffffffffffffff16021790555060e0820151816006019080519060200190611b5092919061254c565b505050039050336003600083815260200190815260200160002060006101000a81548173ffffffffffffffffffffffffffffffffffffffff021916908373ffffffffffffffffffffffffffffffffffffffff160217905550611bfb6001600460003373ffffffffffffffffffffffffffffffffffffffff1673ffffffffffffffffffffffffffffffffffffffff1681526020019081526020016000205461232290919063ffffffff16565b600460003373ffffffffffffffffffffffffffffffffffffffff1673ffffffffffffffffffffffffffffffffffffffff168152602001908152602001600020819055506008886040518082805190602001908083835b602083101515611c765780518252602082019150602081019050602083039250611c51565b6001836020036101000a03801982511681845116808217855250505050505090500191505090815260200160405180910390208190806001815401808255809150509060018203906000526020600020016000909192909190915055506009876040518082805190602001908083835b602083101515611d0b5780518252602082019150602081019050602083039250611ce6565b6001836020036101000a0380198251168184511680821785525050505050509050019150509081526020016040518091039020819080600181540180825580915050906001820390600052602060002001600090919290919091505550611dbe6001600760003373ffffffffffffffffffffffffffffffffffffffff1673ffffffffffffffffffffffffffffffffffffffff1681526020019081526020016000206002015461232290919063ffffffff16565b600760003373ffffffffffffffffffffffffffffffffffffffff1673ffffffffffffffffffffffffffffffffffffffff168152602001908152602001600020600201819055503373ffffffffffffffffffffffffffffffffffffffff167fb2b3b3ae2eb6e0427d61d459873621f106e7310f904b84b55366c9e91c770e668a8a8a8a8a8a6040518080602001806020018060200180602001806020018761ffff1661ffff16815260200186810386528c818151815260200191508051906020019080838360005b83811015611ea0578082015181840152602081019050611e85565b50505050905090810190601f168015611ecd5780820380516001836020036101000a031916815260200191505b5086810385528b818151815260200191508051906020019080838360005b83811015611f06578082015181840152602081019050611eeb565b50505050905090810190601f168015611f335780820380516001836020036101000a031916815260200191505b5086810384528a818151815260200191508051906020019080838360005b83811015611f6c578082015181840152602081019050611f51565b50505050905090810190601f168015611f995780820380516001836020036101000a031916815260200191505b50868103835289818151815260200191508051906020019080838360005b83811015611fd2578082015181840152602081019050611fb7565b50505050905090810190601f168015611fff5780820380516001836020036101000a031916815260200191505b50868103825288818151815260200191508051906020019080838360005b8381101561203857808201518184015260208101905061201d565b50505050905090810190601f1680156120655780820380516001836020036101000a031916815260200191505b509b50505050505050505050505060405180910390a26001925050509695505050505050565b6007602052806000526040600020600091509050806000018054600181600116156101000203166002900480601f0160208091040260200160405190810160405280929190818152602001828054600181600116156101000203166002900480156121375780601f1061210c57610100808354040283529160200191612137565b820191906000526020600020905b81548152906001019060200180831161211a57829003601f168201915b505050505090806001018054600181600116156101000203166002900480601f0160208091040260200160405190810160405280929190818152602001828054600181600116156101000203166002900480156121d55780601f106121aa576101008083540402835291602001916121d5565b820191906000526020600020905b8154815290600101906020018083116121b857829003601f168201915b5050505050908060020154908060030160009054906101000a900460ff16908060030160019054906101000a900460ff16905085565b6000809054906101000a900473ffffffffffffffffffffffffffffffffffffffff1681565b6060600883836040518083838082843782019150509250505090815260200160405180910390208054806020026020016040519081016040528092919081815260200182805480156122a157602002820191906000526020600020905b81548152602001906001019080831161228d575b5050505050905092915050565b6000600180549050905090565b6000809054906101000a900473ffffffffffffffffffffffffffffffffffffffff1673ffffffffffffffffffffffffffffffffffffffff163373ffffffffffffffffffffffffffffffffffffffff1614151561231657600080fd5b61231f8161233e565b50565b6000818301905082811015151561233557fe5b80905092915050565b600073ffffffffffffffffffffffffffffffffffffffff168173ffffffffffffffffffffffffffffffffffffffff161415151561237a57600080fd5b8073ffffffffffffffffffffffffffffffffffffffff166000809054906101000a900473ffffffffffffffffffffffffffffffffffffffff1673ffffffffffffffffffffffffffffffffffffffff167f8be0079c531659141344cd1fd0a4f28419497f9722a3daafe3b4186f6b6457e060405160405180910390a3806000806101000a81548173ffffffffffffffffffffffffffffffffffffffff021916908373ffffffffffffffffffffffffffffffffffffffff16021790555050565b60a0604051908101604052806060815260200160608152602001600081526020016000151581526020016000151581525090565b828054600181600116156101000203166002900490600052602060002090601f016020900481019282601f106124ad57805160ff19168380011785556124db565b828001600101855582156124db579182015b828111156124da5782518255916020019190600101906124bf565b5b5090506124e891906125d6565b5090565b610100604051908101604052806060815260200160608152602001606081526020016060815260200160608152602001600061ffff168152602001600073ffffffffffffffffffffffffffffffffffffffff168152602001606081525090565b8280548282559060005260206000209081019282156125c5579160200282015b828111156125c45782518260006101000a81548173ffffffffffffffffffffffffffffffffffffffff021916908373ffffffffffffffffffffffffffffffffffffffff1602179055509160200191906001019061256c565b5b5090506125d291906125fb565b5090565b6125f891905b808211156125f45760008160009055506001016125dc565b5090565b90565b61263b91905b8082111561263757600081816101000a81549073ffffffffffffffffffffffffffffffffffffffff021916905550600101612601565b5090565b905600a165627a7a72305820b57c31f3722f4c25a463592f9e23fea1d540ab99c512c112b21b16d0fbd37d1f0029",
  "source": "pragma solidity ^0.4.24;\n\nimport '../node_modules/zeppelin-solidity/contracts/ownership/Ownable.sol';\nimport '../node_modules/zeppelin-solidity/contracts/math/SafeMath.sol';\n\ncontract ArtworkBase is Ownable {\n\n  using SafeMath for uint;\n\n  event AddGallery(address indexed _galleryAddress, string _name, string _completeAddress);\n  event AddArtwork(address indexed _galleryAddress, string _title, string _category, string _artist, string _photoIpfsHash, string _description, uint16 _year);\n  event CreateAuction(address _creator, uint _tokenId, uint _durationInSec, uint _startingBid, uint _highestAllowedBidAmount, uint _bidIncrement, address _auctionAddress);\n\n  struct Artwork {\n    string title;\n    string category;\n    string artist;\n    string photoIpfsHash;\n    string description;\n    uint16 year;\n    address currentOwner;\n    address[] ownerHistory;\n    // uint32 usdPrice;\n  }\n\n  struct Gallery {\n    string name;\n    string completeAddress;\n    uint artworkCount;\n    bool canAddArtwork;\n    bool canCreateAuction;\n  }\n\n  Artwork[] public artworks;\n  address[] public auctions;\n\n  mapping (uint => address) internal artworkIndexToOwner;\n  mapping (address => uint) internal ownershipTokenCount;\n  mapping (uint => address) internal artworkApprovals;\n  mapping (address => mapping (address => bool)) internal operatorApprovals;\n\n  mapping (address => Gallery) public galleries;\n  mapping (string => uint[]) categoryToArtIndexes;\n  mapping (string => uint[]) artistToArtIndexes;\n\n  // uint private artAvailableIndex;\n\n  constructor () public {\n    owner = msg.sender;\n  }\n\n  modifier canAddArtwork() {\n    require(galleries[msg.sender].canAddArtwork);\n    _;\n  }\n\n  modifier canCreateAuction() {\n    require(galleries[msg.sender].canCreateAuction);\n    _;\n  }\n\n  modifier isOwnerOfToken(uint _tokenId) {\n    require(msg.sender == artworkIndexToOwner[_tokenId]);\n    _;\n  }\n\n  modifier isArtworkExists(uint _tokenId) {\n    require(artworks.length > 0 && _tokenId < artworks.length);\n    _;\n  }\n\n  function addGallery(address _galleryAddress, string _name, string _completeAddress) public onlyOwner {\n    Gallery memory gallery = Gallery({\n      name: _name,\n      completeAddress: _completeAddress,\n      artworkCount: 0,\n      canAddArtwork: true,\n      canCreateAuction: true\n    });\n    galleries[_galleryAddress] = gallery;\n    emit AddGallery(_galleryAddress, _name, _completeAddress);\n  }\n\n  function addArtwork(string _title, string _category, string _artist, string _photoIpfsHash, string _description, uint16 _year) public canAddArtwork returns (bool) {\n    Artwork memory artwork = Artwork({\n      title: _title,\n      category: _category,\n      artist: _artist,\n      photoIpfsHash: _photoIpfsHash,\n      description: _description,\n      year: _year,\n      currentOwner: msg.sender,\n      ownerHistory: new address[](0)\n      });\n    uint index = artworks.push(artwork) - 1;\n    artworkIndexToOwner[index] = msg.sender;\n    ownershipTokenCount[msg.sender] = ownershipTokenCount[msg.sender].add(1);\n    categoryToArtIndexes[_category].push(index);\n    artistToArtIndexes[_artist].push(index);\n    galleries[msg.sender].artworkCount = galleries[msg.sender].artworkCount.add(1);\n    emit AddArtwork(msg.sender, _title, _category, _artist, _photoIpfsHash, _description, _year);\n    return true;\n  }\n\n  function getArtwork(uint _tokenId) public view isArtworkExists(_tokenId) returns (string, string, string, string, string, uint16) {\n    return (\n      artworks[_tokenId].title,\n      artworks[_tokenId].category,\n      artworks[_tokenId].artist,\n      artworks[_tokenId].photoIpfsHash,\n      artworks[_tokenId].description,\n      artworks[_tokenId].year\n    );\n  }\n\n  function getArtworkOwner(uint _tokenId) public view isArtworkExists(_tokenId) returns (address) {\n    return artworkIndexToOwner[_tokenId];\n  }\n\n  function getArtworkOwnerHistoryCount(uint _tokenId) public view isArtworkExists(_tokenId) returns (uint) {\n    return artworks[_tokenId].ownerHistory.length;\n  }\n\n  function getTotalSupply() public view returns (uint) {\n    return artworks.length;\n  }\n\n  function getAllAuctionAddresses() external view returns (address[]) {\n    return auctions;\n  }\n\n  function getArtworksByCategory(string _category) external view returns (uint[]) {\n    return categoryToArtIndexes[_category];\n  }\n}",
  "sourcePath": "C:\\Users\\User\\Trainings\\SoftUni_BlockChain\\DApp\\DArt\\contracts\\ArtworkBase.sol",
  "compiler": {
    "name": "solc",
    "version": "0.4.24+commit.e67f0147.Emscripten.clang"
  },
  "schemaVersion": "2.0.1",
  "updatedAt": "2018-09-29T17:26:39.854Z"
}