{
  "contractName": "Auction",
  "abi": [
    {
      "constant": true,
      "inputs": [],
      "name": "startDate",
      "outputs": [
        {
          "name": "",
          "type": "uint256"
        }
      ],
      "payable": false,
      "stateMutability": "view",
      "type": "function"
    },
    {
      "constant": true,
      "inputs": [],
      "name": "hasOwnerWithdrawn",
      "outputs": [
        {
          "name": "",
          "type": "bool"
        }
      ],
      "payable": false,
      "stateMutability": "view",
      "type": "function"
    },
    {
      "constant": true,
      "inputs": [],
      "name": "tokenId",
      "outputs": [
        {
          "name": "",
          "type": "uint256"
        }
      ],
      "payable": false,
      "stateMutability": "view",
      "type": "function"
    },
    {
      "constant": true,
      "inputs": [],
      "name": "gallery",
      "outputs": [
        {
          "name": "",
          "type": "address"
        }
      ],
      "payable": false,
      "stateMutability": "view",
      "type": "function"
    },
    {
      "constant": true,
      "inputs": [],
      "name": "nfc",
      "outputs": [
        {
          "name": "",
          "type": "address"
        }
      ],
      "payable": false,
      "stateMutability": "view",
      "type": "function"
    },
    {
      "constant": false,
      "inputs": [],
      "name": "renounceOwnership",
      "outputs": [],
      "payable": false,
      "stateMutability": "nonpayable",
      "type": "function"
    },
    {
      "constant": true,
      "inputs": [],
      "name": "owner",
      "outputs": [
        {
          "name": "",
          "type": "address"
        }
      ],
      "payable": false,
      "stateMutability": "view",
      "type": "function"
    },
    {
      "constant": true,
      "inputs": [],
      "name": "highestBidder",
      "outputs": [
        {
          "name": "",
          "type": "address"
        }
      ],
      "payable": false,
      "stateMutability": "view",
      "type": "function"
    },
    {
      "constant": true,
      "inputs": [],
      "name": "bidIncrement",
      "outputs": [
        {
          "name": "",
          "type": "uint256"
        }
      ],
      "payable": false,
      "stateMutability": "view",
      "type": "function"
    },
    {
      "constant": true,
      "inputs": [],
      "name": "startingBid",
      "outputs": [
        {
          "name": "",
          "type": "uint256"
        }
      ],
      "payable": false,
      "stateMutability": "view",
      "type": "function"
    },
    {
      "constant": true,
      "inputs": [],
      "name": "endDate",
      "outputs": [
        {
          "name": "",
          "type": "uint256"
        }
      ],
      "payable": false,
      "stateMutability": "view",
      "type": "function"
    },
    {
      "constant": false,
      "inputs": [
        {
          "name": "_newOwner",
          "type": "address"
        }
      ],
      "name": "transferOwnership",
      "outputs": [],
      "payable": false,
      "stateMutability": "nonpayable",
      "type": "function"
    },
    {
      "constant": true,
      "inputs": [],
      "name": "highestAllowedBidAmount",
      "outputs": [
        {
          "name": "",
          "type": "uint256"
        }
      ],
      "payable": false,
      "stateMutability": "view",
      "type": "function"
    },
    {
      "inputs": [
        {
          "name": "_tokenId",
          "type": "uint256"
        },
        {
          "name": "_gallery",
          "type": "address"
        },
        {
          "name": "_durationInSec",
          "type": "uint256"
        },
        {
          "name": "_startingBid",
          "type": "uint256"
        },
        {
          "name": "_highestAllowedBidAmount",
          "type": "uint256"
        },
        {
          "name": "_bidIncrement",
          "type": "uint256"
        },
        {
          "name": "_nfc",
          "type": "address"
        }
      ],
      "payable": false,
      "stateMutability": "nonpayable",
      "type": "constructor"
    },
    {
      "anonymous": false,
      "inputs": [
        {
          "indexed": false,
          "name": "_from",
          "type": "address"
        },
        {
          "indexed": false,
          "name": "_to",
          "type": "address"
        },
        {
          "indexed": false,
          "name": "_tokenId",
          "type": "uint256"
        }
      ],
      "name": "TransferTokenOwnership",
      "type": "event"
    },
    {
      "anonymous": false,
      "inputs": [
        {
          "indexed": true,
          "name": "previousOwner",
          "type": "address"
        }
      ],
      "name": "OwnershipRenounced",
      "type": "event"
    },
    {
      "anonymous": false,
      "inputs": [
        {
          "indexed": true,
          "name": "previousOwner",
          "type": "address"
        },
        {
          "indexed": true,
          "name": "newOwner",
          "type": "address"
        }
      ],
      "name": "OwnershipTransferred",
      "type": "event"
    },
    {
      "constant": true,
      "inputs": [],
      "name": "getTimeRemaining",
      "outputs": [
        {
          "name": "",
          "type": "uint256"
        }
      ],
      "payable": false,
      "stateMutability": "view",
      "type": "function"
    },
    {
      "constant": true,
      "inputs": [],
      "name": "getHighestBid",
      "outputs": [
        {
          "name": "",
          "type": "uint256"
        }
      ],
      "payable": false,
      "stateMutability": "view",
      "type": "function"
    },
    {
      "constant": false,
      "inputs": [],
      "name": "placeBid",
      "outputs": [],
      "payable": true,
      "stateMutability": "payable",
      "type": "function"
    },
    {
      "constant": true,
      "inputs": [],
      "name": "getWinner",
      "outputs": [
        {
          "name": "",
          "type": "address"
        },
        {
          "name": "",
          "type": "uint256"
        }
      ],
      "payable": false,
      "stateMutability": "view",
      "type": "function"
    },
    {
      "constant": true,
      "inputs": [
        {
          "name": "_bidder",
          "type": "address"
        }
      ],
      "name": "getTotalBidByAddress",
      "outputs": [
        {
          "name": "",
          "type": "uint256"
        }
      ],
      "payable": false,
      "stateMutability": "view",
      "type": "function"
    },
    {
      "constant": false,
      "inputs": [],
      "name": "withdraw",
      "outputs": [
        {
          "name": "",
          "type": "bool"
        }
      ],
      "payable": true,
      "stateMutability": "payable",
      "type": "function"
    },
    {
      "constant": false,
      "inputs": [],
      "name": "cancel",
      "outputs": [],
      "payable": false,
      "stateMutability": "nonpayable",
      "type": "function"
    },
    {
      "constant": false,
      "inputs": [],
      "name": "transferToken",
      "outputs": [],
      "payable": false,
      "stateMutability": "nonpayable",
      "type": "function"
    }
  ],
  "bytecode": "0x608060405234801561001057600080fd5b5060405160e08061165b83398101806040528101908080519060200190929190805190602001909291908051906020019092919080519060200190929190805190602001909291908051906020019092919080519060200190929190505050336000806101000a81548173ffffffffffffffffffffffffffffffffffffffff021916908373ffffffffffffffffffffffffffffffffffffffff16021790555080600160006101000a81548173ffffffffffffffffffffffffffffffffffffffff021916908373ffffffffffffffffffffffffffffffffffffffff160217905550426003819055506101198560035461018864010000000002611366179091906401000000009004565b6004819055508660078190555085600260006101000a81548173ffffffffffffffffffffffffffffffffffffffff021916908373ffffffffffffffffffffffffffffffffffffffff160217905550836005819055508260088190555081600681905550505050505050506101a4565b6000818301905082811015151561019b57fe5b80905092915050565b6114a8806101b36000396000f30060806040526004361061011d576000357c0100000000000000000000000000000000000000000000000000000000900463ffffffff1680630b97bc8614610122578063166034a31461014d57806317d70f7c1461017c57806333cd6f5d146101a75780633ccfd60b146101fe5780633f8c8244146102205780634979440a14610277578063715018a6146102a2578063799a5359146102b95780638da5cb5b146102d05780638e7ea5b21461032757806391f9015714610385578063b3cc167a146103dc578063b9fdd56914610407578063c24a0f8b14610432578063ce5e0ddb1461045d578063dac6270d146104b4578063ea8a1af0146104df578063ecfc7ecc146104f6578063f2fde38b14610500578063fa24739614610543575b600080fd5b34801561012e57600080fd5b5061013761056e565b6040518082815260200191505060405180910390f35b34801561015957600080fd5b50610162610574565b604051808215151515815260200191505060405180910390f35b34801561018857600080fd5b50610191610587565b6040518082815260200191505060405180910390f35b3480156101b357600080fd5b506101bc61058d565b604051808273ffffffffffffffffffffffffffffffffffffffff1673ffffffffffffffffffffffffffffffffffffffff16815260200191505060405180910390f35b6102066105b3565b604051808215151515815260200191505060405180910390f35b34801561022c57600080fd5b50610235610969565b604051808273ffffffffffffffffffffffffffffffffffffffff1673ffffffffffffffffffffffffffffffffffffffff16815260200191505060405180910390f35b34801561028357600080fd5b5061028c61098f565b6040518082815260200191505060405180910390f35b3480156102ae57600080fd5b506102b76109f8565b005b3480156102c557600080fd5b506102ce610afa565b005b3480156102dc57600080fd5b506102e5610cf4565b604051808273ffffffffffffffffffffffffffffffffffffffff1673ffffffffffffffffffffffffffffffffffffffff16815260200191505060405180910390f35b34801561033357600080fd5b5061033c610d19565b604051808373ffffffffffffffffffffffffffffffffffffffff1673ffffffffffffffffffffffffffffffffffffffff1681526020018281526020019250505060405180910390f35b34801561039157600080fd5b5061039a610e23565b604051808273ffffffffffffffffffffffffffffffffffffffff1673ffffffffffffffffffffffffffffffffffffffff16815260200191505060405180910390f35b3480156103e857600080fd5b506103f1610e49565b6040518082815260200191505060405180910390f35b34801561041357600080fd5b5061041c610e4f565b6040518082815260200191505060405180910390f35b34801561043e57600080fd5b50610447610e55565b6040518082815260200191505060405180910390f35b34801561046957600080fd5b5061049e600480360381019080803573ffffffffffffffffffffffffffffffffffffffff169060200190929190505050610e5b565b6040518082815260200191505060405180910390f35b3480156104c057600080fd5b506104c9610ea4565b6040518082815260200191505060405180910390f35b3480156104eb57600080fd5b506104f4610ec8565b005b6104fe611070565b005b34801561050c57600080fd5b50610541600480360381019080803573ffffffffffffffffffffffffffffffffffffffff1690602001909291905050506112f9565b005b34801561054f57600080fd5b50610558611360565b6040518082815260200191505060405180910390f35b60035481565b600960009054906101000a900460ff1681565b60075481565b600260009054906101000a900473ffffffffffffffffffffffffffffffffffffffff1681565b6000600454421015151561062f576040517f08c379a00000000000000000000000000000000000000000000000000000000081526004018080602001828103825260058152602001807f656e64656400000000000000000000000000000000000000000000000000000081525060200191505060405180910390fd5b6000600960019054906101000a900473ffffffffffffffffffffffffffffffffffffffff1673ffffffffffffffffffffffffffffffffffffffff161415151561067757600080fd5b3373ffffffffffffffffffffffffffffffffffffffff16600960019054906101000a900473ffffffffffffffffffffffffffffffffffffffff1673ffffffffffffffffffffffffffffffffffffffff16141515156106d457600080fd5b6000809054906101000a900473ffffffffffffffffffffffffffffffffffffffff1673ffffffffffffffffffffffffffffffffffffffff163373ffffffffffffffffffffffffffffffffffffffff1614801561073d5750600960009054906101000a900460ff16155b15610896576000809054906101000a900473ffffffffffffffffffffffffffffffffffffffff1673ffffffffffffffffffffffffffffffffffffffff166108fc600a6000600960019054906101000a900473ffffffffffffffffffffffffffffffffffffffff1673ffffffffffffffffffffffffffffffffffffffff1673ffffffffffffffffffffffffffffffffffffffff168152602001908152602001600020549081150290604051600060405180830381858888f1935050505015801561080a573d6000803e3d6000fd5b506000600a6000600960019054906101000a900473ffffffffffffffffffffffffffffffffffffffff1673ffffffffffffffffffffffffffffffffffffffff1673ffffffffffffffffffffffffffffffffffffffff168152602001908152602001600020819055506001600960006101000a81548160ff02191690831515021790555060019050610966565b3373ffffffffffffffffffffffffffffffffffffffff166108fc600a60003373ffffffffffffffffffffffffffffffffffffffff1673ffffffffffffffffffffffffffffffffffffffff168152602001908152602001600020549081150290604051600060405180830381858888f1935050505015801561091b573d6000803e3d6000fd5b506000600a60003373ffffffffffffffffffffffffffffffffffffffff1673ffffffffffffffffffffffffffffffffffffffff16815260200190815260200160002081905550600190505b90565b600160009054906101000a900473ffffffffffffffffffffffffffffffffffffffff1681565b6000600a6000600960019054906101000a900473ffffffffffffffffffffffffffffffffffffffff1673ffffffffffffffffffffffffffffffffffffffff1673ffffffffffffffffffffffffffffffffffffffff16815260200190815260200160002054905090565b6000809054906101000a900473ffffffffffffffffffffffffffffffffffffffff1673ffffffffffffffffffffffffffffffffffffffff163373ffffffffffffffffffffffffffffffffffffffff16141515610a5357600080fd5b6000809054906101000a900473ffffffffffffffffffffffffffffffffffffffff1673ffffffffffffffffffffffffffffffffffffffff167ff8df31144d9c2f0f6b59d69b8b98abd5459d07f2742c4df920b25aae33c6482060405160405180910390a260008060006101000a81548173ffffffffffffffffffffffffffffffffffffffff021916908373ffffffffffffffffffffffffffffffffffffffff160217905550565b7f45460b687880bc387518917b7b2f038276df3129fdea2e03690b3f59239b8ec230600960019054906101000a900473ffffffffffffffffffffffffffffffffffffffff16600754604051808473ffffffffffffffffffffffffffffffffffffffff1673ffffffffffffffffffffffffffffffffffffffff1681526020018373ffffffffffffffffffffffffffffffffffffffff1673ffffffffffffffffffffffffffffffffffffffff168152602001828152602001935050505060405180910390a1600160009054906101000a900473ffffffffffffffffffffffffffffffffffffffff1673ffffffffffffffffffffffffffffffffffffffff166323b872dd30600960019054906101000a900473ffffffffffffffffffffffffffffffffffffffff166007546040518463ffffffff167c0100000000000000000000000000000000000000000000000000000000028152600401808473ffffffffffffffffffffffffffffffffffffffff1673ffffffffffffffffffffffffffffffffffffffff1681526020018373ffffffffffffffffffffffffffffffffffffffff1673ffffffffffffffffffffffffffffffffffffffff1681526020018281526020019350505050600060405180830381600087803b158015610cda57600080fd5b505af1158015610cee573d6000803e3d6000fd5b50505050565b6000809054906101000a900473ffffffffffffffffffffffffffffffffffffffff1681565b6000806004544210151515610d96576040517f08c379a00000000000000000000000000000000000000000000000000000000081526004018080602001828103825260058152602001807f656e64656400000000000000000000000000000000000000000000000000000081525060200191505060405180910390fd5b600960019054906101000a900473ffffffffffffffffffffffffffffffffffffffff16600a6000600960019054906101000a900473ffffffffffffffffffffffffffffffffffffffff1673ffffffffffffffffffffffffffffffffffffffff1673ffffffffffffffffffffffffffffffffffffffff16815260200190815260200160002054915091509091565b600960019054906101000a900473ffffffffffffffffffffffffffffffffffffffff1681565b60065481565b60055481565b60045481565b6000600a60008373ffffffffffffffffffffffffffffffffffffffff1673ffffffffffffffffffffffffffffffffffffffff168152602001908152602001600020549050919050565b6000600454421115610eb95760009050610ec5565b42600354600454030190505b90565b600260009054906101000a900473ffffffffffffffffffffffffffffffffffffffff1673ffffffffffffffffffffffffffffffffffffffff163373ffffffffffffffffffffffffffffffffffffffff16141515610f2457600080fd5b6000610f2e610ea4565b111515610f3a57600080fd5b600160009054906101000a900473ffffffffffffffffffffffffffffffffffffffff1673ffffffffffffffffffffffffffffffffffffffff166323b872dd306000809054906101000a900473ffffffffffffffffffffffffffffffffffffffff166007546040518463ffffffff167c0100000000000000000000000000000000000000000000000000000000028152600401808473ffffffffffffffffffffffffffffffffffffffff1673ffffffffffffffffffffffffffffffffffffffff1681526020018373ffffffffffffffffffffffffffffffffffffffff1673ffffffffffffffffffffffffffffffffffffffff1681526020018281526020019350505050600060405180830381600087803b15801561105657600080fd5b505af115801561106a573d6000803e3d6000fd5b50505050565b600061107a610ea4565b11151561108657600080fd5b60006110da34600a60003373ffffffffffffffffffffffffffffffffffffffff1673ffffffffffffffffffffffffffffffffffffffff1681526020019081526020016000205461136690919063ffffffff16565b90506000600960019054906101000a900473ffffffffffffffffffffffffffffffffffffffff1673ffffffffffffffffffffffffffffffffffffffff16141561112f57600554811015151561112e57600080fd5b5b6111a5600654600a6000600960019054906101000a900473ffffffffffffffffffffffffffffffffffffffff1673ffffffffffffffffffffffffffffffffffffffff1673ffffffffffffffffffffffffffffffffffffffff1681526020019081526020016000205461136690919063ffffffff16565b81101515156111b357600080fd5b60085481111515156111c457600080fd5b6000809054906101000a900473ffffffffffffffffffffffffffffffffffffffff1673ffffffffffffffffffffffffffffffffffffffff163373ffffffffffffffffffffffffffffffffffffffff161415151561122057600080fd5b33600960016101000a81548173ffffffffffffffffffffffffffffffffffffffff021916908373ffffffffffffffffffffffffffffffffffffffff1602179055506112b334600a60003373ffffffffffffffffffffffffffffffffffffffff1673ffffffffffffffffffffffffffffffffffffffff1681526020019081526020016000205461136690919063ffffffff16565b600a60003373ffffffffffffffffffffffffffffffffffffffff1673ffffffffffffffffffffffffffffffffffffffff1681526020019081526020016000208190555050565b6000809054906101000a900473ffffffffffffffffffffffffffffffffffffffff1673ffffffffffffffffffffffffffffffffffffffff163373ffffffffffffffffffffffffffffffffffffffff1614151561135457600080fd5b61135d81611382565b50565b60085481565b6000818301905082811015151561137957fe5b80905092915050565b600073ffffffffffffffffffffffffffffffffffffffff168173ffffffffffffffffffffffffffffffffffffffff16141515156113be57600080fd5b8073ffffffffffffffffffffffffffffffffffffffff166000809054906101000a900473ffffffffffffffffffffffffffffffffffffffff1673ffffffffffffffffffffffffffffffffffffffff167f8be0079c531659141344cd1fd0a4f28419497f9722a3daafe3b4186f6b6457e060405160405180910390a3806000806101000a81548173ffffffffffffffffffffffffffffffffffffffff021916908373ffffffffffffffffffffffffffffffffffffffff160217905550505600a165627a7a7230582058b3cb97a6de2295a0ab358f0fc6a7d4b8dbdcef803f6e19fd87160477f11c690029",
  "source": "pragma solidity ^0.4.24;\n\nimport './ArtworkBase.sol';\nimport '../node_modules/zeppelin-solidity/contracts/math/SafeMath.sol';\nimport '../node_modules/zeppelin-solidity/contracts/ownership/Ownable.sol';\nimport '../node_modules/zeppelin-solidity/contracts/token/ERC721/ERC721Basic.sol';\n\ncontract Auction is Ownable {\n  using SafeMath for uint;\n\n  event TransferTokenOwnership(address _from, address _to, uint _tokenId);\n\n  ERC721Basic public nfc;\n  address public gallery;\n  uint public startDate;\n  uint public endDate;\n  uint public startingBid;\n  uint public bidIncrement;\n  uint public tokenId;\n  uint public highestAllowedBidAmount;\n  bool public hasOwnerWithdrawn;\n  address public highestBidder;\n  mapping (address => uint) bidderToAmount;\n\n  modifier onlyNotEnded() {\n    require(getTimeRemaining() > 0);\n    _;\n  }\n\n  modifier onlyEnded() {\n    require(now >= endDate, \"ended\");\n    _;\n  }\n\n  modifier onlyNotOwner() {\n    require(msg.sender != owner);\n    _;\n  }\n\n  modifier onlyHasBidder() {\n    require(highestBidder != 0x0);\n    _;\n  }\n\n  modifier onlyGallery() {\n    require(msg.sender == gallery);\n    _;\n  }\n\n  modifier onlyValidBid() {\n    uint currentBid = bidderToAmount[msg.sender].add(msg.value);\n    if (highestBidder == 0x0) require(currentBid >= startingBid);\n    require(currentBid >= bidderToAmount[highestBidder].add(bidIncrement));\n    require(currentBid <= highestAllowedBidAmount);\n    _;\n  }\n\n  constructor (uint _tokenId, address _gallery, uint _durationInSec, uint _startingBid, uint _highestAllowedBidAmount, uint _bidIncrement, address _nfc) public {\n    nfc = ERC721Basic(_nfc);\n    startDate = now;\n    endDate = startDate.add(_durationInSec);\n    tokenId = _tokenId;\n    gallery = _gallery;\n    startingBid = _startingBid;\n    highestAllowedBidAmount = _highestAllowedBidAmount;\n    bidIncrement = _bidIncrement;\n  }\n\n  function getTimeRemaining() public view returns (uint) {\n    if (now > endDate) return 0;\n    return endDate - startDate + now;\n  }\n\n  function getHighestBid() public view returns (uint) {\n    return bidderToAmount[highestBidder];\n  }\n\n  function placeBid() public payable onlyNotEnded onlyValidBid onlyNotOwner {\n    highestBidder = msg.sender;\n    bidderToAmount[msg.sender] = bidderToAmount[msg.sender].add(msg.value);\n  }\n\n  function getWinner() external view onlyEnded returns (address, uint) {\n    return (\n      highestBidder,\n      bidderToAmount[highestBidder]\n    );\n  }\n\n  function getTotalBidByAddress(address _bidder) external view returns (uint) {\n    return bidderToAmount[_bidder];\n  }\n\n  function withdraw() external payable onlyEnded onlyHasBidder returns (bool) {\n    require(highestBidder != msg.sender);\n    if (msg.sender == owner && !hasOwnerWithdrawn) {\n      owner.transfer(bidderToAmount[highestBidder]);\n      bidderToAmount[highestBidder] = 0;\n      hasOwnerWithdrawn = true;\n      return true;\n    } else {\n      msg.sender.transfer(bidderToAmount[msg.sender]);\n      bidderToAmount[msg.sender] = 0;\n      return true;\n    }\n    return false;\n  }\n\n  function cancel() public onlyGallery onlyNotEnded {\n    nfc.transferFrom(this, owner, tokenId);\n  }\n\n  function transferToken() public  {\n    emit TransferTokenOwnership(this, highestBidder, tokenId);\n    nfc.transferFrom(address(this), highestBidder, tokenId);\n  }\n}",
  "sourcePath": "C:\\Users\\User\\Trainings\\SoftUni_BlockChain\\DApp\\DArt\\contracts\\Auction.sol",
  "compiler": {
    "name": "solc",
    "version": "0.4.24+commit.e67f0147.Emscripten.clang"
  },
  "schemaVersion": "2.0.1",
  "updatedAt": "2018-09-26T17:20:48.670Z"
}