{
  "contractName": "ArtworkOwnership",
  "abi": [
    {
      "constant": true,
      "inputs": [
        {
          "name": "_interfaceId",
          "type": "bytes4"
        }
      ],
      "name": "supportsInterface",
      "outputs": [
        {
          "name": "",
          "type": "bool"
        }
      ],
      "payable": false,
      "stateMutability": "view",
      "type": "function"
    },
    {
      "constant": true,
      "inputs": [
        {
          "name": "_tokenId",
          "type": "uint256"
        }
      ],
      "name": "getArtwork",
      "outputs": [
        {
          "name": "",
          "type": "string"
        },
        {
          "name": "",
          "type": "string"
        },
        {
          "name": "",
          "type": "string"
        },
        {
          "name": "",
          "type": "string"
        },
        {
          "name": "",
          "type": "string"
        },
        {
          "name": "",
          "type": "uint16"
        }
      ],
      "payable": false,
      "stateMutability": "view",
      "type": "function"
    },
    {
      "constant": true,
      "inputs": [],
      "name": "InterfaceId_ERC165",
      "outputs": [
        {
          "name": "",
          "type": "bytes4"
        }
      ],
      "payable": false,
      "stateMutability": "view",
      "type": "function"
    },
    {
      "constant": true,
      "inputs": [
        {
          "name": "_tokenId",
          "type": "uint256"
        }
      ],
      "name": "getArtworkOwner",
      "outputs": [
        {
          "name": "",
          "type": "address"
        }
      ],
      "payable": false,
      "stateMutability": "view",
      "type": "function"
    },
    {
      "constant": true,
      "inputs": [],
      "name": "getAllAuctionAddresses",
      "outputs": [
        {
          "name": "",
          "type": "address[]"
        }
      ],
      "payable": false,
      "stateMutability": "view",
      "type": "function"
    },
    {
      "constant": false,
      "inputs": [
        {
          "name": "_galleryAddress",
          "type": "address"
        },
        {
          "name": "_name",
          "type": "string"
        },
        {
          "name": "_completeAddress",
          "type": "string"
        }
      ],
      "name": "addGallery",
      "outputs": [],
      "payable": false,
      "stateMutability": "nonpayable",
      "type": "function"
    },
    {
      "constant": true,
      "inputs": [
        {
          "name": "galleryAddress",
          "type": "address"
        }
      ],
      "name": "getGalleryByAddress",
      "outputs": [
        {
          "name": "",
          "type": "string"
        },
        {
          "name": "",
          "type": "string"
        },
        {
          "name": "",
          "type": "uint256"
        }
      ],
      "payable": false,
      "stateMutability": "view",
      "type": "function"
    },
    {
      "constant": true,
      "inputs": [
        {
          "name": "_tokenId",
          "type": "uint256"
        }
      ],
      "name": "getArtworkOwnerHistoryCount",
      "outputs": [
        {
          "name": "",
          "type": "uint256"
        }
      ],
      "payable": false,
      "stateMutability": "view",
      "type": "function"
    },
    {
      "constant": true,
      "inputs": [
        {
          "name": "",
          "type": "uint256"
        }
      ],
      "name": "artworks",
      "outputs": [
        {
          "name": "title",
          "type": "string"
        },
        {
          "name": "category",
          "type": "string"
        },
        {
          "name": "artist",
          "type": "string"
        },
        {
          "name": "photoIpfsHash",
          "type": "string"
        },
        {
          "name": "description",
          "type": "string"
        },
        {
          "name": "year",
          "type": "uint16"
        },
        {
          "name": "currentOwner",
          "type": "address"
        }
      ],
      "payable": false,
      "stateMutability": "view",
      "type": "function"
    },
    {
      "constant": true,
      "inputs": [
        {
          "name": "",
          "type": "uint256"
        }
      ],
      "name": "auctions",
      "outputs": [
        {
          "name": "",
          "type": "address"
        }
      ],
      "payable": false,
      "stateMutability": "view",
      "type": "function"
    },
    {
      "constant": false,
      "inputs": [],
      "name": "renounceOwnership",
      "outputs": [],
      "payable": false,
      "stateMutability": "nonpayable",
      "type": "function"
    },
    {
      "constant": false,
      "inputs": [
        {
          "name": "_title",
          "type": "string"
        },
        {
          "name": "_category",
          "type": "string"
        },
        {
          "name": "_artist",
          "type": "string"
        },
        {
          "name": "_photoIpfsHash",
          "type": "string"
        },
        {
          "name": "_description",
          "type": "string"
        },
        {
          "name": "_year",
          "type": "uint16"
        }
      ],
      "name": "addArtwork",
      "outputs": [
        {
          "name": "",
          "type": "bool"
        }
      ],
      "payable": false,
      "stateMutability": "nonpayable",
      "type": "function"
    },
    {
      "constant": true,
      "inputs": [],
      "name": "owner",
      "outputs": [
        {
          "name": "",
          "type": "address"
        }
      ],
      "payable": false,
      "stateMutability": "view",
      "type": "function"
    },
    {
      "constant": true,
      "inputs": [],
      "name": "getTotalSupply",
      "outputs": [
        {
          "name": "",
          "type": "uint256"
        }
      ],
      "payable": false,
      "stateMutability": "view",
      "type": "function"
    },
    {
      "constant": false,
      "inputs": [
        {
          "name": "_newOwner",
          "type": "address"
        }
      ],
      "name": "transferOwnership",
      "outputs": [],
      "payable": false,
      "stateMutability": "nonpayable",
      "type": "function"
    },
    {
      "inputs": [],
      "payable": false,
      "stateMutability": "nonpayable",
      "type": "constructor"
    },
    {
      "anonymous": false,
      "inputs": [
        {
          "indexed": true,
          "name": "_from",
          "type": "address"
        },
        {
          "indexed": true,
          "name": "_to",
          "type": "address"
        },
        {
          "indexed": true,
          "name": "_tokenId",
          "type": "uint256"
        }
      ],
      "name": "Transfer",
      "type": "event"
    },
    {
      "anonymous": false,
      "inputs": [
        {
          "indexed": true,
          "name": "_owner",
          "type": "address"
        },
        {
          "indexed": true,
          "name": "_approved",
          "type": "address"
        },
        {
          "indexed": true,
          "name": "_tokenId",
          "type": "uint256"
        }
      ],
      "name": "Approval",
      "type": "event"
    },
    {
      "anonymous": false,
      "inputs": [
        {
          "indexed": true,
          "name": "_owner",
          "type": "address"
        },
        {
          "indexed": true,
          "name": "_operator",
          "type": "address"
        },
        {
          "indexed": false,
          "name": "_approved",
          "type": "bool"
        }
      ],
      "name": "ApprovalForAll",
      "type": "event"
    },
    {
      "anonymous": false,
      "inputs": [
        {
          "indexed": true,
          "name": "_galleryAddress",
          "type": "address"
        },
        {
          "indexed": false,
          "name": "_name",
          "type": "string"
        },
        {
          "indexed": false,
          "name": "_completeAddress",
          "type": "string"
        }
      ],
      "name": "AddGallery",
      "type": "event"
    },
    {
      "anonymous": false,
      "inputs": [
        {
          "indexed": true,
          "name": "_galleryAddress",
          "type": "address"
        },
        {
          "indexed": false,
          "name": "_title",
          "type": "string"
        },
        {
          "indexed": false,
          "name": "_category",
          "type": "string"
        },
        {
          "indexed": false,
          "name": "_artist",
          "type": "string"
        },
        {
          "indexed": false,
          "name": "_photoIpfsHash",
          "type": "string"
        },
        {
          "indexed": false,
          "name": "_description",
          "type": "string"
        },
        {
          "indexed": false,
          "name": "_year",
          "type": "uint16"
        }
      ],
      "name": "AddArtwork",
      "type": "event"
    },
    {
      "anonymous": false,
      "inputs": [
        {
          "indexed": false,
          "name": "_creator",
          "type": "address"
        },
        {
          "indexed": false,
          "name": "_tokenId",
          "type": "uint256"
        },
        {
          "indexed": false,
          "name": "_durationInSec",
          "type": "uint256"
        },
        {
          "indexed": false,
          "name": "_startingBid",
          "type": "uint256"
        },
        {
          "indexed": false,
          "name": "_highestAllowedBidAmount",
          "type": "uint256"
        },
        {
          "indexed": false,
          "name": "_bidIncrement",
          "type": "uint256"
        },
        {
          "indexed": false,
          "name": "_auctionAddress",
          "type": "address"
        }
      ],
      "name": "CreateAuction",
      "type": "event"
    },
    {
      "anonymous": false,
      "inputs": [
        {
          "indexed": true,
          "name": "previousOwner",
          "type": "address"
        }
      ],
      "name": "OwnershipRenounced",
      "type": "event"
    },
    {
      "anonymous": false,
      "inputs": [
        {
          "indexed": true,
          "name": "previousOwner",
          "type": "address"
        },
        {
          "indexed": true,
          "name": "newOwner",
          "type": "address"
        }
      ],
      "name": "OwnershipTransferred",
      "type": "event"
    },
    {
      "constant": false,
      "inputs": [
        {
          "name": "_tokenId",
          "type": "uint256"
        },
        {
          "name": "_durationInSec",
          "type": "uint256"
        },
        {
          "name": "_startingBid",
          "type": "uint256"
        },
        {
          "name": "_highestAllowedBidAmount",
          "type": "uint256"
        },
        {
          "name": "_bidIncrement",
          "type": "uint256"
        }
      ],
      "name": "createAuction",
      "outputs": [
        {
          "name": "",
          "type": "address"
        }
      ],
      "payable": false,
      "stateMutability": "nonpayable",
      "type": "function"
    },
    {
      "constant": true,
      "inputs": [
        {
          "name": "_owner",
          "type": "address"
        }
      ],
      "name": "tokensOfOwner",
      "outputs": [
        {
          "name": "",
          "type": "uint256[]"
        }
      ],
      "payable": false,
      "stateMutability": "view",
      "type": "function"
    },
    {
      "constant": true,
      "inputs": [
        {
          "name": "_owner",
          "type": "address"
        }
      ],
      "name": "balanceOf",
      "outputs": [
        {
          "name": "",
          "type": "uint256"
        }
      ],
      "payable": false,
      "stateMutability": "view",
      "type": "function"
    },
    {
      "constant": true,
      "inputs": [
        {
          "name": "_tokenId",
          "type": "uint256"
        }
      ],
      "name": "ownerOf",
      "outputs": [
        {
          "name": "",
          "type": "address"
        }
      ],
      "payable": false,
      "stateMutability": "view",
      "type": "function"
    },
    {
      "constant": true,
      "inputs": [
        {
          "name": "_tokenId",
          "type": "uint256"
        }
      ],
      "name": "exists",
      "outputs": [
        {
          "name": "",
          "type": "bool"
        }
      ],
      "payable": false,
      "stateMutability": "view",
      "type": "function"
    },
    {
      "constant": false,
      "inputs": [
        {
          "name": "_to",
          "type": "address"
        },
        {
          "name": "_tokenId",
          "type": "uint256"
        }
      ],
      "name": "approve",
      "outputs": [],
      "payable": false,
      "stateMutability": "nonpayable",
      "type": "function"
    },
    {
      "constant": true,
      "inputs": [
        {
          "name": "_tokenId",
          "type": "uint256"
        }
      ],
      "name": "getApproved",
      "outputs": [
        {
          "name": "",
          "type": "address"
        }
      ],
      "payable": false,
      "stateMutability": "view",
      "type": "function"
    },
    {
      "constant": false,
      "inputs": [
        {
          "name": "_to",
          "type": "address"
        },
        {
          "name": "_approved",
          "type": "bool"
        }
      ],
      "name": "setApprovalForAll",
      "outputs": [],
      "payable": false,
      "stateMutability": "nonpayable",
      "type": "function"
    },
    {
      "constant": true,
      "inputs": [
        {
          "name": "_owner",
          "type": "address"
        },
        {
          "name": "_operator",
          "type": "address"
        }
      ],
      "name": "isApprovedForAll",
      "outputs": [
        {
          "name": "",
          "type": "bool"
        }
      ],
      "payable": false,
      "stateMutability": "view",
      "type": "function"
    },
    {
      "constant": false,
      "inputs": [
        {
          "name": "_from",
          "type": "address"
        },
        {
          "name": "_to",
          "type": "address"
        },
        {
          "name": "_tokenId",
          "type": "uint256"
        }
      ],
      "name": "transferFrom",
      "outputs": [],
      "payable": false,
      "stateMutability": "nonpayable",
      "type": "function"
    },
    {
      "constant": false,
      "inputs": [
        {
          "name": "_from",
          "type": "address"
        },
        {
          "name": "_to",
          "type": "address"
        },
        {
          "name": "_tokenId",
          "type": "uint256"
        }
      ],
      "name": "safeTransferFrom",
      "outputs": [],
      "payable": false,
      "stateMutability": "nonpayable",
      "type": "function"
    },
    {
      "constant": false,
      "inputs": [
        {
          "name": "_from",
          "type": "address"
        },
        {
          "name": "_to",
          "type": "address"
        },
        {
          "name": "_tokenId",
          "type": "uint256"
        },
        {
          "name": "_data",
          "type": "bytes"
        }
      ],
      "name": "safeTransferFrom",
      "outputs": [],
      "payable": false,
      "stateMutability": "nonpayable",
      "type": "function"
    }
  ],
  "bytecode": "0x60806040523480156200001157600080fd5b50336000806101000a81548173ffffffffffffffffffffffffffffffffffffffff021916908373ffffffffffffffffffffffffffffffffffffffff160217905550336000806101000a81548173ffffffffffffffffffffffffffffffffffffffff021916908373ffffffffffffffffffffffffffffffffffffffff160217905550620000cf6301ffc9a77c0100000000000000000000000000000000000000000000000000000000026200014f640100000000026401000000009004565b6200010c6380ac58cd7c0100000000000000000000000000000000000000000000000000000000026200014f640100000000026401000000009004565b62000149634f558e797c0100000000000000000000000000000000000000000000000000000000026200014f640100000000026401000000009004565b6200020e565b63ffffffff7c010000000000000000000000000000000000000000000000000000000002817bffffffffffffffffffffffffffffffffffffffffffffffffffffffff191614151515620001a157600080fd5b6001600a6000837bffffffffffffffffffffffffffffffffffffffffffffffffffffffff19167bffffffffffffffffffffffffffffffffffffffffffffffffffffffff1916815260200190815260200160002060006101000a81548160ff02191690831515021790555050565b61572f806200021e6000396000f3006080604052600436106200017b576000357c0100000000000000000000000000000000000000000000000000000000900463ffffffff16806301ffc9a71462000180578063081812fc14620001e7578063095ea7b31462000257578063167ddf6e14620002a757806319fa8f50146200051e5780632198d39a146200058a57806323b872dd14620005fa57806328046179146200066a5780633d960ffc14620006db57806342842e0e14620007ad57806346b2b5f1146200081d5780634735504114620009555780634b60267314620009995780634f558e791462000c43578063571a26a01462000c8b5780636352211e1462000cfb57806370a082311462000d6b578063715018a61462000dc5578063812413841462000ddf5780638462151c1462000f895780638a157df314620010265780638da5cb5b14620010be578063a22cb4651462001118578063b88d4fde146200116a578063c4e41b221462001220578063e985e9c5146200124e578063f2fde38b14620012cc575b600080fd5b3480156200018d57600080fd5b50620001cd60048036038101908080357bffffffffffffffffffffffffffffffffffffffffffffffffffffffff1916906020019092919050505062001312565b604051808215151515815260200191505060405180910390f35b348015620001f457600080fd5b5062000215600480360381019080803590602001909291905050506200137a565b604051808273ffffffffffffffffffffffffffffffffffffffff1673ffffffffffffffffffffffffffffffffffffffff16815260200191505060405180910390f35b3480156200026457600080fd5b50620002a5600480360381019080803573ffffffffffffffffffffffffffffffffffffffff16906020019092919080359060200190929190505050620013b7565b005b348015620002b457600080fd5b50620002d56004803603810190808035906020019092919050505062001503565b6040518080602001806020018060200180602001806020018761ffff1661ffff16815260200186810386528c818151815260200191508051906020019080838360005b838110156200033557808201518184015260208101905062000318565b50505050905090810190601f168015620003635780820380516001836020036101000a031916815260200191505b5086810385528b818151815260200191508051906020019080838360005b838110156200039e57808201518184015260208101905062000381565b50505050905090810190601f168015620003cc5780820380516001836020036101000a031916815260200191505b5086810384528a818151815260200191508051906020019080838360005b8381101562000407578082015181840152602081019050620003ea565b50505050905090810190601f168015620004355780820380516001836020036101000a031916815260200191505b50868103835289818151815260200191508051906020019080838360005b838110156200047057808201518184015260208101905062000453565b50505050905090810190601f1680156200049e5780820380516001836020036101000a031916815260200191505b50868103825288818151815260200191508051906020019080838360005b83811015620004d9578082015181840152602081019050620004bc565b50505050905090810190601f168015620005075780820380516001836020036101000a031916815260200191505b509b50505050505050505050505060405180910390f35b3480156200052b57600080fd5b50620005366200193f565b60405180827bffffffffffffffffffffffffffffffffffffffffffffffffffffffff19167bffffffffffffffffffffffffffffffffffffffffffffffffffffffff1916815260200191505060405180910390f35b3480156200059757600080fd5b50620005b86004803603810190808035906020019092919050505062001966565b604051808273ffffffffffffffffffffffffffffffffffffffff1673ffffffffffffffffffffffffffffffffffffffff16815260200191505060405180910390f35b3480156200060757600080fd5b5062000668600480360381019080803573ffffffffffffffffffffffffffffffffffffffff169060200190929190803573ffffffffffffffffffffffffffffffffffffffff16906020019092919080359060200190929190505050620019cb565b005b3480156200067757600080fd5b506200068262001ae1565b6040518080602001828103825283818151815260200191508051906020019060200280838360005b83811015620006c7578082015181840152602081019050620006aa565b505050509050019250505060405180910390f35b348015620006e857600080fd5b50620007ab600480360381019080803573ffffffffffffffffffffffffffffffffffffffff169060200190929190803590602001908201803590602001908080601f0160208091040260200160405190810160405280939291908181526020018383808284378201915050505050509192919290803590602001908201803590602001908080601f016020809104026020016040519081016040528093929190818152602001838380828437820191505050505050919291929050505062001b71565b005b348015620007ba57600080fd5b506200081b600480360381019080803573ffffffffffffffffffffffffffffffffffffffff169060200190929190803573ffffffffffffffffffffffffffffffffffffffff1690602001909291908035906020019092919050505062001dff565b005b3480156200082a57600080fd5b5062000861600480360381019080803573ffffffffffffffffffffffffffffffffffffffff16906020019092919050505062001e22565b604051808060200180602001848152602001838103835286818151815260200191508051906020019080838360005b83811015620008ad57808201518184015260208101905062000890565b50505050905090810190601f168015620008db5780820380516001836020036101000a031916815260200191505b50838103825285818151815260200191508051906020019080838360005b8381101562000916578082015181840152602081019050620008f9565b50505050905090810190601f168015620009445780820380516001836020036101000a031916815260200191505b509550505050505060405180910390f35b3480156200096257600080fd5b5062000983600480360381019080803590602001909291905050506200203b565b6040518082815260200191505060405180910390f35b348015620009a657600080fd5b50620009c76004803603810190808035906020019092919050505062002091565b6040518080602001806020018060200180602001806020018861ffff1661ffff1681526020018773ffffffffffffffffffffffffffffffffffffffff1673ffffffffffffffffffffffffffffffffffffffff16815260200186810386528d818151815260200191508051906020019080838360005b8381101562000a5957808201518184015260208101905062000a3c565b50505050905090810190601f16801562000a875780820380516001836020036101000a031916815260200191505b5086810385528c818151815260200191508051906020019080838360005b8381101562000ac257808201518184015260208101905062000aa5565b50505050905090810190601f16801562000af05780820380516001836020036101000a031916815260200191505b5086810384528b818151815260200191508051906020019080838360005b8381101562000b2b57808201518184015260208101905062000b0e565b50505050905090810190601f16801562000b595780820380516001836020036101000a031916815260200191505b5086810383528a818151815260200191508051906020019080838360005b8381101562000b9457808201518184015260208101905062000b77565b50505050905090810190601f16801562000bc25780820380516001836020036101000a031916815260200191505b50868103825289818151815260200191508051906020019080838360005b8381101562000bfd57808201518184015260208101905062000be0565b50505050905090810190601f16801562000c2b5780820380516001836020036101000a031916815260200191505b509c5050505050505050505050505060405180910390f35b34801562000c5057600080fd5b5062000c71600480360381019080803590602001909291905050506200241d565b604051808215151515815260200191505060405180910390f35b34801562000c9857600080fd5b5062000cb9600480360381019080803590602001909291905050506200248f565b604051808273ffffffffffffffffffffffffffffffffffffffff1673ffffffffffffffffffffffffffffffffffffffff16815260200191505060405180910390f35b34801562000d0857600080fd5b5062000d2960048036038101908080359060200190929190505050620024ce565b604051808273ffffffffffffffffffffffffffffffffffffffff1673ffffffffffffffffffffffffffffffffffffffff16815260200191505060405180910390f35b34801562000d7857600080fd5b5062000daf600480360381019080803573ffffffffffffffffffffffffffffffffffffffff1690602001909291905050506200254d565b6040518082815260200191505060405180910390f35b34801562000dd257600080fd5b5062000ddd620025d2565b005b34801562000dec57600080fd5b5062000f6f600480360381019080803590602001908201803590602001908080601f0160208091040260200160405190810160405280939291908181526020018383808284378201915050505050509192919290803590602001908201803590602001908080601f0160208091040260200160405190810160405280939291908181526020018383808284378201915050505050509192919290803590602001908201803590602001908080601f0160208091040260200160405190810160405280939291908181526020018383808284378201915050505050509192919290803590602001908201803590602001908080601f0160208091040260200160405190810160405280939291908181526020018383808284378201915050505050509192919290803590602001908201803590602001908080601f0160208091040260200160405190810160405280939291908181526020018383808284378201915050505050509192919290803561ffff169060200190929190505050620026d5565b604051808215151515815260200191505060405180910390f35b34801562000f9657600080fd5b5062000fcd600480360381019080803573ffffffffffffffffffffffffffffffffffffffff16906020019092919050505062002e6b565b6040518080602001828103825283818151815260200191508051906020019060200280838360005b838110156200101257808201518184015260208101905062000ff5565b505050509050019250505060405180910390f35b3480156200103357600080fd5b506200107c600480360381019080803590602001909291908035906020019092919080359060200190929190803590602001909291908035906020019092919050505062002fbe565b604051808273ffffffffffffffffffffffffffffffffffffffff1673ffffffffffffffffffffffffffffffffffffffff16815260200191505060405180910390f35b348015620010cb57600080fd5b50620010d662003430565b604051808273ffffffffffffffffffffffffffffffffffffffff1673ffffffffffffffffffffffffffffffffffffffff16815260200191505060405180910390f35b3480156200112557600080fd5b5062001168600480360381019080803573ffffffffffffffffffffffffffffffffffffffff16906020019092919080351515906020019092919050505062003455565b005b3480156200117757600080fd5b506200121e600480360381019080803573ffffffffffffffffffffffffffffffffffffffff169060200190929190803573ffffffffffffffffffffffffffffffffffffffff16906020019092919080359060200190929190803590602001908201803590602001908080601f016020809104026020016040519081016040528093929190818152602001838380828437820191505050505050919291929050505062003592565b005b3480156200122d57600080fd5b5062001238620035bf565b6040518082815260200191505060405180910390f35b3480156200125b57600080fd5b50620012b2600480360381019080803573ffffffffffffffffffffffffffffffffffffffff169060200190929190803573ffffffffffffffffffffffffffffffffffffffff169060200190929190505050620035cc565b604051808215151515815260200191505060405180910390f35b348015620012d957600080fd5b5062001310600480360381019080803573ffffffffffffffffffffffffffffffffffffffff16906020019092919050505062003660565b005b6000600a6000837bffffffffffffffffffffffffffffffffffffffffffffffffffffffff19167bffffffffffffffffffffffffffffffffffffffffffffffffffffffff1916815260200190815260200160002060009054906101000a900460ff169050919050565b60006005600083815260200190815260200160002060009054906101000a900473ffffffffffffffffffffffffffffffffffffffff169050919050565b6000620013c482620024ce565b90508073ffffffffffffffffffffffffffffffffffffffff168373ffffffffffffffffffffffffffffffffffffffff16141515156200140257600080fd5b8073ffffffffffffffffffffffffffffffffffffffff163373ffffffffffffffffffffffffffffffffffffffff161480620014455750620014448133620035cc565b5b15156200145157600080fd5b826005600084815260200190815260200160002060006101000a81548173ffffffffffffffffffffffffffffffffffffffff021916908373ffffffffffffffffffffffffffffffffffffffff160217905550818373ffffffffffffffffffffffffffffffffffffffff163373ffffffffffffffffffffffffffffffffffffffff167f8c5be1e5ebec7d5bd14f71427d1e84f3dd0314c0f7b2291e5b200ac8c7c3b92560405160405180910390a4505050565b6060806060806060600086600060018054905011801562001528575060018054905081105b15156200153457600080fd5b6001888154811015156200154457fe5b90600052602060002090600702016000016001898154811015156200156557fe5b906000526020600020906007020160010160018a8154811015156200158657fe5b906000526020600020906007020160020160018b815481101515620015a757fe5b906000526020600020906007020160030160018c815481101515620015c857fe5b906000526020600020906007020160040160018d815481101515620015e957fe5b906000526020600020906007020160050160009054906101000a900461ffff16858054600181600116156101000203166002900480601f016020809104026020016040519081016040528092919081815260200182805460018160011615610100020316600290048015620016a25780601f106200167657610100808354040283529160200191620016a2565b820191906000526020600020905b8154815290600101906020018083116200168457829003601f168201915b50505050509550848054600181600116156101000203166002900480601f016020809104026020016040519081016040528092919081815260200182805460018160011615610100020316600290048015620017425780601f10620017165761010080835404028352916020019162001742565b820191906000526020600020905b8154815290600101906020018083116200172457829003601f168201915b50505050509450838054600181600116156101000203166002900480601f016020809104026020016040519081016040528092919081815260200182805460018160011615610100020316600290048015620017e25780601f10620017b657610100808354040283529160200191620017e2565b820191906000526020600020905b815481529060010190602001808311620017c457829003601f168201915b50505050509350828054600181600116156101000203166002900480601f016020809104026020016040519081016040528092919081815260200182805460018160011615610100020316600290048015620018825780601f10620018565761010080835404028352916020019162001882565b820191906000526020600020905b8154815290600101906020018083116200186457829003601f168201915b50505050509250818054600181600116156101000203166002900480601f016020809104026020016040519081016040528092919081815260200182805460018160011615610100020316600290048015620019225780601f10620018f65761010080835404028352916020019162001922565b820191906000526020600020905b8154815290600101906020018083116200190457829003601f168201915b505050505091509650965096509650965096505091939550919395565b6301ffc9a77c01000000000000000000000000000000000000000000000000000000000281565b600081600060018054905011801562001983575060018054905081105b15156200198f57600080fd5b6003600084815260200190815260200160002060009054906101000a900473ffffffffffffffffffffffffffffffffffffffff16915050919050565b620019d73382620036ca565b1515620019e357600080fd5b600073ffffffffffffffffffffffffffffffffffffffff168373ffffffffffffffffffffffffffffffffffffffff161415151562001a2057600080fd5b600073ffffffffffffffffffffffffffffffffffffffff168273ffffffffffffffffffffffffffffffffffffffff161415151562001a5d57600080fd5b62001a69838262003767565b62001a7583826200386e565b62001a818282620039a2565b808273ffffffffffffffffffffffffffffffffffffffff168473ffffffffffffffffffffffffffffffffffffffff167fddf252ad1be2c89b69c2b068fc378daa952ba7f163c4a11628f55a4df523b3ef60405160405180910390a4505050565b6060600280548060200260200160405190810160405280929190818152602001828054801562001b6757602002820191906000526020600020905b8160009054906101000a900473ffffffffffffffffffffffffffffffffffffffff1673ffffffffffffffffffffffffffffffffffffffff168152602001906001019080831162001b1c575b5050505050905090565b62001b7b62003e70565b6000809054906101000a900473ffffffffffffffffffffffffffffffffffffffff1673ffffffffffffffffffffffffffffffffffffffff163373ffffffffffffffffffffffffffffffffffffffff1614151562001bd757600080fd5b60a0604051908101604052808481526020018381526020016000815260200160011515815260200160011515815250905080600760008673ffffffffffffffffffffffffffffffffffffffff1673ffffffffffffffffffffffffffffffffffffffff168152602001908152602001600020600082015181600001908051906020019062001c6692919062003ea4565b50602082015181600101908051906020019062001c8592919062003ea4565b506040820151816002015560608201518160030160006101000a81548160ff02191690831515021790555060808201518160030160016101000a81548160ff0219169083151502179055509050508373ffffffffffffffffffffffffffffffffffffffff167f4acd702547bb71d8efddd1d7f34b6bfa61e999232186937d44d2dbb8de5525ce8484604051808060200180602001838103835285818151815260200191508051906020019080838360005b8381101562001d5357808201518184015260208101905062001d36565b50505050905090810190601f16801562001d815780820380516001836020036101000a031916815260200191505b50838103825284818151815260200191508051906020019080838360005b8381101562001dbc57808201518184015260208101905062001d9f565b50505050905090810190601f16801562001dea5780820380516001836020036101000a031916815260200191505b5094505050505060405180910390a250505050565b62001e1d838383602060405190810160405280600081525062003592565b505050565b6060806000600760008573ffffffffffffffffffffffffffffffffffffffff1673ffffffffffffffffffffffffffffffffffffffff168152602001908152602001600020600001600760008673ffffffffffffffffffffffffffffffffffffffff1673ffffffffffffffffffffffffffffffffffffffff168152602001908152602001600020600101600760008773ffffffffffffffffffffffffffffffffffffffff1673ffffffffffffffffffffffffffffffffffffffff16815260200190815260200160002060020154828054600181600116156101000203166002900480601f01602080910402602001604051908101604052809291908181526020018280546001816001161561010002031660029004801562001f875780601f1062001f5b5761010080835404028352916020019162001f87565b820191906000526020600020905b81548152906001019060200180831162001f6957829003601f168201915b50505050509250818054600181600116156101000203166002900480601f016020809104026020016040519081016040528092919081815260200182805460018160011615610100020316600290048015620020275780601f1062001ffb5761010080835404028352916020019162002027565b820191906000526020600020905b8154815290600101906020018083116200200957829003601f168201915b505050505091509250925092509193909250565b600081600060018054905011801562002058575060018054905081105b15156200206457600080fd5b6001838154811015156200207457fe5b906000526020600020906007020160060180549050915050919050565b600181815481101515620020a157fe5b9060005260206000209060070201600091509050806000018054600181600116156101000203166002900480601f016020809104026020016040519081016040528092919081815260200182805460018160011615610100020316600290048015620021515780601f10620021255761010080835404028352916020019162002151565b820191906000526020600020905b8154815290600101906020018083116200213357829003601f168201915b505050505090806001018054600181600116156101000203166002900480601f016020809104026020016040519081016040528092919081815260200182805460018160011615610100020316600290048015620021f35780601f10620021c757610100808354040283529160200191620021f3565b820191906000526020600020905b815481529060010190602001808311620021d557829003601f168201915b505050505090806002018054600181600116156101000203166002900480601f016020809104026020016040519081016040528092919081815260200182805460018160011615610100020316600290048015620022955780601f10620022695761010080835404028352916020019162002295565b820191906000526020600020905b8154815290600101906020018083116200227757829003601f168201915b505050505090806003018054600181600116156101000203166002900480601f016020809104026020016040519081016040528092919081815260200182805460018160011615610100020316600290048015620023375780601f106200230b5761010080835404028352916020019162002337565b820191906000526020600020905b8154815290600101906020018083116200231957829003601f168201915b505050505090806004018054600181600116156101000203166002900480601f016020809104026020016040519081016040528092919081815260200182805460018160011615610100020316600290048015620023d95780601f10620023ad57610100808354040283529160200191620023d9565b820191906000526020600020905b815481529060010190602001808311620023bb57829003601f168201915b5050505050908060050160009054906101000a900461ffff16908060050160029054906101000a900473ffffffffffffffffffffffffffffffffffffffff16905087565b6000806003600084815260200190815260200160002060009054906101000a900473ffffffffffffffffffffffffffffffffffffffff169050600073ffffffffffffffffffffffffffffffffffffffff168173ffffffffffffffffffffffffffffffffffffffff161415915050919050565b6002818154811015156200249f57fe5b906000526020600020016000915054906101000a900473ffffffffffffffffffffffffffffffffffffffff1681565b6000806003600084815260200190815260200160002060009054906101000a900473ffffffffffffffffffffffffffffffffffffffff169050600073ffffffffffffffffffffffffffffffffffffffff168173ffffffffffffffffffffffffffffffffffffffff16141515156200254457600080fd5b80915050919050565b60008073ffffffffffffffffffffffffffffffffffffffff168273ffffffffffffffffffffffffffffffffffffffff16141515156200258b57600080fd5b600460008373ffffffffffffffffffffffffffffffffffffffff1673ffffffffffffffffffffffffffffffffffffffff168152602001908152602001600020549050919050565b6000809054906101000a900473ffffffffffffffffffffffffffffffffffffffff1673ffffffffffffffffffffffffffffffffffffffff163373ffffffffffffffffffffffffffffffffffffffff161415156200262e57600080fd5b6000809054906101000a900473ffffffffffffffffffffffffffffffffffffffff1673ffffffffffffffffffffffffffffffffffffffff167ff8df31144d9c2f0f6b59d69b8b98abd5459d07f2742c4df920b25aae33c6482060405160405180910390a260008060006101000a81548173ffffffffffffffffffffffffffffffffffffffff021916908373ffffffffffffffffffffffffffffffffffffffff160217905550565b6000620026e162003f2b565b6000600760003373ffffffffffffffffffffffffffffffffffffffff1673ffffffffffffffffffffffffffffffffffffffff16815260200190815260200160002060030160009054906101000a900460ff1615156200273f57600080fd5b610100604051908101604052808a81526020018981526020018881526020018781526020018681526020018561ffff1681526020013373ffffffffffffffffffffffffffffffffffffffff1681526020016000604051908082528060200260200182016040528015620027c15781602001602082028038833980820191505090505b508152509150600180839080600181540180825580915050906001820390600052602060002090600702016000909192909190915060008201518160000190805190602001906200281492919062003ea4565b5060208201518160010190805190602001906200283392919062003ea4565b5060408201518160020190805190602001906200285292919062003ea4565b5060608201518160030190805190602001906200287192919062003ea4565b5060808201518160040190805190602001906200289092919062003ea4565b5060a08201518160050160006101000a81548161ffff021916908361ffff16021790555060c08201518160050160026101000a81548173ffffffffffffffffffffffffffffffffffffffff021916908373ffffffffffffffffffffffffffffffffffffffff16021790555060e08201518160060190805190602001906200291992919062003f8b565b505050039050336003600083815260200190815260200160002060006101000a81548173ffffffffffffffffffffffffffffffffffffffff021916908373ffffffffffffffffffffffffffffffffffffffff160217905550620029c66001600460003373ffffffffffffffffffffffffffffffffffffffff1673ffffffffffffffffffffffffffffffffffffffff1681526020019081526020016000205462003aff90919063ffffffff16565b600460003373ffffffffffffffffffffffffffffffffffffffff1673ffffffffffffffffffffffffffffffffffffffff168152602001908152602001600020819055506008886040518082805190602001908083835b60208310151562002a43578051825260208201915060208101905060208303925062002a1c565b6001836020036101000a03801982511681845116808217855250505050505090500191505090815260200160405180910390208190806001815401808255809150509060018203906000526020600020016000909192909190915055506009876040518082805190602001908083835b60208310151562002ada578051825260208201915060208101905060208303925062002ab3565b6001836020036101000a038019825116818451168082178552505050505050905001915050908152602001604051809103902081908060018154018082558091505090600182039060005260206000200160009091929091909150555062002b8f6001600760003373ffffffffffffffffffffffffffffffffffffffff1673ffffffffffffffffffffffffffffffffffffffff1681526020019081526020016000206002015462003aff90919063ffffffff16565b600760003373ffffffffffffffffffffffffffffffffffffffff1673ffffffffffffffffffffffffffffffffffffffff168152602001908152602001600020600201819055503373ffffffffffffffffffffffffffffffffffffffff167fb2b3b3ae2eb6e0427d61d459873621f106e7310f904b84b55366c9e91c770e668a8a8a8a8a8a6040518080602001806020018060200180602001806020018761ffff1661ffff16815260200186810386528c818151815260200191508051906020019080838360005b8381101562002c7357808201518184015260208101905062002c56565b50505050905090810190601f16801562002ca15780820380516001836020036101000a031916815260200191505b5086810385528b818151815260200191508051906020019080838360005b8381101562002cdc57808201518184015260208101905062002cbf565b50505050905090810190601f16801562002d0a5780820380516001836020036101000a031916815260200191505b5086810384528a818151815260200191508051906020019080838360005b8381101562002d4557808201518184015260208101905062002d28565b50505050905090810190601f16801562002d735780820380516001836020036101000a031916815260200191505b50868103835289818151815260200191508051906020019080838360005b8381101562002dae57808201518184015260208101905062002d91565b50505050905090810190601f16801562002ddc5780820380516001836020036101000a031916815260200191505b50868103825288818151815260200191508051906020019080838360005b8381101562002e1757808201518184015260208101905062002dfa565b50505050905090810190601f16801562002e455780820380516001836020036101000a031916815260200191505b509b50505050505050505050505060405180910390a26001925050509695505050505050565b60606000606060008062002e7f866200254d565b9350600084141562002ec557600060405190808252806020026020018201604052801562002ebc5781602001602082028038833980820191505090505b50945062002fb5565b8360405190808252806020026020018201604052801562002ef55781602001602082028038833980820191505090505b50925060009150600190505b62002f0b620035bf565b8111151562002fb1578573ffffffffffffffffffffffffffffffffffffffff166003600083815260200190815260200160002060009054906101000a900473ffffffffffffffffffffffffffffffffffffffff1673ffffffffffffffffffffffffffffffffffffffff16141562002fa35780838381518110151562002f8c57fe5b906020019060200201818152505081806001019250505b808060010191505062002f01565b8294505b50505050919050565b600080600760003373ffffffffffffffffffffffffffffffffffffffff1673ffffffffffffffffffffffffffffffffffffffff16815260200190815260200160002060030160019054906101000a900460ff1615156200301d57600080fd5b866003600082815260200190815260200160002060009054906101000a900473ffffffffffffffffffffffffffffffffffffffff1673ffffffffffffffffffffffffffffffffffffffff163373ffffffffffffffffffffffffffffffffffffffff161415156200308c57600080fd5b84861015156200309b57600080fd5b620030b0868662003b1c90919063ffffffff16565b84101515620030be57600080fd5b87338888888830620030cf6200401a565b808881526020018773ffffffffffffffffffffffffffffffffffffffff1673ffffffffffffffffffffffffffffffffffffffff1681526020018681526020018581526020018481526020018381526020018273ffffffffffffffffffffffffffffffffffffffff1673ffffffffffffffffffffffffffffffffffffffff168152602001975050505050505050604051809103906000f08015801562003178573d6000803e3d6000fd5b50915081600360008a815260200190815260200160002060006101000a81548173ffffffffffffffffffffffffffffffffffffffff021916908373ffffffffffffffffffffffffffffffffffffffff160217905550620032226001600460008573ffffffffffffffffffffffffffffffffffffffff1673ffffffffffffffffffffffffffffffffffffffff1681526020019081526020016000205462003aff90919063ffffffff16565b600460008473ffffffffffffffffffffffffffffffffffffffff1673ffffffffffffffffffffffffffffffffffffffff16815260200190815260200160002081905550620032ba6001600460003373ffffffffffffffffffffffffffffffffffffffff1673ffffffffffffffffffffffffffffffffffffffff1681526020019081526020016000205462003b1c90919063ffffffff16565b600460003373ffffffffffffffffffffffffffffffffffffffff1673ffffffffffffffffffffffffffffffffffffffff1681526020019081526020016000208190555060028290806001815401808255809150509060018203906000526020600020016000909192909190916101000a81548173ffffffffffffffffffffffffffffffffffffffff021916908373ffffffffffffffffffffffffffffffffffffffff160217905550507fbf7b3d991e76607f43a6d4129ac753a8d4777609e5b7b35dbb62f219c163b0b533898989898988604051808873ffffffffffffffffffffffffffffffffffffffff1673ffffffffffffffffffffffffffffffffffffffff1681526020018781526020018681526020018581526020018481526020018381526020018273ffffffffffffffffffffffffffffffffffffffff1673ffffffffffffffffffffffffffffffffffffffff16815260200197505050505050505060405180910390a1819250505095945050505050565b6000809054906101000a900473ffffffffffffffffffffffffffffffffffffffff1681565b3373ffffffffffffffffffffffffffffffffffffffff168273ffffffffffffffffffffffffffffffffffffffff16141515156200349157600080fd5b80600660003373ffffffffffffffffffffffffffffffffffffffff1673ffffffffffffffffffffffffffffffffffffffff16815260200190815260200160002060008473ffffffffffffffffffffffffffffffffffffffff1673ffffffffffffffffffffffffffffffffffffffff16815260200190815260200160002060006101000a81548160ff0219169083151502179055508173ffffffffffffffffffffffffffffffffffffffff163373ffffffffffffffffffffffffffffffffffffffff167f17307eab39ab6107e8899845ad3d59bd9653f200f220920489ca2b5937696c3183604051808215151515815260200191505060405180910390a35050565b6200359f848484620019cb565b620035ad8484848462003b36565b1515620035b957600080fd5b50505050565b6000600180549050905090565b6000600660008473ffffffffffffffffffffffffffffffffffffffff1673ffffffffffffffffffffffffffffffffffffffff16815260200190815260200160002060008373ffffffffffffffffffffffffffffffffffffffff1673ffffffffffffffffffffffffffffffffffffffff16815260200190815260200160002060009054906101000a900460ff16905092915050565b6000809054906101000a900473ffffffffffffffffffffffffffffffffffffffff1673ffffffffffffffffffffffffffffffffffffffff163373ffffffffffffffffffffffffffffffffffffffff16141515620036bc57600080fd5b620036c78162003d62565b50565b600080620036d883620024ce565b90508073ffffffffffffffffffffffffffffffffffffffff168473ffffffffffffffffffffffffffffffffffffffff1614806200374a57508373ffffffffffffffffffffffffffffffffffffffff1662003732846200137a565b73ffffffffffffffffffffffffffffffffffffffff16145b806200375e57506200375d8185620035cc565b5b91505092915050565b8173ffffffffffffffffffffffffffffffffffffffff166200378982620024ce565b73ffffffffffffffffffffffffffffffffffffffff16141515620037ac57600080fd5b600073ffffffffffffffffffffffffffffffffffffffff166005600083815260200190815260200160002060009054906101000a900473ffffffffffffffffffffffffffffffffffffffff1673ffffffffffffffffffffffffffffffffffffffff161415156200386a5760006005600083815260200190815260200160002060006101000a81548173ffffffffffffffffffffffffffffffffffffffff021916908373ffffffffffffffffffffffffffffffffffffffff1602179055505b5050565b8173ffffffffffffffffffffffffffffffffffffffff166200389082620024ce565b73ffffffffffffffffffffffffffffffffffffffff16141515620038b357600080fd5b620039086001600460008573ffffffffffffffffffffffffffffffffffffffff1673ffffffffffffffffffffffffffffffffffffffff1681526020019081526020016000205462003b1c90919063ffffffff16565b600460008473ffffffffffffffffffffffffffffffffffffffff1673ffffffffffffffffffffffffffffffffffffffff1681526020019081526020016000208190555060006003600083815260200190815260200160002060006101000a81548173ffffffffffffffffffffffffffffffffffffffff021916908373ffffffffffffffffffffffffffffffffffffffff1602179055505050565b600073ffffffffffffffffffffffffffffffffffffffff166003600083815260200190815260200160002060009054906101000a900473ffffffffffffffffffffffffffffffffffffffff1673ffffffffffffffffffffffffffffffffffffffff1614151562003a1157600080fd5b816003600083815260200190815260200160002060006101000a81548173ffffffffffffffffffffffffffffffffffffffff021916908373ffffffffffffffffffffffffffffffffffffffff16021790555062003ab86001600460008573ffffffffffffffffffffffffffffffffffffffff1673ffffffffffffffffffffffffffffffffffffffff1681526020019081526020016000205462003aff90919063ffffffff16565b600460008473ffffffffffffffffffffffffffffffffffffffff1673ffffffffffffffffffffffffffffffffffffffff168152602001908152602001600020819055505050565b6000818301905082811015151562003b1357fe5b80905092915050565b600082821115151562003b2b57fe5b818303905092915050565b60008062003b5a8573ffffffffffffffffffffffffffffffffffffffff1662003e5d565b151562003b6b576001915062003d59565b8473ffffffffffffffffffffffffffffffffffffffff1663150b7a02338887876040518563ffffffff167c0100000000000000000000000000000000000000000000000000000000028152600401808573ffffffffffffffffffffffffffffffffffffffff1673ffffffffffffffffffffffffffffffffffffffff1681526020018473ffffffffffffffffffffffffffffffffffffffff1673ffffffffffffffffffffffffffffffffffffffff16815260200183815260200180602001828103825283818151815260200191508051906020019080838360005b8381101562003c6257808201518184015260208101905062003c45565b50505050905090810190601f16801562003c905780820380516001836020036101000a031916815260200191505b5095505050505050602060405180830381600087803b15801562003cb357600080fd5b505af115801562003cc8573d6000803e3d6000fd5b505050506040513d602081101562003cdf57600080fd5b8101908080519060200190929190505050905063150b7a027c0100000000000000000000000000000000000000000000000000000000027bffffffffffffffffffffffffffffffffffffffffffffffffffffffff1916817bffffffffffffffffffffffffffffffffffffffffffffffffffffffff19161491505b50949350505050565b600073ffffffffffffffffffffffffffffffffffffffff168173ffffffffffffffffffffffffffffffffffffffff161415151562003d9f57600080fd5b8073ffffffffffffffffffffffffffffffffffffffff166000809054906101000a900473ffffffffffffffffffffffffffffffffffffffff1673ffffffffffffffffffffffffffffffffffffffff167f8be0079c531659141344cd1fd0a4f28419497f9722a3daafe3b4186f6b6457e060405160405180910390a3806000806101000a81548173ffffffffffffffffffffffffffffffffffffffff021916908373ffffffffffffffffffffffffffffffffffffffff16021790555050565b600080823b905060008111915050919050565b60a0604051908101604052806060815260200160608152602001600081526020016000151581526020016000151581525090565b828054600181600116156101000203166002900490600052602060002090601f016020900481019282601f1062003ee757805160ff191683800117855562003f18565b8280016001018555821562003f18579182015b8281111562003f1757825182559160200191906001019062003efa565b5b50905062003f2791906200402b565b5090565b610100604051908101604052806060815260200160608152602001606081526020016060815260200160608152602001600061ffff168152602001600073ffffffffffffffffffffffffffffffffffffffff168152602001606081525090565b82805482825590600052602060002090810192821562004007579160200282015b82811115620040065782518260006101000a81548173ffffffffffffffffffffffffffffffffffffffff021916908373ffffffffffffffffffffffffffffffffffffffff1602179055509160200191906001019062003fac565b5b50905062004016919062004053565b5090565b60405161166a806200409a83390190565b6200405091905b808211156200404c57600081600090555060010162004032565b5090565b90565b6200409691905b808211156200409257600081816101000a81549073ffffffffffffffffffffffffffffffffffffffff0219169055506001016200405a565b5090565b905600608060405234801561001057600080fd5b5060405160e08061166a83398101806040528101908080519060200190929190805190602001909291908051906020019092919080519060200190929190805190602001909291908051906020019092919080519060200190929190505050806000806101000a81548173ffffffffffffffffffffffffffffffffffffffff021916908373ffffffffffffffffffffffffffffffffffffffff16021790555033600160006101000a81548173ffffffffffffffffffffffffffffffffffffffff021916908373ffffffffffffffffffffffffffffffffffffffff16021790555042600281905550610119856002546101886401000000000261146f179091906401000000009004565b6003819055508660068190555085600160006101000a81548173ffffffffffffffffffffffffffffffffffffffff021916908373ffffffffffffffffffffffffffffffffffffffff160217905550836004819055508260078190555081600581905550505050505050506101a4565b6000818301905082811015151561019b57fe5b80905092915050565b6114b7806101b36000396000f30060806040526004361061011d576000357c0100000000000000000000000000000000000000000000000000000000900463ffffffff1680630b97bc8614610122578063166034a31461014d57806317d70f7c1461017c5780633ccfd60b146101a75780633f8c8244146101c95780634979440a14610220578063799a53591461024b5780638da5cb5b146102625780638e7ea5b2146102b957806391f901571461031757806395ee12211461036e578063abf0eb501461039d578063b3cc167a146103f8578063b9fdd56914610423578063c24a0f8b1461044e578063ce5e0ddb14610479578063dac6270d146104d0578063ea8a1af0146104fb578063ecb70fb714610512578063ecfc7ecc14610541578063fa2473961461054b575b600080fd5b34801561012e57600080fd5b50610137610576565b6040518082815260200191505060405180910390f35b34801561015957600080fd5b5061016261057c565b604051808215151515815260200191505060405180910390f35b34801561018857600080fd5b5061019161058f565b6040518082815260200191505060405180910390f35b6101af610595565b604051808215151515815260200191505060405180910390f35b3480156101d557600080fd5b506101de610a70565b604051808273ffffffffffffffffffffffffffffffffffffffff1673ffffffffffffffffffffffffffffffffffffffff16815260200191505060405180910390f35b34801561022c57600080fd5b50610235610a95565b6040518082815260200191505060405180910390f35b34801561025757600080fd5b50610260610afe565b005b34801561026e57600080fd5b50610277610d0f565b604051808273ffffffffffffffffffffffffffffffffffffffff1673ffffffffffffffffffffffffffffffffffffffff16815260200191505060405180910390f35b3480156102c557600080fd5b506102ce610d35565b604051808373ffffffffffffffffffffffffffffffffffffffff1673ffffffffffffffffffffffffffffffffffffffff1681526020018281526020019250505060405180910390f35b34801561032357600080fd5b5061032c610dd8565b604051808273ffffffffffffffffffffffffffffffffffffffff1673ffffffffffffffffffffffffffffffffffffffff16815260200191505060405180910390f35b34801561037a57600080fd5b50610383610dfe565b604051808215151515815260200191505060405180910390f35b3480156103a957600080fd5b506103de600480360381019080803573ffffffffffffffffffffffffffffffffffffffff169060200190929190505050610e11565b604051808215151515815260200191505060405180910390f35b34801561040457600080fd5b5061040d610eb5565b6040518082815260200191505060405180910390f35b34801561042f57600080fd5b50610438610ebb565b6040518082815260200191505060405180910390f35b34801561045a57600080fd5b50610463610ec1565b6040518082815260200191505060405180910390f35b34801561048557600080fd5b506104ba600480360381019080803573ffffffffffffffffffffffffffffffffffffffff169060200190929190505050610ec7565b6040518082815260200191505060405180910390f35b3480156104dc57600080fd5b506104e5610f10565b6040518082815260200191505060405180910390f35b34801561050757600080fd5b50610510610f30565b005b34801561051e57600080fd5b506105276110fa565b604051808215151515815260200191505060405180910390f35b610549611107565b005b34801561055757600080fd5b50610560611426565b6040518082815260200191505060405180910390f35b60025481565b600860009054906101000a900460ff1681565b60065481565b600061059f6110fa565b15156105aa57600080fd5b600160009054906101000a900473ffffffffffffffffffffffffffffffffffffffff1673ffffffffffffffffffffffffffffffffffffffff163373ffffffffffffffffffffffffffffffffffffffff1614801561060c575061060a61142c565b155b1561062d576001600860006101000a81548160ff0219169083151502179055505b61063561142c565b151561064057600080fd5b3373ffffffffffffffffffffffffffffffffffffffff16600860029054906101000a900473ffffffffffffffffffffffffffffffffffffffff1673ffffffffffffffffffffffffffffffffffffffff161415151561069d57600080fd5b600160009054906101000a900473ffffffffffffffffffffffffffffffffffffffff1673ffffffffffffffffffffffffffffffffffffffff163373ffffffffffffffffffffffffffffffffffffffff161480156107075750600860009054906101000a900460ff16155b1561091057600160009054906101000a900473ffffffffffffffffffffffffffffffffffffffff1673ffffffffffffffffffffffffffffffffffffffff166108fc60096000600860029054906101000a900473ffffffffffffffffffffffffffffffffffffffff1673ffffffffffffffffffffffffffffffffffffffff1673ffffffffffffffffffffffffffffffffffffffff168152602001908152602001600020549081150290604051600060405180830381858888f193505050501580156107d5573d6000803e3d6000fd5b50600060096000600860029054906101000a900473ffffffffffffffffffffffffffffffffffffffff1673ffffffffffffffffffffffffffffffffffffffff1673ffffffffffffffffffffffffffffffffffffffff168152602001908152602001600020819055506001600860006101000a81548160ff0219169083151502179055503373ffffffffffffffffffffffffffffffffffffffff167f884edad9ce6fa2440d8a54cc123490eb96d2768479d49ff9c7366125a942436460096000600860029054906101000a900473ffffffffffffffffffffffffffffffffffffffff1673ffffffffffffffffffffffffffffffffffffffff1673ffffffffffffffffffffffffffffffffffffffff168152602001908152602001600020546040518082815260200191505060405180910390a260019050610a6d565b3373ffffffffffffffffffffffffffffffffffffffff166108fc600960003373ffffffffffffffffffffffffffffffffffffffff1673ffffffffffffffffffffffffffffffffffffffff168152602001908152602001600020549081150290604051600060405180830381858888f19350505050158015610995573d6000803e3d6000fd5b506000600960003373ffffffffffffffffffffffffffffffffffffffff1673ffffffffffffffffffffffffffffffffffffffff168152602001908152602001600020819055503373ffffffffffffffffffffffffffffffffffffffff167f884edad9ce6fa2440d8a54cc123490eb96d2768479d49ff9c7366125a9424364600960003373ffffffffffffffffffffffffffffffffffffffff1673ffffffffffffffffffffffffffffffffffffffff168152602001908152602001600020546040518082815260200191505060405180910390a2600190505b90565b6000809054906101000a900473ffffffffffffffffffffffffffffffffffffffff1681565b600060096000600860029054906101000a900473ffffffffffffffffffffffffffffffffffffffff1673ffffffffffffffffffffffffffffffffffffffff1673ffffffffffffffffffffffffffffffffffffffff16815260200190815260200160002054905090565b6000600860029054906101000a900473ffffffffffffffffffffffffffffffffffffffff169050610b2d61142c565b1515610b5957600160009054906101000a900473ffffffffffffffffffffffffffffffffffffffff1690505b7f45460b687880bc387518917b7b2f038276df3129fdea2e03690b3f59239b8ec23082600654604051808473ffffffffffffffffffffffffffffffffffffffff1673ffffffffffffffffffffffffffffffffffffffff1681526020018373ffffffffffffffffffffffffffffffffffffffff1673ffffffffffffffffffffffffffffffffffffffff168152602001828152602001935050505060405180910390a16000809054906101000a900473ffffffffffffffffffffffffffffffffffffffff1673ffffffffffffffffffffffffffffffffffffffff166323b872dd30836006546040518463ffffffff167c0100000000000000000000000000000000000000000000000000000000028152600401808473ffffffffffffffffffffffffffffffffffffffff1673ffffffffffffffffffffffffffffffffffffffff1681526020018373ffffffffffffffffffffffffffffffffffffffff1673ffffffffffffffffffffffffffffffffffffffff1681526020018281526020019350505050600060405180830381600087803b158015610cf457600080fd5b505af1158015610d08573d6000803e3d6000fd5b5050505050565b600160009054906101000a900473ffffffffffffffffffffffffffffffffffffffff1681565b600080610d406110fa565b1515610d4b57600080fd5b600860029054906101000a900473ffffffffffffffffffffffffffffffffffffffff1660096000600860029054906101000a900473ffffffffffffffffffffffffffffffffffffffff1673ffffffffffffffffffffffffffffffffffffffff1673ffffffffffffffffffffffffffffffffffffffff16815260200190815260200160002054915091509091565b600860029054906101000a900473ffffffffffffffffffffffffffffffffffffffff1681565b600860019054906101000a900460ff1681565b6000600160009054906101000a900473ffffffffffffffffffffffffffffffffffffffff1673ffffffffffffffffffffffffffffffffffffffff168273ffffffffffffffffffffffffffffffffffffffff161480610eae57506000600960008473ffffffffffffffffffffffffffffffffffffffff1673ffffffffffffffffffffffffffffffffffffffff16815260200190815260200160002054115b9050919050565b60055481565b60045481565b60035481565b6000600960008373ffffffffffffffffffffffffffffffffffffffff1673ffffffffffffffffffffffffffffffffffffffff168152602001908152602001600020549050919050565b6000600354421115610f255760009050610f2d565b426003540390505b90565b600160009054906101000a900473ffffffffffffffffffffffffffffffffffffffff1673ffffffffffffffffffffffffffffffffffffffff163373ffffffffffffffffffffffffffffffffffffffff16141515610f8c57600080fd5b6000610f96610f10565b111515610fa257600080fd5b6000809054906101000a900473ffffffffffffffffffffffffffffffffffffffff1673ffffffffffffffffffffffffffffffffffffffff166323b872dd30600160009054906101000a900473ffffffffffffffffffffffffffffffffffffffff166006546040518463ffffffff167c0100000000000000000000000000000000000000000000000000000000028152600401808473ffffffffffffffffffffffffffffffffffffffff1673ffffffffffffffffffffffffffffffffffffffff1681526020018373ffffffffffffffffffffffffffffffffffffffff1673ffffffffffffffffffffffffffffffffffffffff1681526020018281526020019350505050600060405180830381600087803b1580156110be57600080fd5b505af11580156110d2573d6000803e3d6000fd5b50505050426003819055506001600860016101000a81548160ff021916908315150217905550565b6000600354421015905090565b6000611111610f10565b11151561111d57600080fd5b600061117134600960003373ffffffffffffffffffffffffffffffffffffffff1673ffffffffffffffffffffffffffffffffffffffff1681526020019081526020016000205461146f90919063ffffffff16565b90506000600860029054906101000a900473ffffffffffffffffffffffffffffffffffffffff1673ffffffffffffffffffffffffffffffffffffffff1614156111c65760045481101515156111c557600080fd5b5b61123c60055460096000600860029054906101000a900473ffffffffffffffffffffffffffffffffffffffff1673ffffffffffffffffffffffffffffffffffffffff1673ffffffffffffffffffffffffffffffffffffffff1681526020019081526020016000205461146f90919063ffffffff16565b811015151561124a57600080fd5b600754811115151561125b57600080fd5b600160009054906101000a900473ffffffffffffffffffffffffffffffffffffffff1673ffffffffffffffffffffffffffffffffffffffff163373ffffffffffffffffffffffffffffffffffffffff16141515156112b857600080fd5b33600860026101000a81548173ffffffffffffffffffffffffffffffffffffffff021916908373ffffffffffffffffffffffffffffffffffffffff16021790555061134b34600960003373ffffffffffffffffffffffffffffffffffffffff1673ffffffffffffffffffffffffffffffffffffffff1681526020019081526020016000205461146f90919063ffffffff16565b600960003373ffffffffffffffffffffffffffffffffffffffff1673ffffffffffffffffffffffffffffffffffffffff168152602001908152602001600020819055503373ffffffffffffffffffffffffffffffffffffffff167fea602cde4e1d0ea7d2d2404223fa40af5db611461db974bf307e94352d6eabb534600960003373ffffffffffffffffffffffffffffffffffffffff1673ffffffffffffffffffffffffffffffffffffffff16815260200190815260200160002054604051808381526020018281526020019250505060405180910390a250565b60075481565b600080600860029054906101000a900473ffffffffffffffffffffffffffffffffffffffff1673ffffffffffffffffffffffffffffffffffffffff161415905090565b6000818301905082811015151561148257fe5b809050929150505600a165627a7a723058200b2b7b863cf406a2d8545cd7576d3030c77715c0860277927cb1b21d1dca77860029a165627a7a723058202a92859c0195d93e8ea64c8d5e31ede7f7d8f6faa0c63840588a5181356d61350029",
  "source": "pragma solidity ^0.4.24;\n\nimport '../node_modules/zeppelin-solidity/contracts/token/ERC721/ERC721Basic.sol';\nimport '../node_modules/zeppelin-solidity/contracts/token/ERC721/ERC721Receiver.sol';\nimport '../node_modules/zeppelin-solidity/contracts/AddressUtils.sol';\nimport '../node_modules/zeppelin-solidity/contracts/introspection/SupportsInterfaceWithLookup.sol';\n\nimport './ArtworkBase.sol';\nimport './Auction.sol';\n\ncontract ArtworkOwnership is ArtworkBase, ERC721Basic, SupportsInterfaceWithLookup {\n  \n  using AddressUtils for address;\n\n  bytes4 private constant ERC721_RECEIVED = 0x150b7a02;\n\n  constructor () public {\n    _registerInterface(InterfaceId_ERC721);\n    _registerInterface(InterfaceId_ERC721Exists);\n  }\n\n  function createAuction(uint _tokenId, uint _durationInSec, uint _startingBid, uint _highestAllowedBidAmount, uint _bidIncrement) public canCreateAuction isOwnerOfToken(_tokenId) returns (address) {\n    require(_startingBid < _highestAllowedBidAmount);\n    require(_bidIncrement < _highestAllowedBidAmount.sub(_startingBid));\n    Auction auction = new Auction(_tokenId, msg.sender, _durationInSec, _startingBid, _highestAllowedBidAmount, _bidIncrement, this);\n    artworkIndexToOwner[_tokenId] = auction;\n    ownershipTokenCount[auction] = ownershipTokenCount[auction].add(1);\n    ownershipTokenCount[msg.sender] = ownershipTokenCount[msg.sender].sub(1);\n    auctions.push(auction);\n    emit CreateAuction(msg.sender, _tokenId, _durationInSec, _startingBid, _highestAllowedBidAmount, _bidIncrement, auction);\n    return auction;\n  }\n\n  function tokensOfOwner(address _owner) external view returns (uint256[]) {\n    uint256 tokenCount = balanceOf(_owner);\n\n    if (tokenCount == 0) {\n      return new uint256[](0);\n    }\n    uint256[] memory result = new uint256[](tokenCount);\n    uint256 currentIndex = 0;\n\n    uint256 artworkIndex;\n\n    for (artworkIndex = 1; artworkIndex <= getTotalSupply(); artworkIndex++) {\n      if (artworkIndexToOwner[artworkIndex] == _owner) {\n        result[currentIndex] = artworkIndex;\n        currentIndex++;\n      }\n    }\n    return result;\n  }\n\n  function balanceOf(address _owner) public view returns (uint256) {\n    require(_owner != address(0));\n    return ownershipTokenCount[_owner];\n  }\n\n  function ownerOf(uint256 _tokenId) public view returns (address) {\n    address owner = artworkIndexToOwner[_tokenId];\n    require(owner != address(0));\n    return owner;\n  }\n\n  function exists(uint256 _tokenId) public view returns (bool) {\n    address owner = artworkIndexToOwner[_tokenId];\n    return owner != address(0);\n  }\n\n function approve(address _to, uint256 _tokenId) public {\n  address owner = ownerOf(_tokenId);\n  require(_to != owner);\n  require(msg.sender == owner || isApprovedForAll(owner, msg.sender));\n  artworkApprovals[_tokenId] = _to;\n  emit Approval(msg.sender, _to, _tokenId);\n }\n\n  function getApproved(uint256 _tokenId) public view returns (address) {\n    return artworkApprovals[_tokenId];\n  }\n\n  function setApprovalForAll(address _to, bool _approved) public {\n    require(_to != msg.sender);\n    operatorApprovals[msg.sender][_to] = _approved;\n    emit ApprovalForAll(msg.sender, _to, _approved);\n  }\n\n  function isApprovedForAll(address _owner, address _operator) public view returns (bool) {\n    return operatorApprovals[_owner][_operator];\n  }\n\n  function transferFrom(address _from, address _to, uint256 _tokenId) public {\n    require(isApprovedOrOwner(msg.sender, _tokenId));\n    require(_from != address(0));\n    require(_to != address(0));\n    clearApproval(_from, _tokenId);\n    removeTokenFrom(_from, _tokenId);\n    addTokenTo(_to, _tokenId);\n    emit Transfer(_from, _to, _tokenId);\n  }\n\n  function safeTransferFrom(address _from, address _to, uint256 _tokenId) public {\n    safeTransferFrom(_from, _to, _tokenId, \"\");\n  }\n  \n  function safeTransferFrom(address _from, address _to, uint256 _tokenId, bytes _data) public {\n    transferFrom(_from, _to, _tokenId);\n    require(checkAndCallSafeTransfer(_from, _to, _tokenId, _data));\n  }\n\n  function isApprovedOrOwner(address _spender, uint _tokenId) internal view returns (bool) {\n    address owner = ownerOf(_tokenId);\n    return (\n      _spender == owner ||\n      getApproved(_tokenId) == _spender ||\n      isApprovedForAll(owner, _spender)\n    );\n  }\n\n  function clearApproval(address _owner, uint _tokenId) internal {\n    require(ownerOf(_tokenId) == _owner);\n    if (artworkApprovals[_tokenId] != address(0)) {\n      artworkApprovals[_tokenId] = address(0);\n    }\n  }\n\n  function addTokenTo(address _to, uint _tokenId) internal {\n    require(artworkIndexToOwner[_tokenId] == address(0));\n    artworkIndexToOwner[_tokenId] = _to;\n    ownershipTokenCount[_to] = ownershipTokenCount[_to].add(1);\n  }\n\n  function removeTokenFrom(address _from, uint _tokenId) internal {\n    require(ownerOf(_tokenId) == _from);\n    ownershipTokenCount[_from] = ownershipTokenCount[_from].sub(1);\n    artworkIndexToOwner[_tokenId] = address(0);\n  }\n\n  function checkAndCallSafeTransfer(address _from, address _to, uint _tokenId, bytes _data) internal returns (bool) {\n    if (!_to.isContract()) {\n      return true;\n    }\n    bytes4 retval = ERC721Receiver(_to).onERC721Received(\n      msg.sender, _from, _tokenId, _data);\n    return (retval == ERC721_RECEIVED);\n  }\n}",
  "sourcePath": "C:\\Users\\User\\Trainings\\SoftUni_BlockChain\\DApp\\DArt\\contracts\\ArtworkOwnership.sol",
  "compiler": {
    "name": "solc",
    "version": "0.4.24+commit.e67f0147.Emscripten.clang"
  },
  "schemaVersion": "2.0.1",
  "updatedAt": "2018-09-28T18:53:26.337Z"
}