{
  "contractName": "ArtworkBase",
  "abi": [
    {
      "constant": true,
      "inputs": [
        {
          "name": "",
          "type": "uint256"
        }
      ],
      "name": "artworks",
      "outputs": [
        {
          "name": "title",
          "type": "string"
        },
        {
          "name": "category",
          "type": "string"
        },
        {
          "name": "artist",
          "type": "string"
        },
        {
          "name": "photoIpfsHash",
          "type": "string"
        },
        {
          "name": "description",
          "type": "string"
        },
        {
          "name": "year",
          "type": "uint16"
        },
        {
          "name": "currentOwner",
          "type": "address"
        }
      ],
      "payable": false,
      "stateMutability": "view",
      "type": "function"
    },
    {
      "constant": true,
      "inputs": [
        {
          "name": "",
          "type": "uint256"
        }
      ],
      "name": "auctions",
      "outputs": [
        {
          "name": "",
          "type": "address"
        }
      ],
      "payable": false,
      "stateMutability": "view",
      "type": "function"
    },
    {
      "constant": false,
      "inputs": [],
      "name": "renounceOwnership",
      "outputs": [],
      "payable": false,
      "stateMutability": "nonpayable",
      "type": "function"
    },
    {
      "constant": true,
      "inputs": [],
      "name": "owner",
      "outputs": [
        {
          "name": "",
          "type": "address"
        }
      ],
      "payable": false,
      "stateMutability": "view",
      "type": "function"
    },
    {
      "constant": false,
      "inputs": [
        {
          "name": "_newOwner",
          "type": "address"
        }
      ],
      "name": "transferOwnership",
      "outputs": [],
      "payable": false,
      "stateMutability": "nonpayable",
      "type": "function"
    },
    {
      "inputs": [],
      "payable": false,
      "stateMutability": "nonpayable",
      "type": "constructor"
    },
    {
      "anonymous": false,
      "inputs": [
        {
          "indexed": false,
          "name": "_creator",
          "type": "address"
        },
        {
          "indexed": false,
          "name": "_tokenId",
          "type": "uint256"
        },
        {
          "indexed": false,
          "name": "_durationInSec",
          "type": "uint256"
        },
        {
          "indexed": false,
          "name": "_startingBid",
          "type": "uint256"
        },
        {
          "indexed": false,
          "name": "_highestAllowedBidAmount",
          "type": "uint256"
        },
        {
          "indexed": false,
          "name": "_bidIncrement",
          "type": "uint256"
        },
        {
          "indexed": false,
          "name": "_auctionAddress",
          "type": "address"
        }
      ],
      "name": "CreateContract",
      "type": "event"
    },
    {
      "anonymous": false,
      "inputs": [
        {
          "indexed": false,
          "name": "_galleryAddress",
          "type": "address"
        },
        {
          "indexed": false,
          "name": "_name",
          "type": "string"
        },
        {
          "indexed": false,
          "name": "_completeAddress",
          "type": "string"
        }
      ],
      "name": "AddGallery",
      "type": "event"
    },
    {
      "anonymous": false,
      "inputs": [
        {
          "indexed": true,
          "name": "previousOwner",
          "type": "address"
        }
      ],
      "name": "OwnershipRenounced",
      "type": "event"
    },
    {
      "anonymous": false,
      "inputs": [
        {
          "indexed": true,
          "name": "previousOwner",
          "type": "address"
        },
        {
          "indexed": true,
          "name": "newOwner",
          "type": "address"
        }
      ],
      "name": "OwnershipTransferred",
      "type": "event"
    },
    {
      "constant": false,
      "inputs": [
        {
          "name": "_galleryAddress",
          "type": "address"
        },
        {
          "name": "_name",
          "type": "string"
        },
        {
          "name": "_completeAddress",
          "type": "string"
        }
      ],
      "name": "addGallery",
      "outputs": [],
      "payable": false,
      "stateMutability": "nonpayable",
      "type": "function"
    },
    {
      "constant": false,
      "inputs": [
        {
          "name": "_title",
          "type": "string"
        },
        {
          "name": "_category",
          "type": "string"
        },
        {
          "name": "_artist",
          "type": "string"
        },
        {
          "name": "_photoIpfsHash",
          "type": "string"
        },
        {
          "name": "_description",
          "type": "string"
        },
        {
          "name": "_year",
          "type": "uint16"
        }
      ],
      "name": "addArtwork",
      "outputs": [
        {
          "name": "",
          "type": "bool"
        }
      ],
      "payable": false,
      "stateMutability": "nonpayable",
      "type": "function"
    },
    {
      "constant": true,
      "inputs": [
        {
          "name": "_tokenId",
          "type": "uint256"
        }
      ],
      "name": "getArtwork",
      "outputs": [
        {
          "name": "",
          "type": "string"
        },
        {
          "name": "",
          "type": "string"
        },
        {
          "name": "",
          "type": "string"
        },
        {
          "name": "",
          "type": "string"
        },
        {
          "name": "",
          "type": "string"
        },
        {
          "name": "",
          "type": "uint16"
        }
      ],
      "payable": false,
      "stateMutability": "view",
      "type": "function"
    },
    {
      "constant": true,
      "inputs": [
        {
          "name": "_tokenId",
          "type": "uint256"
        }
      ],
      "name": "getArtworkOwner",
      "outputs": [
        {
          "name": "",
          "type": "address"
        }
      ],
      "payable": false,
      "stateMutability": "view",
      "type": "function"
    },
    {
      "constant": true,
      "inputs": [],
      "name": "getArtworkCount",
      "outputs": [
        {
          "name": "",
          "type": "uint256"
        }
      ],
      "payable": false,
      "stateMutability": "view",
      "type": "function"
    },
    {
      "constant": true,
      "inputs": [
        {
          "name": "galleryAddress",
          "type": "address"
        }
      ],
      "name": "getGalleryByAddress",
      "outputs": [
        {
          "name": "",
          "type": "string"
        },
        {
          "name": "",
          "type": "string"
        },
        {
          "name": "",
          "type": "uint256"
        }
      ],
      "payable": false,
      "stateMutability": "view",
      "type": "function"
    },
    {
      "constant": true,
      "inputs": [
        {
          "name": "_tokenId",
          "type": "uint256"
        }
      ],
      "name": "getArtworkOwnerHistoryCount",
      "outputs": [
        {
          "name": "",
          "type": "uint256"
        }
      ],
      "payable": false,
      "stateMutability": "view",
      "type": "function"
    }
  ],
  "bytecode": "0x608060405234801561001057600080fd5b50336000806101000a81548173ffffffffffffffffffffffffffffffffffffffff021916908373ffffffffffffffffffffffffffffffffffffffff16021790555033600360006101000a81548173ffffffffffffffffffffffffffffffffffffffff021916908373ffffffffffffffffffffffffffffffffffffffff160217905550612130806100a16000396000f3006080604052600436106100ba576000357c0100000000000000000000000000000000000000000000000000000000900463ffffffff168063167ddf6e146100bf5780632198d39a146103245780633d960ffc1461039157806346b2b5f114610460578063473550411461058f5780634b602673146105d0578063571a26a014610868578063715018a6146108d557806381241384146108ec5780638da5cb5b14610a93578063b58a463014610aea578063f2fde38b14610b15575b600080fd5b3480156100cb57600080fd5b506100ea60048036038101908080359060200190929190505050610b58565b6040518080602001806020018060200180602001806020018761ffff1661ffff16815260200186810386528c818151815260200191508051906020019080838360005b8381101561014857808201518184015260208101905061012d565b50505050905090810190601f1680156101755780820380516001836020036101000a031916815260200191505b5086810385528b818151815260200191508051906020019080838360005b838110156101ae578082015181840152602081019050610193565b50505050905090810190601f1680156101db5780820380516001836020036101000a031916815260200191505b5086810384528a818151815260200191508051906020019080838360005b838110156102145780820151818401526020810190506101f9565b50505050905090810190601f1680156102415780820380516001836020036101000a031916815260200191505b50868103835289818151815260200191508051906020019080838360005b8381101561027a57808201518184015260208101905061025f565b50505050905090810190601f1680156102a75780820380516001836020036101000a031916815260200191505b50868103825288818151815260200191508051906020019080838360005b838110156102e05780820151818401526020810190506102c5565b50505050905090810190601f16801561030d5780820380516001836020036101000a031916815260200191505b509b50505050505050505050505060405180910390f35b34801561033057600080fd5b5061034f60048036038101908080359060200190929190505050610f78565b604051808273ffffffffffffffffffffffffffffffffffffffff1673ffffffffffffffffffffffffffffffffffffffff16815260200191505060405180910390f35b34801561039d57600080fd5b5061045e600480360381019080803573ffffffffffffffffffffffffffffffffffffffff169060200190929190803590602001908201803590602001908080601f0160208091040260200160405190810160405280939291908181526020018383808284378201915050505050509192919290803590602001908201803590602001908080601f0160208091040260200160405190810160405280939291908181526020018383808284378201915050505050509192919290505050610fdb565b005b34801561046c57600080fd5b506104a1600480360381019080803573ffffffffffffffffffffffffffffffffffffffff16906020019092919050505061113c565b604051808060200180602001848152602001838103835286818151815260200191508051906020019080838360005b838110156104eb5780820151818401526020810190506104d0565b50505050905090810190601f1680156105185780820380516001836020036101000a031916815260200191505b50838103825285818151815260200191508051906020019080838360005b83811015610551578082015181840152602081019050610536565b50505050905090810190601f16801561057e5780820380516001836020036101000a031916815260200191505b509550505050505060405180910390f35b34801561059b57600080fd5b506105ba6004803603810190808035906020019092919050505061134d565b6040518082815260200191505060405180910390f35b3480156105dc57600080fd5b506105fb600480360381019080803590602001909291905050506113a0565b6040518080602001806020018060200180602001806020018861ffff1661ffff1681526020018773ffffffffffffffffffffffffffffffffffffffff1673ffffffffffffffffffffffffffffffffffffffff16815260200186810386528d818151815260200191508051906020019080838360005b8381101561068b578082015181840152602081019050610670565b50505050905090810190601f1680156106b85780820380516001836020036101000a031916815260200191505b5086810385528c818151815260200191508051906020019080838360005b838110156106f15780820151818401526020810190506106d6565b50505050905090810190601f16801561071e5780820380516001836020036101000a031916815260200191505b5086810384528b818151815260200191508051906020019080838360005b8381101561075757808201518184015260208101905061073c565b50505050905090810190601f1680156107845780820380516001836020036101000a031916815260200191505b5086810383528a818151815260200191508051906020019080838360005b838110156107bd5780820151818401526020810190506107a2565b50505050905090810190601f1680156107ea5780820380516001836020036101000a031916815260200191505b50868103825289818151815260200191508051906020019080838360005b83811015610823578082015181840152602081019050610808565b50505050905090810190601f1680156108505780820380516001836020036101000a031916815260200191505b509c5050505050505050505050505060405180910390f35b34801561087457600080fd5b5061089360048036038101908080359060200190929190505050611717565b604051808273ffffffffffffffffffffffffffffffffffffffff1673ffffffffffffffffffffffffffffffffffffffff16815260200191505060405180910390f35b3480156108e157600080fd5b506108ea611755565b005b3480156108f857600080fd5b50610a79600480360381019080803590602001908201803590602001908080601f0160208091040260200160405190810160405280939291908181526020018383808284378201915050505050509192919290803590602001908201803590602001908080601f0160208091040260200160405190810160405280939291908181526020018383808284378201915050505050509192919290803590602001908201803590602001908080601f0160208091040260200160405190810160405280939291908181526020018383808284378201915050505050509192919290803590602001908201803590602001908080601f0160208091040260200160405190810160405280939291908181526020018383808284378201915050505050509192919290803590602001908201803590602001908080601f0160208091040260200160405190810160405280939291908181526020018383808284378201915050505050509192919290803561ffff169060200190929190505050611857565b604051808215151515815260200191505060405180910390f35b348015610a9f57600080fd5b50610aa8611d4f565b604051808273ffffffffffffffffffffffffffffffffffffffff1673ffffffffffffffffffffffffffffffffffffffff16815260200191505060405180910390f35b348015610af657600080fd5b50610aff611d74565b6040518082815260200191505060405180910390f35b348015610b2157600080fd5b50610b56600480360381019080803573ffffffffffffffffffffffffffffffffffffffff169060200190929190505050611d81565b005b60608060608060606000866000600180549050118015610b7c575060018054905081105b1515610b8757600080fd5b600188815481101515610b9657fe5b9060005260206000209060070201600001600189815481101515610bb657fe5b906000526020600020906007020160010160018a815481101515610bd657fe5b906000526020600020906007020160020160018b815481101515610bf657fe5b906000526020600020906007020160030160018c815481101515610c1657fe5b906000526020600020906007020160040160018d815481101515610c3657fe5b906000526020600020906007020160050160009054906101000a900461ffff16858054600181600116156101000203166002900480601f016020809104026020016040519081016040528092919081815260200182805460018160011615610100020316600290048015610ceb5780601f10610cc057610100808354040283529160200191610ceb565b820191906000526020600020905b815481529060010190602001808311610cce57829003601f168201915b50505050509550848054600181600116156101000203166002900480601f016020809104026020016040519081016040528092919081815260200182805460018160011615610100020316600290048015610d875780601f10610d5c57610100808354040283529160200191610d87565b820191906000526020600020905b815481529060010190602001808311610d6a57829003601f168201915b50505050509450838054600181600116156101000203166002900480601f016020809104026020016040519081016040528092919081815260200182805460018160011615610100020316600290048015610e235780601f10610df857610100808354040283529160200191610e23565b820191906000526020600020905b815481529060010190602001808311610e0657829003601f168201915b50505050509350828054600181600116156101000203166002900480601f016020809104026020016040519081016040528092919081815260200182805460018160011615610100020316600290048015610ebf5780601f10610e9457610100808354040283529160200191610ebf565b820191906000526020600020905b815481529060010190602001808311610ea257829003601f168201915b50505050509250818054600181600116156101000203166002900480601f016020809104026020016040519081016040528092919081815260200182805460018160011615610100020316600290048015610f5b5780601f10610f3057610100808354040283529160200191610f5b565b820191906000526020600020905b815481529060010190602001808311610f3e57829003601f168201915b505050505091509650965096509650965096505091939550919395565b6000816000600180549050118015610f94575060018054905081105b1515610f9f57600080fd5b6004600084815260200190815260200160002060009054906101000a900473ffffffffffffffffffffffffffffffffffffffff16915050919050565b610fe3611efe565b6000809054906101000a900473ffffffffffffffffffffffffffffffffffffffff1673ffffffffffffffffffffffffffffffffffffffff163373ffffffffffffffffffffffffffffffffffffffff1614151561103e57600080fd5b60a0604051908101604052808481526020018381526020016000815260200160011515815260200160011515815250905080600860008673ffffffffffffffffffffffffffffffffffffffff1673ffffffffffffffffffffffffffffffffffffffff16815260200190815260200160002060008201518160000190805190602001906110cb929190611f32565b5060208201518160010190805190602001906110e8929190611f32565b506040820151816002015560608201518160030160006101000a81548160ff02191690831515021790555060808201518160030160016101000a81548160ff02191690831515021790555090505050505050565b6060806000600860008573ffffffffffffffffffffffffffffffffffffffff1673ffffffffffffffffffffffffffffffffffffffff168152602001908152602001600020600001600860008673ffffffffffffffffffffffffffffffffffffffff1673ffffffffffffffffffffffffffffffffffffffff168152602001908152602001600020600101600860008773ffffffffffffffffffffffffffffffffffffffff1673ffffffffffffffffffffffffffffffffffffffff16815260200190815260200160002060020154828054600181600116156101000203166002900480601f01602080910402602001604051908101604052809291908181526020018280546001816001161561010002031660029004801561129d5780601f106112725761010080835404028352916020019161129d565b820191906000526020600020905b81548152906001019060200180831161128057829003601f168201915b50505050509250818054600181600116156101000203166002900480601f0160208091040260200160405190810160405280929190818152602001828054600181600116156101000203166002900480156113395780601f1061130e57610100808354040283529160200191611339565b820191906000526020600020905b81548152906001019060200180831161131c57829003601f168201915b505050505091509250925092509193909250565b6000816000600180549050118015611369575060018054905081105b151561137457600080fd5b60018381548110151561138357fe5b906000526020600020906007020160060180549050915050919050565b6001818154811015156113af57fe5b9060005260206000209060070201600091509050806000018054600181600116156101000203166002900480601f01602080910402602001604051908101604052809291908181526020018280546001816001161561010002031660029004801561145b5780601f106114305761010080835404028352916020019161145b565b820191906000526020600020905b81548152906001019060200180831161143e57829003601f168201915b505050505090806001018054600181600116156101000203166002900480601f0160208091040260200160405190810160405280929190818152602001828054600181600116156101000203166002900480156114f95780601f106114ce576101008083540402835291602001916114f9565b820191906000526020600020905b8154815290600101906020018083116114dc57829003601f168201915b505050505090806002018054600181600116156101000203166002900480601f0160208091040260200160405190810160405280929190818152602001828054600181600116156101000203166002900480156115975780601f1061156c57610100808354040283529160200191611597565b820191906000526020600020905b81548152906001019060200180831161157a57829003601f168201915b505050505090806003018054600181600116156101000203166002900480601f0160208091040260200160405190810160405280929190818152602001828054600181600116156101000203166002900480156116355780601f1061160a57610100808354040283529160200191611635565b820191906000526020600020905b81548152906001019060200180831161161857829003601f168201915b505050505090806004018054600181600116156101000203166002900480601f0160208091040260200160405190810160405280929190818152602001828054600181600116156101000203166002900480156116d35780601f106116a8576101008083540402835291602001916116d3565b820191906000526020600020905b8154815290600101906020018083116116b657829003601f168201915b5050505050908060050160009054906101000a900461ffff16908060050160029054906101000a900473ffffffffffffffffffffffffffffffffffffffff16905087565b60028181548110151561172657fe5b906000526020600020016000915054906101000a900473ffffffffffffffffffffffffffffffffffffffff1681565b6000809054906101000a900473ffffffffffffffffffffffffffffffffffffffff1673ffffffffffffffffffffffffffffffffffffffff163373ffffffffffffffffffffffffffffffffffffffff161415156117b057600080fd5b6000809054906101000a900473ffffffffffffffffffffffffffffffffffffffff1673ffffffffffffffffffffffffffffffffffffffff167ff8df31144d9c2f0f6b59d69b8b98abd5459d07f2742c4df920b25aae33c6482060405160405180910390a260008060006101000a81548173ffffffffffffffffffffffffffffffffffffffff021916908373ffffffffffffffffffffffffffffffffffffffff160217905550565b6000611861611fb2565b6000600860003373ffffffffffffffffffffffffffffffffffffffff1673ffffffffffffffffffffffffffffffffffffffff16815260200190815260200160002060030160009054906101000a900460ff1615156118be57600080fd5b610100604051908101604052808a81526020018981526020018881526020018781526020018681526020018561ffff1681526020013373ffffffffffffffffffffffffffffffffffffffff168152602001600060405190808252806020026020018201604052801561193f5781602001602082028038833980820191505090505b50815250915060018083908060018154018082558091505090600182039060005260206000209060070201600090919290919091506000820151816000019080519060200190611990929190611f32565b5060208201518160010190805190602001906119ad929190611f32565b5060408201518160020190805190602001906119ca929190611f32565b5060608201518160030190805190602001906119e7929190611f32565b506080820151816004019080519060200190611a04929190611f32565b5060a08201518160050160006101000a81548161ffff021916908361ffff16021790555060c08201518160050160026101000a81548173ffffffffffffffffffffffffffffffffffffffff021916908373ffffffffffffffffffffffffffffffffffffffff16021790555060e0820151816006019080519060200190611a8b929190612012565b505050039050336004600083815260200190815260200160002060006101000a81548173ffffffffffffffffffffffffffffffffffffffff021916908373ffffffffffffffffffffffffffffffffffffffff160217905550611b366001600560003373ffffffffffffffffffffffffffffffffffffffff1673ffffffffffffffffffffffffffffffffffffffff16815260200190815260200160002054611de890919063ffffffff16565b600560003373ffffffffffffffffffffffffffffffffffffffff1673ffffffffffffffffffffffffffffffffffffffff168152602001908152602001600020819055506009886040518082805190602001908083835b602083101515611bb15780518252602082019150602081019050602083039250611b8c565b6001836020036101000a0380198251168184511680821785525050505050509050019150509081526020016040518091039020819080600181540180825580915050906001820390600052602060002001600090919290919091505550600a876040518082805190602001908083835b602083101515611c465780518252602082019150602081019050602083039250611c21565b6001836020036101000a0380198251168184511680821785525050505050509050019150509081526020016040518091039020819080600181540180825580915050906001820390600052602060002001600090919290919091505550611cf96001600860003373ffffffffffffffffffffffffffffffffffffffff1673ffffffffffffffffffffffffffffffffffffffff16815260200190815260200160002060020154611de890919063ffffffff16565b600860003373ffffffffffffffffffffffffffffffffffffffff1673ffffffffffffffffffffffffffffffffffffffff168152602001908152602001600020600201819055506001925050509695505050505050565b6000809054906101000a900473ffffffffffffffffffffffffffffffffffffffff1681565b6000600180549050905090565b6000809054906101000a900473ffffffffffffffffffffffffffffffffffffffff1673ffffffffffffffffffffffffffffffffffffffff163373ffffffffffffffffffffffffffffffffffffffff16141515611ddc57600080fd5b611de581611e04565b50565b60008183019050828110151515611dfb57fe5b80905092915050565b600073ffffffffffffffffffffffffffffffffffffffff168173ffffffffffffffffffffffffffffffffffffffff1614151515611e4057600080fd5b8073ffffffffffffffffffffffffffffffffffffffff166000809054906101000a900473ffffffffffffffffffffffffffffffffffffffff1673ffffffffffffffffffffffffffffffffffffffff167f8be0079c531659141344cd1fd0a4f28419497f9722a3daafe3b4186f6b6457e060405160405180910390a3806000806101000a81548173ffffffffffffffffffffffffffffffffffffffff021916908373ffffffffffffffffffffffffffffffffffffffff16021790555050565b60a0604051908101604052806060815260200160608152602001600081526020016000151581526020016000151581525090565b828054600181600116156101000203166002900490600052602060002090601f016020900481019282601f10611f7357805160ff1916838001178555611fa1565b82800160010185558215611fa1579182015b82811115611fa0578251825591602001919060010190611f85565b5b509050611fae919061209c565b5090565b610100604051908101604052806060815260200160608152602001606081526020016060815260200160608152602001600061ffff168152602001600073ffffffffffffffffffffffffffffffffffffffff168152602001606081525090565b82805482825590600052602060002090810192821561208b579160200282015b8281111561208a5782518260006101000a81548173ffffffffffffffffffffffffffffffffffffffff021916908373ffffffffffffffffffffffffffffffffffffffff16021790555091602001919060010190612032565b5b50905061209891906120c1565b5090565b6120be91905b808211156120ba5760008160009055506001016120a2565b5090565b90565b61210191905b808211156120fd57600081816101000a81549073ffffffffffffffffffffffffffffffffffffffff0219169055506001016120c7565b5090565b905600a165627a7a723058205d358d1ce4935f65d690928e49bc16050dc5dfb0bd8b356dfb36dea7f02184100029",
  "source": "pragma solidity ^0.4.24;\n\nimport '../node_modules/zeppelin-solidity/contracts/ownership/Ownable.sol';\nimport '../node_modules/zeppelin-solidity/contracts/math/SafeMath.sol';\n\ncontract ArtworkBase is Ownable {\n\n  using SafeMath for uint;\n\n  event CreateContract(address _creator, uint _tokenId, uint _durationInSec, uint _startingBid, uint _highestAllowedBidAmount, uint _bidIncrement, address _auctionAddress);\n\n  struct Artwork {\n    string title;\n    string category;\n    string artist;\n    string photoIpfsHash;\n    string description;\n    uint16 year;\n    address currentOwner;\n    address[] ownerHistory;\n    // uint32 usdPrice;\n  }\n\n  struct Gallery {\n    string name;\n    string completeAddress;\n    uint artworkCount;\n    bool canAddArtwork;\n    bool canCreateAuction;\n  }\n\n  Artwork[] public artworks;\n  address[] public auctions;\n\n  address private owner;\n\n  mapping (uint => address) internal artworkIndexToOwner;\n  mapping (address => uint) internal ownershipTokenCount;\n  mapping (uint => address) internal artworkApprovals;\n  mapping (address => mapping (address => bool)) internal operatorApprovals;\n  \n  mapping (address => Gallery) internal galleries;\n  mapping (string => uint[]) categoryToArtIndexes;\n  mapping (string => uint[]) artistToArtIndexes;\n\n  // uint private artAvailableIndex;\n\n  event AddGallery(address _galleryAddress, string _name, string _completeAddress);\n\n  constructor () public {\n    owner = msg.sender;\n  }\n\n  modifier canAddArtwork() {\n    require(galleries[msg.sender].canAddArtwork);\n    _;\n  }\n\n  modifier canCreateAuction() {\n    require(galleries[msg.sender].canCreateAuction);\n    _;\n  }\n\n  modifier isOwnerOfToken(uint _tokenId) {\n    require(msg.sender == artworkIndexToOwner[_tokenId]);\n    _;\n  }\n\n  modifier isArtworkExists(uint _tokenId) {\n    require(artworks.length > 0 && _tokenId < artworks.length);\n    _;\n  }\n\n  function addGallery(address _galleryAddress, string _name, string _completeAddress) public onlyOwner {\n    Gallery memory gallery = Gallery({\n      name: _name,\n      completeAddress: _completeAddress,\n      artworkCount: 0,\n      canAddArtwork: true,\n      canCreateAuction: true\n    });\n    galleries[_galleryAddress] = gallery;\n  }\n\n  function addArtwork(string _title, string _category, string _artist, string _photoIpfsHash, string _description, uint16 _year) public canAddArtwork returns (bool) {\n    Artwork memory artwork = Artwork({\n      title: _title,\n      category: _category,\n      artist: _artist,\n      photoIpfsHash: _photoIpfsHash,\n      description: _description,\n      year: _year,\n      currentOwner: msg.sender,\n      ownerHistory: new address[](0)\n      });\n    uint index = artworks.push(artwork) - 1;\n    artworkIndexToOwner[index] = msg.sender;\n    ownershipTokenCount[msg.sender] = ownershipTokenCount[msg.sender].add(1);\n    categoryToArtIndexes[_category].push(index);\n    artistToArtIndexes[_artist].push(index);\n    galleries[msg.sender].artworkCount = galleries[msg.sender].artworkCount.add(1);\n    return true;\n  }\n\n  function getArtwork(uint _tokenId) public view isArtworkExists(_tokenId) returns (string, string, string, string, string, uint16) {\n    return (\n      artworks[_tokenId].title,\n      artworks[_tokenId].category,\n      artworks[_tokenId].artist,\n      artworks[_tokenId].photoIpfsHash,\n      artworks[_tokenId].description,\n      artworks[_tokenId].year\n    );\n  }\n\n  function getArtworkOwner(uint _tokenId) public view isArtworkExists(_tokenId) returns (address) {\n    return artworkIndexToOwner[_tokenId];\n  }\n\n  function getArtworkCount() public view returns (uint) {\n    return artworks.length;\n  }\n\n  function getGalleryByAddress(address galleryAddress) public view returns (string, string, uint) {\n    return (\n      galleries[galleryAddress].name,\n      galleries[galleryAddress].completeAddress,\n      galleries[galleryAddress].artworkCount\n    );\n  }\n\n  function getArtworkOwnerHistoryCount(uint _tokenId) public view isArtworkExists(_tokenId) returns (uint) {\n    return artworks[_tokenId].ownerHistory.length;\n  }\n}",
  "sourcePath": "C:\\Users\\User\\Trainings\\SoftUni_BlockChain\\DApp\\DArt\\contracts\\ArtworkBase.sol",
  "compiler": {
    "name": "solc",
    "version": "0.4.24+commit.e67f0147.Emscripten.clang"
  },
  "schemaVersion": "2.0.1",
  "updatedAt": "2018-09-26T05:03:30.817Z"
}