{
  "contractName": "ArtworkBase",
  "abi": [
    {
      "constant": true,
      "inputs": [
        {
          "name": "",
          "type": "uint256"
        }
      ],
      "name": "artworks",
      "outputs": [
        {
          "name": "title",
          "type": "string"
        },
        {
          "name": "category",
          "type": "string"
        },
        {
          "name": "artist",
          "type": "string"
        },
        {
          "name": "photoIpfsHash",
          "type": "string"
        },
        {
          "name": "description",
          "type": "string"
        },
        {
          "name": "year",
          "type": "uint16"
        },
        {
          "name": "currentOwner",
          "type": "address"
        }
      ],
      "payable": false,
      "stateMutability": "view",
      "type": "function"
    },
    {
      "constant": false,
      "inputs": [],
      "name": "renounceOwnership",
      "outputs": [],
      "payable": false,
      "stateMutability": "nonpayable",
      "type": "function"
    },
    {
      "constant": true,
      "inputs": [],
      "name": "owner",
      "outputs": [
        {
          "name": "",
          "type": "address"
        }
      ],
      "payable": false,
      "stateMutability": "view",
      "type": "function"
    },
    {
      "constant": false,
      "inputs": [
        {
          "name": "_newOwner",
          "type": "address"
        }
      ],
      "name": "transferOwnership",
      "outputs": [],
      "payable": false,
      "stateMutability": "nonpayable",
      "type": "function"
    },
    {
      "inputs": [],
      "payable": false,
      "stateMutability": "nonpayable",
      "type": "constructor"
    },
    {
      "anonymous": false,
      "inputs": [
        {
          "indexed": false,
          "name": "_galleryAddress",
          "type": "address"
        },
        {
          "indexed": false,
          "name": "_name",
          "type": "string"
        },
        {
          "indexed": false,
          "name": "_completeAddress",
          "type": "string"
        }
      ],
      "name": "AddGallery",
      "type": "event"
    },
    {
      "anonymous": false,
      "inputs": [
        {
          "indexed": true,
          "name": "previousOwner",
          "type": "address"
        }
      ],
      "name": "OwnershipRenounced",
      "type": "event"
    },
    {
      "anonymous": false,
      "inputs": [
        {
          "indexed": true,
          "name": "previousOwner",
          "type": "address"
        },
        {
          "indexed": true,
          "name": "newOwner",
          "type": "address"
        }
      ],
      "name": "OwnershipTransferred",
      "type": "event"
    },
    {
      "constant": false,
      "inputs": [
        {
          "name": "_galleryAddress",
          "type": "address"
        },
        {
          "name": "_name",
          "type": "string"
        },
        {
          "name": "_completeAddress",
          "type": "string"
        }
      ],
      "name": "addGallery",
      "outputs": [],
      "payable": false,
      "stateMutability": "nonpayable",
      "type": "function"
    },
    {
      "constant": false,
      "inputs": [
        {
          "name": "_title",
          "type": "string"
        },
        {
          "name": "_category",
          "type": "string"
        },
        {
          "name": "_artist",
          "type": "string"
        },
        {
          "name": "_photoIpfsHash",
          "type": "string"
        },
        {
          "name": "_description",
          "type": "string"
        },
        {
          "name": "_year",
          "type": "uint16"
        }
      ],
      "name": "addArtwork",
      "outputs": [
        {
          "name": "",
          "type": "bool"
        }
      ],
      "payable": false,
      "stateMutability": "nonpayable",
      "type": "function"
    },
    {
      "constant": true,
      "inputs": [
        {
          "name": "_index",
          "type": "uint256"
        }
      ],
      "name": "getArtwork",
      "outputs": [
        {
          "name": "",
          "type": "string"
        },
        {
          "name": "",
          "type": "string"
        },
        {
          "name": "",
          "type": "string"
        },
        {
          "name": "",
          "type": "string"
        },
        {
          "name": "",
          "type": "string"
        },
        {
          "name": "",
          "type": "uint16"
        }
      ],
      "payable": false,
      "stateMutability": "view",
      "type": "function"
    },
    {
      "constant": true,
      "inputs": [],
      "name": "getArtworkCount",
      "outputs": [
        {
          "name": "",
          "type": "uint256"
        }
      ],
      "payable": false,
      "stateMutability": "view",
      "type": "function"
    },
    {
      "constant": true,
      "inputs": [
        {
          "name": "galleryAddress",
          "type": "address"
        }
      ],
      "name": "getGalleryByAddress",
      "outputs": [
        {
          "name": "",
          "type": "string"
        },
        {
          "name": "",
          "type": "string"
        },
        {
          "name": "",
          "type": "uint256"
        }
      ],
      "payable": false,
      "stateMutability": "view",
      "type": "function"
    },
    {
      "constant": true,
      "inputs": [
        {
          "name": "_index",
          "type": "uint256"
        }
      ],
      "name": "getArtworkOwnerHistoryCount",
      "outputs": [
        {
          "name": "",
          "type": "uint256"
        }
      ],
      "payable": false,
      "stateMutability": "view",
      "type": "function"
    }
  ],
  "bytecode": "0x608060405234801561001057600080fd5b50336000806101000a81548173ffffffffffffffffffffffffffffffffffffffff021916908373ffffffffffffffffffffffffffffffffffffffff16021790555033600260006101000a81548173ffffffffffffffffffffffffffffffffffffffff021916908373ffffffffffffffffffffffffffffffffffffffff160217905550611e41806100a16000396000f3006080604052600436106100a4576000357c0100000000000000000000000000000000000000000000000000000000900463ffffffff168063167ddf6e146100a95780633d960ffc1461030e57806346b2b5f1146103dd578063473550411461050c5780634b6026731461054d578063715018a6146107e557806381241384146107fc5780638da5cb5b146109a3578063b58a4630146109fa578063f2fde38b14610a25575b600080fd5b3480156100b557600080fd5b506100d460048036038101908080359060200190929190505050610a68565b6040518080602001806020018060200180602001806020018761ffff1661ffff16815260200186810386528c818151815260200191508051906020019080838360005b83811015610132578082015181840152602081019050610117565b50505050905090810190601f16801561015f5780820380516001836020036101000a031916815260200191505b5086810385528b818151815260200191508051906020019080838360005b8381101561019857808201518184015260208101905061017d565b50505050905090810190601f1680156101c55780820380516001836020036101000a031916815260200191505b5086810384528a818151815260200191508051906020019080838360005b838110156101fe5780820151818401526020810190506101e3565b50505050905090810190601f16801561022b5780820380516001836020036101000a031916815260200191505b50868103835289818151815260200191508051906020019080838360005b83811015610264578082015181840152602081019050610249565b50505050905090810190601f1680156102915780820380516001836020036101000a031916815260200191505b50868103825288818151815260200191508051906020019080838360005b838110156102ca5780820151818401526020810190506102af565b50505050905090810190601f1680156102f75780820380516001836020036101000a031916815260200191505b509b50505050505050505050505060405180910390f35b34801561031a57600080fd5b506103db600480360381019080803573ffffffffffffffffffffffffffffffffffffffff169060200190929190803590602001908201803590602001908080601f0160208091040260200160405190810160405280939291908181526020018383808284378201915050505050509192919290803590602001908201803590602001908080601f0160208091040260200160405190810160405280939291908181526020018383808284378201915050505050509192919290505050610e88565b005b3480156103e957600080fd5b5061041e600480360381019080803573ffffffffffffffffffffffffffffffffffffffff169060200190929190505050610fc0565b604051808060200180602001848152602001838103835286818151815260200191508051906020019080838360005b8381101561046857808201518184015260208101905061044d565b50505050905090810190601f1680156104955780820380516001836020036101000a031916815260200191505b50838103825285818151815260200191508051906020019080838360005b838110156104ce5780820151818401526020810190506104b3565b50505050905090810190601f1680156104fb5780820380516001836020036101000a031916815260200191505b509550505050505060405180910390f35b34801561051857600080fd5b50610537600480360381019080803590602001909291905050506111d1565b6040518082815260200191505060405180910390f35b34801561055957600080fd5b5061057860048036038101908080359060200190929190505050611224565b6040518080602001806020018060200180602001806020018861ffff1661ffff1681526020018773ffffffffffffffffffffffffffffffffffffffff1673ffffffffffffffffffffffffffffffffffffffff16815260200186810386528d818151815260200191508051906020019080838360005b838110156106085780820151818401526020810190506105ed565b50505050905090810190601f1680156106355780820380516001836020036101000a031916815260200191505b5086810385528c818151815260200191508051906020019080838360005b8381101561066e578082015181840152602081019050610653565b50505050905090810190601f16801561069b5780820380516001836020036101000a031916815260200191505b5086810384528b818151815260200191508051906020019080838360005b838110156106d45780820151818401526020810190506106b9565b50505050905090810190601f1680156107015780820380516001836020036101000a031916815260200191505b5086810383528a818151815260200191508051906020019080838360005b8381101561073a57808201518184015260208101905061071f565b50505050905090810190601f1680156107675780820380516001836020036101000a031916815260200191505b50868103825289818151815260200191508051906020019080838360005b838110156107a0578082015181840152602081019050610785565b50505050905090810190601f1680156107cd5780820380516001836020036101000a031916815260200191505b509c5050505050505050505050505060405180910390f35b3480156107f157600080fd5b506107fa61159b565b005b34801561080857600080fd5b50610989600480360381019080803590602001908201803590602001908080601f0160208091040260200160405190810160405280939291908181526020018383808284378201915050505050509192919290803590602001908201803590602001908080601f0160208091040260200160405190810160405280939291908181526020018383808284378201915050505050509192919290803590602001908201803590602001908080601f0160208091040260200160405190810160405280939291908181526020018383808284378201915050505050509192919290803590602001908201803590602001908080601f0160208091040260200160405190810160405280939291908181526020018383808284378201915050505050509192919290803590602001908201803590602001908080601f0160208091040260200160405190810160405280939291908181526020018383808284378201915050505050509192919290803561ffff16906020019092919050505061169d565b604051808215151515815260200191505060405180910390f35b3480156109af57600080fd5b506109b8611a69565b604051808273ffffffffffffffffffffffffffffffffffffffff1673ffffffffffffffffffffffffffffffffffffffff16815260200191505060405180910390f35b348015610a0657600080fd5b50610a0f611a8e565b6040518082815260200191505060405180910390f35b348015610a3157600080fd5b50610a66600480360381019080803573ffffffffffffffffffffffffffffffffffffffff169060200190929190505050611a9b565b005b60608060608060606000866000600180549050118015610a8c575060018054905081105b1515610a9757600080fd5b600188815481101515610aa657fe5b9060005260206000209060070201600001600189815481101515610ac657fe5b906000526020600020906007020160010160018a815481101515610ae657fe5b906000526020600020906007020160020160018b815481101515610b0657fe5b906000526020600020906007020160030160018c815481101515610b2657fe5b906000526020600020906007020160040160018d815481101515610b4657fe5b906000526020600020906007020160050160009054906101000a900461ffff16858054600181600116156101000203166002900480601f016020809104026020016040519081016040528092919081815260200182805460018160011615610100020316600290048015610bfb5780601f10610bd057610100808354040283529160200191610bfb565b820191906000526020600020905b815481529060010190602001808311610bde57829003601f168201915b50505050509550848054600181600116156101000203166002900480601f016020809104026020016040519081016040528092919081815260200182805460018160011615610100020316600290048015610c975780601f10610c6c57610100808354040283529160200191610c97565b820191906000526020600020905b815481529060010190602001808311610c7a57829003601f168201915b50505050509450838054600181600116156101000203166002900480601f016020809104026020016040519081016040528092919081815260200182805460018160011615610100020316600290048015610d335780601f10610d0857610100808354040283529160200191610d33565b820191906000526020600020905b815481529060010190602001808311610d1657829003601f168201915b50505050509350828054600181600116156101000203166002900480601f016020809104026020016040519081016040528092919081815260200182805460018160011615610100020316600290048015610dcf5780601f10610da457610100808354040283529160200191610dcf565b820191906000526020600020905b815481529060010190602001808311610db257829003601f168201915b50505050509250818054600181600116156101000203166002900480601f016020809104026020016040519081016040528092919081815260200182805460018160011615610100020316600290048015610e6b5780601f10610e4057610100808354040283529160200191610e6b565b820191906000526020600020905b815481529060010190602001808311610e4e57829003601f168201915b505050505091509650965096509650965096505091939550919395565b610e90611c18565b6000809054906101000a900473ffffffffffffffffffffffffffffffffffffffff1673ffffffffffffffffffffffffffffffffffffffff163373ffffffffffffffffffffffffffffffffffffffff16141515610eeb57600080fd5b6080604051908101604052808481526020018381526020016000815260200160011515815250905080600760008673ffffffffffffffffffffffffffffffffffffffff1673ffffffffffffffffffffffffffffffffffffffff1681526020019081526020016000206000820151816000019080519060200190610f6f929190611c43565b506020820151816001019080519060200190610f8c929190611c43565b506040820151816002015560608201518160030160006101000a81548160ff02191690831515021790555090505050505050565b6060806000600760008573ffffffffffffffffffffffffffffffffffffffff1673ffffffffffffffffffffffffffffffffffffffff168152602001908152602001600020600001600760008673ffffffffffffffffffffffffffffffffffffffff1673ffffffffffffffffffffffffffffffffffffffff168152602001908152602001600020600101600760008773ffffffffffffffffffffffffffffffffffffffff1673ffffffffffffffffffffffffffffffffffffffff16815260200190815260200160002060020154828054600181600116156101000203166002900480601f0160208091040260200160405190810160405280929190818152602001828054600181600116156101000203166002900480156111215780601f106110f657610100808354040283529160200191611121565b820191906000526020600020905b81548152906001019060200180831161110457829003601f168201915b50505050509250818054600181600116156101000203166002900480601f0160208091040260200160405190810160405280929190818152602001828054600181600116156101000203166002900480156111bd5780601f10611192576101008083540402835291602001916111bd565b820191906000526020600020905b8154815290600101906020018083116111a057829003601f168201915b505050505091509250925092509193909250565b60008160006001805490501180156111ed575060018054905081105b15156111f857600080fd5b60018381548110151561120757fe5b906000526020600020906007020160060180549050915050919050565b60018181548110151561123357fe5b9060005260206000209060070201600091509050806000018054600181600116156101000203166002900480601f0160208091040260200160405190810160405280929190818152602001828054600181600116156101000203166002900480156112df5780601f106112b4576101008083540402835291602001916112df565b820191906000526020600020905b8154815290600101906020018083116112c257829003601f168201915b505050505090806001018054600181600116156101000203166002900480601f01602080910402602001604051908101604052809291908181526020018280546001816001161561010002031660029004801561137d5780601f106113525761010080835404028352916020019161137d565b820191906000526020600020905b81548152906001019060200180831161136057829003601f168201915b505050505090806002018054600181600116156101000203166002900480601f01602080910402602001604051908101604052809291908181526020018280546001816001161561010002031660029004801561141b5780601f106113f05761010080835404028352916020019161141b565b820191906000526020600020905b8154815290600101906020018083116113fe57829003601f168201915b505050505090806003018054600181600116156101000203166002900480601f0160208091040260200160405190810160405280929190818152602001828054600181600116156101000203166002900480156114b95780601f1061148e576101008083540402835291602001916114b9565b820191906000526020600020905b81548152906001019060200180831161149c57829003601f168201915b505050505090806004018054600181600116156101000203166002900480601f0160208091040260200160405190810160405280929190818152602001828054600181600116156101000203166002900480156115575780601f1061152c57610100808354040283529160200191611557565b820191906000526020600020905b81548152906001019060200180831161153a57829003601f168201915b5050505050908060050160009054906101000a900461ffff16908060050160029054906101000a900473ffffffffffffffffffffffffffffffffffffffff16905087565b6000809054906101000a900473ffffffffffffffffffffffffffffffffffffffff1673ffffffffffffffffffffffffffffffffffffffff163373ffffffffffffffffffffffffffffffffffffffff161415156115f657600080fd5b6000809054906101000a900473ffffffffffffffffffffffffffffffffffffffff1673ffffffffffffffffffffffffffffffffffffffff167ff8df31144d9c2f0f6b59d69b8b98abd5459d07f2742c4df920b25aae33c6482060405160405180910390a260008060006101000a81548173ffffffffffffffffffffffffffffffffffffffff021916908373ffffffffffffffffffffffffffffffffffffffff160217905550565b60006116a7611cc3565b6000600760003373ffffffffffffffffffffffffffffffffffffffff1673ffffffffffffffffffffffffffffffffffffffff16815260200190815260200160002060030160009054906101000a900460ff16151561170457600080fd5b610100604051908101604052808a81526020018981526020018881526020018781526020018681526020018561ffff1681526020013373ffffffffffffffffffffffffffffffffffffffff16815260200160006040519080825280602002602001820160405280156117855781602001602082028038833980820191505090505b5081525091506001829080600181540180825580915050906001820390600052602060002090600702016000909192909190915060008201518160000190805190602001906117d5929190611c43565b5060208201518160010190805190602001906117f2929190611c43565b50604082015181600201908051906020019061180f929190611c43565b50606082015181600301908051906020019061182c929190611c43565b506080820151816004019080519060200190611849929190611c43565b5060a08201518160050160006101000a81548161ffff021916908361ffff16021790555060c08201518160050160026101000a81548173ffffffffffffffffffffffffffffffffffffffff021916908373ffffffffffffffffffffffffffffffffffffffff16021790555060e08201518160060190805190602001906118d0929190611d23565b5050509050336003600083815260200190815260200160002060006101000a81548173ffffffffffffffffffffffffffffffffffffffff021916908373ffffffffffffffffffffffffffffffffffffffff16021790555061197a6001600460003373ffffffffffffffffffffffffffffffffffffffff1673ffffffffffffffffffffffffffffffffffffffff16815260200190815260200160002054611b0290919063ffffffff16565b600460003373ffffffffffffffffffffffffffffffffffffffff1673ffffffffffffffffffffffffffffffffffffffff16815260200190815260200160002081905550611a136001600760003373ffffffffffffffffffffffffffffffffffffffff1673ffffffffffffffffffffffffffffffffffffffff16815260200190815260200160002060020154611b0290919063ffffffff16565b600760003373ffffffffffffffffffffffffffffffffffffffff1673ffffffffffffffffffffffffffffffffffffffff168152602001908152602001600020600201819055506001925050509695505050505050565b6000809054906101000a900473ffffffffffffffffffffffffffffffffffffffff1681565b6000600180549050905090565b6000809054906101000a900473ffffffffffffffffffffffffffffffffffffffff1673ffffffffffffffffffffffffffffffffffffffff163373ffffffffffffffffffffffffffffffffffffffff16141515611af657600080fd5b611aff81611b1e565b50565b60008183019050828110151515611b1557fe5b80905092915050565b600073ffffffffffffffffffffffffffffffffffffffff168173ffffffffffffffffffffffffffffffffffffffff1614151515611b5a57600080fd5b8073ffffffffffffffffffffffffffffffffffffffff166000809054906101000a900473ffffffffffffffffffffffffffffffffffffffff1673ffffffffffffffffffffffffffffffffffffffff167f8be0079c531659141344cd1fd0a4f28419497f9722a3daafe3b4186f6b6457e060405160405180910390a3806000806101000a81548173ffffffffffffffffffffffffffffffffffffffff021916908373ffffffffffffffffffffffffffffffffffffffff16021790555050565b6080604051908101604052806060815260200160608152602001600081526020016000151581525090565b828054600181600116156101000203166002900490600052602060002090601f016020900481019282601f10611c8457805160ff1916838001178555611cb2565b82800160010185558215611cb2579182015b82811115611cb1578251825591602001919060010190611c96565b5b509050611cbf9190611dad565b5090565b610100604051908101604052806060815260200160608152602001606081526020016060815260200160608152602001600061ffff168152602001600073ffffffffffffffffffffffffffffffffffffffff168152602001606081525090565b828054828255906000526020600020908101928215611d9c579160200282015b82811115611d9b5782518260006101000a81548173ffffffffffffffffffffffffffffffffffffffff021916908373ffffffffffffffffffffffffffffffffffffffff16021790555091602001919060010190611d43565b5b509050611da99190611dd2565b5090565b611dcf91905b80821115611dcb576000816000905550600101611db3565b5090565b90565b611e1291905b80821115611e0e57600081816101000a81549073ffffffffffffffffffffffffffffffffffffffff021916905550600101611dd8565b5090565b905600a165627a7a72305820a3d76f3e05fc7fca744225f153594796e79bc331c42ebc3cea54c9b7ac1c8a120029",
  "source": "pragma solidity ^0.4.24;\n\nimport '../node_modules/zeppelin-solidity/contracts/ownership/Ownable.sol';\nimport '../node_modules/zeppelin-solidity/contracts/math/SafeMath.sol';\n// import './SafeMath.sol';\n// import './Ownable.sol';\n\ncontract ArtworkBase is Ownable {\n\n  using SafeMath for uint;\n  // using SafeMath for uint16;\n\n  struct Artwork {\n    string title;\n    string category;\n    string artist;\n    string photoIpfsHash;\n    string description;\n    uint16 year;\n    address currentOwner;\n    address[] ownerHistory;\n    // uint32 usdPrice;\n  }\n\n  struct Gallery {\n    string name;\n    string completeAddress;\n    uint artworkCount;\n    bool canAddArtwork;\n  }\n\n  Artwork[] public artworks;\n\n  address private owner;\n\n  mapping (uint => address) internal artworkIndexToOwner;\n  mapping (address => uint) internal ownershipTokenCount;\n  mapping (uint => address) internal artworkApprovals;\n  mapping (address => mapping (address => bool)) internal operatorApprovals;\n  \n  mapping (address => Gallery) private galleries;\n  // mapping (string => uint[]) public categoryToArtIndexes;\n  // mapping (string => uint[]) public artistToArtIndexes;\n\n  // uint private artAvailableIndex;\n\n  event AddGallery(address _galleryAddress, string _name, string _completeAddress);\n\n  constructor () public {\n    owner = msg.sender;\n  }\n\n  modifier canAddArtwork() {\n    require(galleries[msg.sender].canAddArtwork);\n    _;\n  }\n\n  modifier isArtworkExists(uint _index) {\n    require(artworks.length > 0 && _index < artworks.length);\n    _;\n  }\n\n  function addGallery(address _galleryAddress, string _name, string _completeAddress) public onlyOwner {\n    Gallery memory gallery = Gallery(_name, _completeAddress, 0, true);\n    galleries[_galleryAddress] = gallery;\n  }\n\n  function addArtwork(string _title, string _category, string _artist, string _photoIpfsHash, string _description, uint16 _year) public canAddArtwork returns (bool) {\n    Artwork memory artwork = Artwork({\n      title: _title,\n      category: _category,\n      artist: _artist,\n      photoIpfsHash: _photoIpfsHash,\n      description: _description,\n      year: _year,\n      currentOwner: msg.sender,\n      ownerHistory: new address[](0)\n      });\n    uint index = artworks.push(artwork);\n    artworkIndexToOwner[index] = msg.sender;\n    ownershipTokenCount[msg.sender] = ownershipTokenCount[msg.sender].add(1);\n    // categoryToArtIndexes[_category].push(index);\n    // artistToArtIndexes[_artist].push(index);\n    galleries[msg.sender].artworkCount = galleries[msg.sender].artworkCount.add(1);\n    return true;\n  }\n\n  function getArtwork(uint _index) public view isArtworkExists(_index) returns (string, string, string, string, string, uint16) {\n    return (\n      artworks[_index].title,\n      artworks[_index].category,\n      artworks[_index].artist,\n      artworks[_index].photoIpfsHash,\n      artworks[_index].description,\n      artworks[_index].year\n    );\n  }\n\n  function getArtworkCount() public view returns (uint) {\n    return artworks.length;\n  }\n\n  function getGalleryByAddress(address galleryAddress) public view returns (string, string, uint) {\n    return (\n      galleries[galleryAddress].name,\n      galleries[galleryAddress].completeAddress,\n      galleries[galleryAddress].artworkCount\n    );\n  }\n\n  function getArtworkOwnerHistoryCount(uint _index) public view isArtworkExists(_index) returns (uint) {\n    return artworks[_index].ownerHistory.length;\n  }\n}",
  "sourcePath": "C:\\Users\\User\\Trainings\\SoftUni_BlockChain\\DApp\\DArt\\contracts\\ArtworkBase.sol",
  "compiler": {
    "name": "solc",
    "version": "0.4.24+commit.e67f0147.Emscripten.clang"
  },
  "schemaVersion": "2.0.1",
  "updatedAt": "2018-09-22T05:14:54.388Z"
}