{
  "contractName": "Auction",
  "abi": [
    {
      "constant": true,
      "inputs": [],
      "name": "startDate",
      "outputs": [
        {
          "name": "",
          "type": "uint256"
        }
      ],
      "payable": false,
      "stateMutability": "view",
      "type": "function"
    },
    {
      "constant": true,
      "inputs": [],
      "name": "hasOwnerWithdrawn",
      "outputs": [
        {
          "name": "",
          "type": "bool"
        }
      ],
      "payable": false,
      "stateMutability": "view",
      "type": "function"
    },
    {
      "constant": true,
      "inputs": [],
      "name": "tokenId",
      "outputs": [
        {
          "name": "",
          "type": "uint256"
        }
      ],
      "payable": false,
      "stateMutability": "view",
      "type": "function"
    },
    {
      "constant": true,
      "inputs": [],
      "name": "nfc",
      "outputs": [
        {
          "name": "",
          "type": "address"
        }
      ],
      "payable": false,
      "stateMutability": "view",
      "type": "function"
    },
    {
      "constant": true,
      "inputs": [],
      "name": "owner",
      "outputs": [
        {
          "name": "",
          "type": "address"
        }
      ],
      "payable": false,
      "stateMutability": "view",
      "type": "function"
    },
    {
      "constant": true,
      "inputs": [],
      "name": "highestBidder",
      "outputs": [
        {
          "name": "",
          "type": "address"
        }
      ],
      "payable": false,
      "stateMutability": "view",
      "type": "function"
    },
    {
      "constant": true,
      "inputs": [],
      "name": "isCancelled",
      "outputs": [
        {
          "name": "",
          "type": "bool"
        }
      ],
      "payable": false,
      "stateMutability": "view",
      "type": "function"
    },
    {
      "constant": true,
      "inputs": [],
      "name": "bidIncrement",
      "outputs": [
        {
          "name": "",
          "type": "uint256"
        }
      ],
      "payable": false,
      "stateMutability": "view",
      "type": "function"
    },
    {
      "constant": true,
      "inputs": [],
      "name": "startingBid",
      "outputs": [
        {
          "name": "",
          "type": "uint256"
        }
      ],
      "payable": false,
      "stateMutability": "view",
      "type": "function"
    },
    {
      "constant": true,
      "inputs": [],
      "name": "endDate",
      "outputs": [
        {
          "name": "",
          "type": "uint256"
        }
      ],
      "payable": false,
      "stateMutability": "view",
      "type": "function"
    },
    {
      "constant": true,
      "inputs": [],
      "name": "highestAllowedBidAmount",
      "outputs": [
        {
          "name": "",
          "type": "uint256"
        }
      ],
      "payable": false,
      "stateMutability": "view",
      "type": "function"
    },
    {
      "inputs": [
        {
          "name": "_tokenId",
          "type": "uint256"
        },
        {
          "name": "_gallery",
          "type": "address"
        },
        {
          "name": "_durationInSec",
          "type": "uint256"
        },
        {
          "name": "_startingBid",
          "type": "uint256"
        },
        {
          "name": "_highestAllowedBidAmount",
          "type": "uint256"
        },
        {
          "name": "_bidIncrement",
          "type": "uint256"
        },
        {
          "name": "_nfc",
          "type": "address"
        }
      ],
      "payable": false,
      "stateMutability": "nonpayable",
      "type": "constructor"
    },
    {
      "anonymous": false,
      "inputs": [
        {
          "indexed": false,
          "name": "_from",
          "type": "address"
        },
        {
          "indexed": false,
          "name": "_to",
          "type": "address"
        },
        {
          "indexed": false,
          "name": "_tokenId",
          "type": "uint256"
        }
      ],
      "name": "TransferTokenOwnership",
      "type": "event"
    },
    {
      "anonymous": false,
      "inputs": [
        {
          "indexed": true,
          "name": "_bidder",
          "type": "address"
        },
        {
          "indexed": false,
          "name": "_incrementAmount",
          "type": "uint256"
        },
        {
          "indexed": false,
          "name": "totalAmount",
          "type": "uint256"
        }
      ],
      "name": "PlaceBid",
      "type": "event"
    },
    {
      "anonymous": false,
      "inputs": [
        {
          "indexed": true,
          "name": "_user",
          "type": "address"
        },
        {
          "indexed": false,
          "name": "_amount",
          "type": "uint256"
        }
      ],
      "name": "Withdraw",
      "type": "event"
    },
    {
      "constant": true,
      "inputs": [],
      "name": "getTimeRemaining",
      "outputs": [
        {
          "name": "",
          "type": "uint256"
        }
      ],
      "payable": false,
      "stateMutability": "view",
      "type": "function"
    },
    {
      "constant": true,
      "inputs": [],
      "name": "getHighestBid",
      "outputs": [
        {
          "name": "",
          "type": "uint256"
        }
      ],
      "payable": false,
      "stateMutability": "view",
      "type": "function"
    },
    {
      "constant": false,
      "inputs": [],
      "name": "placeBid",
      "outputs": [],
      "payable": true,
      "stateMutability": "payable",
      "type": "function"
    },
    {
      "constant": true,
      "inputs": [],
      "name": "getWinner",
      "outputs": [
        {
          "name": "",
          "type": "address"
        },
        {
          "name": "",
          "type": "uint256"
        }
      ],
      "payable": false,
      "stateMutability": "view",
      "type": "function"
    },
    {
      "constant": true,
      "inputs": [
        {
          "name": "_bidder",
          "type": "address"
        }
      ],
      "name": "getTotalBidByAddress",
      "outputs": [
        {
          "name": "",
          "type": "uint256"
        }
      ],
      "payable": false,
      "stateMutability": "view",
      "type": "function"
    },
    {
      "constant": true,
      "inputs": [
        {
          "name": "_userAddress",
          "type": "address"
        }
      ],
      "name": "isUserSubscribed",
      "outputs": [
        {
          "name": "",
          "type": "bool"
        }
      ],
      "payable": false,
      "stateMutability": "view",
      "type": "function"
    },
    {
      "constant": false,
      "inputs": [],
      "name": "withdraw",
      "outputs": [
        {
          "name": "",
          "type": "bool"
        }
      ],
      "payable": true,
      "stateMutability": "payable",
      "type": "function"
    },
    {
      "constant": false,
      "inputs": [],
      "name": "cancel",
      "outputs": [],
      "payable": false,
      "stateMutability": "nonpayable",
      "type": "function"
    },
    {
      "constant": false,
      "inputs": [],
      "name": "transferToken",
      "outputs": [],
      "payable": false,
      "stateMutability": "nonpayable",
      "type": "function"
    },
    {
      "constant": true,
      "inputs": [],
      "name": "hasEnded",
      "outputs": [
        {
          "name": "",
          "type": "bool"
        }
      ],
      "payable": false,
      "stateMutability": "view",
      "type": "function"
    }
  ],
  "bytecode": "0x608060405234801561001057600080fd5b5060405160e0806116c583398101806040528101908080519060200190929190805190602001909291908051906020019092919080519060200190929190805190602001909291908051906020019092919080519060200190929190505050806000806101000a81548173ffffffffffffffffffffffffffffffffffffffff021916908373ffffffffffffffffffffffffffffffffffffffff16021790555033600160006101000a81548173ffffffffffffffffffffffffffffffffffffffff021916908373ffffffffffffffffffffffffffffffffffffffff1602179055504260028190555061011985600254610188640100000000026114ca179091906401000000009004565b6003819055508660068190555085600160006101000a81548173ffffffffffffffffffffffffffffffffffffffff021916908373ffffffffffffffffffffffffffffffffffffffff160217905550836004819055508260078190555081600581905550505050505050506101a4565b6000818301905082811015151561019b57fe5b80905092915050565b611512806101b36000396000f30060806040526004361061011d576000357c0100000000000000000000000000000000000000000000000000000000900463ffffffff1680630b97bc8614610122578063166034a31461014d57806317d70f7c1461017c5780633ccfd60b146101a75780633f8c8244146101c95780634979440a14610220578063799a53591461024b5780638da5cb5b146102625780638e7ea5b2146102b957806391f901571461031757806395ee12211461036e578063abf0eb501461039d578063b3cc167a146103f8578063b9fdd56914610423578063c24a0f8b1461044e578063ce5e0ddb14610479578063dac6270d146104d0578063ea8a1af0146104fb578063ecb70fb714610512578063ecfc7ecc14610541578063fa2473961461054b575b600080fd5b34801561012e57600080fd5b50610137610576565b6040518082815260200191505060405180910390f35b34801561015957600080fd5b5061016261057c565b604051808215151515815260200191505060405180910390f35b34801561018857600080fd5b5061019161058f565b6040518082815260200191505060405180910390f35b6101af610595565b604051808215151515815260200191505060405180910390f35b3480156101d557600080fd5b506101de610a70565b604051808273ffffffffffffffffffffffffffffffffffffffff1673ffffffffffffffffffffffffffffffffffffffff16815260200191505060405180910390f35b34801561022c57600080fd5b50610235610a95565b6040518082815260200191505060405180910390f35b34801561025757600080fd5b50610260610afe565b005b34801561026e57600080fd5b50610277610d0f565b604051808273ffffffffffffffffffffffffffffffffffffffff1673ffffffffffffffffffffffffffffffffffffffff16815260200191505060405180910390f35b3480156102c557600080fd5b506102ce610d35565b604051808373ffffffffffffffffffffffffffffffffffffffff1673ffffffffffffffffffffffffffffffffffffffff1681526020018281526020019250505060405180910390f35b34801561032357600080fd5b5061032c610df1565b604051808273ffffffffffffffffffffffffffffffffffffffff1673ffffffffffffffffffffffffffffffffffffffff16815260200191505060405180910390f35b34801561037a57600080fd5b50610383610e17565b604051808215151515815260200191505060405180910390f35b3480156103a957600080fd5b506103de600480360381019080803573ffffffffffffffffffffffffffffffffffffffff169060200190929190505050610e2a565b604051808215151515815260200191505060405180910390f35b34801561040457600080fd5b5061040d610ece565b6040518082815260200191505060405180910390f35b34801561042f57600080fd5b50610438610ed4565b6040518082815260200191505060405180910390f35b34801561045a57600080fd5b50610463610eda565b6040518082815260200191505060405180910390f35b34801561048557600080fd5b506104ba600480360381019080803573ffffffffffffffffffffffffffffffffffffffff169060200190929190505050610ee0565b6040518082815260200191505060405180910390f35b3480156104dc57600080fd5b506104e5610f29565b6040518082815260200191505060405180910390f35b34801561050757600080fd5b50610510610f49565b005b34801561051e57600080fd5b50610527611155565b604051808215151515815260200191505060405180910390f35b610549611162565b005b34801561055757600080fd5b50610560611481565b6040518082815260200191505060405180910390f35b60025481565b600860009054906101000a900460ff1681565b60065481565b600061059f611155565b15156105aa57600080fd5b600160009054906101000a900473ffffffffffffffffffffffffffffffffffffffff1673ffffffffffffffffffffffffffffffffffffffff163373ffffffffffffffffffffffffffffffffffffffff1614801561060c575061060a611487565b155b1561062d576001600860006101000a81548160ff0219169083151502179055505b610635611487565b151561064057600080fd5b3373ffffffffffffffffffffffffffffffffffffffff16600860029054906101000a900473ffffffffffffffffffffffffffffffffffffffff1673ffffffffffffffffffffffffffffffffffffffff161415151561069d57600080fd5b600160009054906101000a900473ffffffffffffffffffffffffffffffffffffffff1673ffffffffffffffffffffffffffffffffffffffff163373ffffffffffffffffffffffffffffffffffffffff161480156107075750600860009054906101000a900460ff16155b1561091057600160009054906101000a900473ffffffffffffffffffffffffffffffffffffffff1673ffffffffffffffffffffffffffffffffffffffff166108fc60096000600860029054906101000a900473ffffffffffffffffffffffffffffffffffffffff1673ffffffffffffffffffffffffffffffffffffffff1673ffffffffffffffffffffffffffffffffffffffff168152602001908152602001600020549081150290604051600060405180830381858888f193505050501580156107d5573d6000803e3d6000fd5b50600060096000600860029054906101000a900473ffffffffffffffffffffffffffffffffffffffff1673ffffffffffffffffffffffffffffffffffffffff1673ffffffffffffffffffffffffffffffffffffffff168152602001908152602001600020819055506001600860006101000a81548160ff0219169083151502179055503373ffffffffffffffffffffffffffffffffffffffff167f884edad9ce6fa2440d8a54cc123490eb96d2768479d49ff9c7366125a942436460096000600860029054906101000a900473ffffffffffffffffffffffffffffffffffffffff1673ffffffffffffffffffffffffffffffffffffffff1673ffffffffffffffffffffffffffffffffffffffff168152602001908152602001600020546040518082815260200191505060405180910390a260019050610a6d565b3373ffffffffffffffffffffffffffffffffffffffff166108fc600960003373ffffffffffffffffffffffffffffffffffffffff1673ffffffffffffffffffffffffffffffffffffffff168152602001908152602001600020549081150290604051600060405180830381858888f19350505050158015610995573d6000803e3d6000fd5b506000600960003373ffffffffffffffffffffffffffffffffffffffff1673ffffffffffffffffffffffffffffffffffffffff168152602001908152602001600020819055503373ffffffffffffffffffffffffffffffffffffffff167f884edad9ce6fa2440d8a54cc123490eb96d2768479d49ff9c7366125a9424364600960003373ffffffffffffffffffffffffffffffffffffffff1673ffffffffffffffffffffffffffffffffffffffff168152602001908152602001600020546040518082815260200191505060405180910390a2600190505b90565b6000809054906101000a900473ffffffffffffffffffffffffffffffffffffffff1681565b600060096000600860029054906101000a900473ffffffffffffffffffffffffffffffffffffffff1673ffffffffffffffffffffffffffffffffffffffff1673ffffffffffffffffffffffffffffffffffffffff16815260200190815260200160002054905090565b6000600860029054906101000a900473ffffffffffffffffffffffffffffffffffffffff169050610b2d611487565b1515610b5957600160009054906101000a900473ffffffffffffffffffffffffffffffffffffffff1690505b7f45460b687880bc387518917b7b2f038276df3129fdea2e03690b3f59239b8ec23082600654604051808473ffffffffffffffffffffffffffffffffffffffff1673ffffffffffffffffffffffffffffffffffffffff1681526020018373ffffffffffffffffffffffffffffffffffffffff1673ffffffffffffffffffffffffffffffffffffffff168152602001828152602001935050505060405180910390a16000809054906101000a900473ffffffffffffffffffffffffffffffffffffffff1673ffffffffffffffffffffffffffffffffffffffff166323b872dd30836006546040518463ffffffff167c0100000000000000000000000000000000000000000000000000000000028152600401808473ffffffffffffffffffffffffffffffffffffffff1673ffffffffffffffffffffffffffffffffffffffff1681526020018373ffffffffffffffffffffffffffffffffffffffff1673ffffffffffffffffffffffffffffffffffffffff1681526020018281526020019350505050600060405180830381600087803b158015610cf457600080fd5b505af1158015610d08573d6000803e3d6000fd5b5050505050565b600160009054906101000a900473ffffffffffffffffffffffffffffffffffffffff1681565b600080610d40611155565b8015610d595750600860019054906101000a900460ff16155b1515610d6457600080fd5b600860029054906101000a900473ffffffffffffffffffffffffffffffffffffffff1660096000600860029054906101000a900473ffffffffffffffffffffffffffffffffffffffff1673ffffffffffffffffffffffffffffffffffffffff1673ffffffffffffffffffffffffffffffffffffffff16815260200190815260200160002054915091509091565b600860029054906101000a900473ffffffffffffffffffffffffffffffffffffffff1681565b600860019054906101000a900460ff1681565b6000600160009054906101000a900473ffffffffffffffffffffffffffffffffffffffff1673ffffffffffffffffffffffffffffffffffffffff168273ffffffffffffffffffffffffffffffffffffffff161480610ec757506000600960008473ffffffffffffffffffffffffffffffffffffffff1673ffffffffffffffffffffffffffffffffffffffff16815260200190815260200160002054115b9050919050565b60055481565b60045481565b60035481565b6000600960008373ffffffffffffffffffffffffffffffffffffffff1673ffffffffffffffffffffffffffffffffffffffff168152602001908152602001600020549050919050565b6000600354421115610f3e5760009050610f46565b426003540390505b90565b600160009054906101000a900473ffffffffffffffffffffffffffffffffffffffff1673ffffffffffffffffffffffffffffffffffffffff163373ffffffffffffffffffffffffffffffffffffffff16141515610fa557600080fd5b6000610faf610f29565b111515610fbb57600080fd5b6000809054906101000a900473ffffffffffffffffffffffffffffffffffffffff1673ffffffffffffffffffffffffffffffffffffffff166323b872dd30600160009054906101000a900473ffffffffffffffffffffffffffffffffffffffff166006546040518463ffffffff167c0100000000000000000000000000000000000000000000000000000000028152600401808473ffffffffffffffffffffffffffffffffffffffff1673ffffffffffffffffffffffffffffffffffffffff1681526020018373ffffffffffffffffffffffffffffffffffffffff1673ffffffffffffffffffffffffffffffffffffffff1681526020018281526020019350505050600060405180830381600087803b1580156110d757600080fd5b505af11580156110eb573d6000803e3d6000fd5b505050506000600860026101000a81548173ffffffffffffffffffffffffffffffffffffffff021916908373ffffffffffffffffffffffffffffffffffffffff160217905550426003819055506001600860016101000a81548160ff021916908315150217905550565b6000600354421015905090565b600061116c610f29565b11151561117857600080fd5b60006111cc34600960003373ffffffffffffffffffffffffffffffffffffffff1673ffffffffffffffffffffffffffffffffffffffff168152602001908152602001600020546114ca90919063ffffffff16565b90506000600860029054906101000a900473ffffffffffffffffffffffffffffffffffffffff1673ffffffffffffffffffffffffffffffffffffffff16141561122157600454811015151561122057600080fd5b5b61129760055460096000600860029054906101000a900473ffffffffffffffffffffffffffffffffffffffff1673ffffffffffffffffffffffffffffffffffffffff1673ffffffffffffffffffffffffffffffffffffffff168152602001908152602001600020546114ca90919063ffffffff16565b81101515156112a557600080fd5b60075481111515156112b657600080fd5b600160009054906101000a900473ffffffffffffffffffffffffffffffffffffffff1673ffffffffffffffffffffffffffffffffffffffff163373ffffffffffffffffffffffffffffffffffffffff161415151561131357600080fd5b33600860026101000a81548173ffffffffffffffffffffffffffffffffffffffff021916908373ffffffffffffffffffffffffffffffffffffffff1602179055506113a634600960003373ffffffffffffffffffffffffffffffffffffffff1673ffffffffffffffffffffffffffffffffffffffff168152602001908152602001600020546114ca90919063ffffffff16565b600960003373ffffffffffffffffffffffffffffffffffffffff1673ffffffffffffffffffffffffffffffffffffffff168152602001908152602001600020819055503373ffffffffffffffffffffffffffffffffffffffff167fea602cde4e1d0ea7d2d2404223fa40af5db611461db974bf307e94352d6eabb534600960003373ffffffffffffffffffffffffffffffffffffffff1673ffffffffffffffffffffffffffffffffffffffff16815260200190815260200160002054604051808381526020018281526020019250505060405180910390a250565b60075481565b600080600860029054906101000a900473ffffffffffffffffffffffffffffffffffffffff1673ffffffffffffffffffffffffffffffffffffffff161415905090565b600081830190508281101515156114dd57fe5b809050929150505600a165627a7a72305820744db04b20bf06f95734c7685573ce9696b8215c3af5761e43aac5d6adc5ce9a0029",
  "source": "pragma solidity ^0.4.24;\n\nimport './ArtworkBase.sol';\nimport '../node_modules/zeppelin-solidity/contracts/math/SafeMath.sol';\nimport '../node_modules/zeppelin-solidity/contracts/ownership/Ownable.sol';\nimport '../node_modules/zeppelin-solidity/contracts/token/ERC721/ERC721Basic.sol';\n\ncontract Auction {\n  using SafeMath for uint;\n\n  event TransferTokenOwnership(address _from, address _to, uint _tokenId);\n  event PlaceBid(address indexed _bidder, uint _incrementAmount, uint totalAmount);\n  event Withdraw(address indexed _user, uint _amount);\n\n  ERC721Basic public nfc;\n  address public owner;\n  uint public startDate;\n  uint public endDate;\n  uint public startingBid;\n  uint public bidIncrement;\n  uint public tokenId;\n  uint public highestAllowedBidAmount;\n  bool public hasOwnerWithdrawn;\n  bool public isCancelled;\n  address public highestBidder;\n  mapping (address => uint) bidderToAmount;\n\n  modifier onlyOwner() {\n    require(msg.sender == owner);\n    _;\n  }\n\n  modifier onlyNotEnded() {\n    require(getTimeRemaining() > 0);\n    _;\n  }\n\n  modifier onlyNotOwner() {\n    require(msg.sender != owner);\n    _;\n  }\n\n  modifier onlyValidBid() {\n    uint currentBid = bidderToAmount[msg.sender].add(msg.value);\n    if (highestBidder == 0x0) require(currentBid >= startingBid);\n    require(currentBid >= bidderToAmount[highestBidder].add(bidIncrement));\n    require(currentBid <= highestAllowedBidAmount);\n    _;\n  }\n\n  constructor (uint _tokenId, address _gallery, uint _durationInSec, uint _startingBid, uint _highestAllowedBidAmount, uint _bidIncrement, address _nfc) public {\n    nfc = ERC721Basic(_nfc);\n    owner = msg.sender;\n    startDate = now;\n    endDate = startDate.add(_durationInSec);\n    tokenId = _tokenId;\n    owner = _gallery;\n    startingBid = _startingBid;\n    highestAllowedBidAmount = _highestAllowedBidAmount;\n    bidIncrement = _bidIncrement;\n  }\n\n  function getTimeRemaining() public view returns (uint) {\n    if (now > endDate) return 0;\n    return endDate - now;\n  }\n\n  function getHighestBid() public view returns (uint) {\n    return bidderToAmount[highestBidder];\n  }\n\n  function placeBid() public payable onlyNotEnded onlyValidBid onlyNotOwner {\n    highestBidder = msg.sender;\n    bidderToAmount[msg.sender] = bidderToAmount[msg.sender].add(msg.value);\n    emit PlaceBid(msg.sender, msg.value, bidderToAmount[msg.sender]);\n  }\n\n  function getWinner() external view returns (address, uint) {\n    require(hasEnded() && !isCancelled);\n    return (\n      highestBidder,\n      bidderToAmount[highestBidder]\n    );\n  }\n\n  function getTotalBidByAddress(address _bidder) external view returns (uint) {\n    return bidderToAmount[_bidder];\n  }\n\n  function isUserSubscribed(address _userAddress) external view returns (bool) {\n    return _userAddress == owner || bidderToAmount[_userAddress] > 0;\n  }\n\n  function withdraw() external payable returns (bool) {\n    require(hasEnded());\n    if (msg.sender == owner && !_hasBidder()) {\n      hasOwnerWithdrawn = true;\n    }\n    require(_hasBidder());\n    require(highestBidder != msg.sender);\n    if (msg.sender == owner && !hasOwnerWithdrawn) {\n      owner.transfer(bidderToAmount[highestBidder]);\n      bidderToAmount[highestBidder] = 0;\n      hasOwnerWithdrawn = true;\n      emit Withdraw(msg.sender, bidderToAmount[highestBidder]);\n      return true;\n    } else {\n      msg.sender.transfer(bidderToAmount[msg.sender]);\n      bidderToAmount[msg.sender] = 0;\n      emit Withdraw(msg.sender, bidderToAmount[msg.sender]);\n      return true;\n    }\n    return false;\n  }\n\n  function cancel() public onlyOwner onlyNotEnded {\n    nfc.transferFrom(this, owner, tokenId);\n    highestBidder = 0x0;\n    endDate = now;\n    isCancelled = true;\n  }\n\n  function transferToken() public {\n    address to = highestBidder;\n    if (!_hasBidder()) {\n      to = owner;\n    }\n    emit TransferTokenOwnership(this, to, tokenId);\n    nfc.transferFrom(address(this), to, tokenId);\n  }\n\n  function _hasBidder() private view returns (bool) {\n    return highestBidder != 0x0;\n  }\n\n  function hasEnded() public view returns (bool) {\n    return now >= endDate;\n  }\n}",
  "sourcePath": "C:\\Users\\User\\Trainings\\SoftUni_BlockChain\\DApp\\DArt\\contracts\\Auction.sol",
  "compiler": {
    "name": "solc",
    "version": "0.4.24+commit.e67f0147.Emscripten.clang"
  },
  "schemaVersion": "2.0.1",
  "updatedAt": "2018-09-29T17:27:19.899Z"
}