{
  "contractName": "Auction",
  "abi": [
    {
      "constant": true,
      "inputs": [],
      "name": "startDate",
      "outputs": [
        {
          "name": "",
          "type": "uint256"
        }
      ],
      "payable": false,
      "stateMutability": "view",
      "type": "function"
    },
    {
      "constant": true,
      "inputs": [],
      "name": "artworkIndex",
      "outputs": [
        {
          "name": "",
          "type": "uint256"
        }
      ],
      "payable": false,
      "stateMutability": "view",
      "type": "function"
    },
    {
      "constant": true,
      "inputs": [],
      "name": "hasOwnerWithdrawn",
      "outputs": [
        {
          "name": "",
          "type": "bool"
        }
      ],
      "payable": false,
      "stateMutability": "view",
      "type": "function"
    },
    {
      "constant": true,
      "inputs": [],
      "name": "owner",
      "outputs": [
        {
          "name": "",
          "type": "address"
        }
      ],
      "payable": false,
      "stateMutability": "view",
      "type": "function"
    },
    {
      "constant": true,
      "inputs": [],
      "name": "highestBidder",
      "outputs": [
        {
          "name": "",
          "type": "address"
        }
      ],
      "payable": false,
      "stateMutability": "view",
      "type": "function"
    },
    {
      "constant": true,
      "inputs": [],
      "name": "bidIncrement",
      "outputs": [
        {
          "name": "",
          "type": "uint256"
        }
      ],
      "payable": false,
      "stateMutability": "view",
      "type": "function"
    },
    {
      "constant": true,
      "inputs": [],
      "name": "startingBid",
      "outputs": [
        {
          "name": "",
          "type": "uint256"
        }
      ],
      "payable": false,
      "stateMutability": "view",
      "type": "function"
    },
    {
      "constant": true,
      "inputs": [],
      "name": "endDate",
      "outputs": [
        {
          "name": "",
          "type": "uint256"
        }
      ],
      "payable": false,
      "stateMutability": "view",
      "type": "function"
    },
    {
      "constant": true,
      "inputs": [],
      "name": "highestAllowedBidAmount",
      "outputs": [
        {
          "name": "",
          "type": "uint256"
        }
      ],
      "payable": false,
      "stateMutability": "view",
      "type": "function"
    },
    {
      "inputs": [
        {
          "name": "_durationInSec",
          "type": "uint256"
        },
        {
          "name": "_artworkIndex",
          "type": "uint256"
        },
        {
          "name": "_startingBid",
          "type": "uint256"
        },
        {
          "name": "_highestAllowedBidAmount",
          "type": "uint256"
        },
        {
          "name": "_bidIncrement",
          "type": "uint256"
        }
      ],
      "payable": false,
      "stateMutability": "nonpayable",
      "type": "constructor"
    },
    {
      "constant": true,
      "inputs": [],
      "name": "getTimeRemaining",
      "outputs": [
        {
          "name": "",
          "type": "uint256"
        }
      ],
      "payable": false,
      "stateMutability": "view",
      "type": "function"
    },
    {
      "constant": true,
      "inputs": [],
      "name": "getHighestBid",
      "outputs": [
        {
          "name": "",
          "type": "uint256"
        }
      ],
      "payable": false,
      "stateMutability": "view",
      "type": "function"
    },
    {
      "constant": false,
      "inputs": [],
      "name": "placeBid",
      "outputs": [],
      "payable": true,
      "stateMutability": "payable",
      "type": "function"
    },
    {
      "constant": true,
      "inputs": [],
      "name": "getWinner",
      "outputs": [
        {
          "name": "",
          "type": "address"
        },
        {
          "name": "",
          "type": "uint256"
        }
      ],
      "payable": false,
      "stateMutability": "view",
      "type": "function"
    },
    {
      "constant": false,
      "inputs": [],
      "name": "withdraw",
      "outputs": [
        {
          "name": "",
          "type": "bool"
        }
      ],
      "payable": true,
      "stateMutability": "payable",
      "type": "function"
    }
  ],
  "bytecode": "0x608060405234801561001057600080fd5b5060405160a080610c458339810180604052810190808051906020019092919080519060200190929190805190602001909291908051906020019092919080519060200190929190505050336000806101000a81548173ffffffffffffffffffffffffffffffffffffffff021916908373ffffffffffffffffffffffffffffffffffffffff160217905550426001819055506100c4856001546100f064010000000002610ae2179091906401000000009004565b60028190555083600581905550826003819055508160068190555080600481905550505050505061010c565b6000818301905082811015151561010357fe5b80905092915050565b610b2a8061011b6000396000f3006080604052600436106100d0576000357c0100000000000000000000000000000000000000000000000000000000900463ffffffff1680630b97bc86146100d557806311ed1bf614610100578063166034a31461012b5780633ccfd60b1461015a5780634979440a1461017c5780638da5cb5b146101a75780638e7ea5b2146101fe57806391f901571461025c578063b3cc167a146102b3578063b9fdd569146102de578063c24a0f8b14610309578063dac6270d14610334578063ecfc7ecc1461035f578063fa24739614610369575b600080fd5b3480156100e157600080fd5b506100ea610394565b6040518082815260200191505060405180910390f35b34801561010c57600080fd5b5061011561039a565b6040518082815260200191505060405180910390f35b34801561013757600080fd5b506101406103a0565b604051808215151515815260200191505060405180910390f35b6101626103b3565b604051808215151515815260200191505060405180910390f35b34801561018857600080fd5b506101916106b8565b6040518082815260200191505060405180910390f35b3480156101b357600080fd5b506101bc610721565b604051808273ffffffffffffffffffffffffffffffffffffffff1673ffffffffffffffffffffffffffffffffffffffff16815260200191505060405180910390f35b34801561020a57600080fd5b50610213610746565b604051808373ffffffffffffffffffffffffffffffffffffffff1673ffffffffffffffffffffffffffffffffffffffff1681526020018281526020019250505060405180910390f35b34801561026857600080fd5b506102716107e7565b604051808273ffffffffffffffffffffffffffffffffffffffff1673ffffffffffffffffffffffffffffffffffffffff16815260200191505060405180910390f35b3480156102bf57600080fd5b506102c861080d565b6040518082815260200191505060405180910390f35b3480156102ea57600080fd5b506102f3610813565b6040518082815260200191505060405180910390f35b34801561031557600080fd5b5061031e610819565b6040518082815260200191505060405180910390f35b34801561034057600080fd5b5061034961081f565b6040518082815260200191505060405180910390f35b61036761084c565b005b34801561037557600080fd5b5061037e610adc565b6040518082815260200191505060405180910390f35b60015481565b60055481565b600760009054906101000a900460ff1681565b600060025442101515156103c657600080fd5b3373ffffffffffffffffffffffffffffffffffffffff16600760019054906101000a900473ffffffffffffffffffffffffffffffffffffffff1673ffffffffffffffffffffffffffffffffffffffff161415151561042357600080fd5b6000809054906101000a900473ffffffffffffffffffffffffffffffffffffffff1673ffffffffffffffffffffffffffffffffffffffff163373ffffffffffffffffffffffffffffffffffffffff1614801561048c5750600760009054906101000a900460ff16155b156105e5576000809054906101000a900473ffffffffffffffffffffffffffffffffffffffff1673ffffffffffffffffffffffffffffffffffffffff166108fc60086000600760019054906101000a900473ffffffffffffffffffffffffffffffffffffffff1673ffffffffffffffffffffffffffffffffffffffff1673ffffffffffffffffffffffffffffffffffffffff168152602001908152602001600020549081150290604051600060405180830381858888f19350505050158015610559573d6000803e3d6000fd5b50600060086000600760019054906101000a900473ffffffffffffffffffffffffffffffffffffffff1673ffffffffffffffffffffffffffffffffffffffff1673ffffffffffffffffffffffffffffffffffffffff168152602001908152602001600020819055506001600760006101000a81548160ff021916908315150217905550600190506106b5565b3373ffffffffffffffffffffffffffffffffffffffff166108fc600860003373ffffffffffffffffffffffffffffffffffffffff1673ffffffffffffffffffffffffffffffffffffffff168152602001908152602001600020549081150290604051600060405180830381858888f1935050505015801561066a573d6000803e3d6000fd5b506000600860003373ffffffffffffffffffffffffffffffffffffffff1673ffffffffffffffffffffffffffffffffffffffff16815260200190815260200160002081905550600190505b90565b600060086000600760019054906101000a900473ffffffffffffffffffffffffffffffffffffffff1673ffffffffffffffffffffffffffffffffffffffff1673ffffffffffffffffffffffffffffffffffffffff16815260200190815260200160002054905090565b6000809054906101000a900473ffffffffffffffffffffffffffffffffffffffff1681565b600080600254421015151561075a57600080fd5b600760019054906101000a900473ffffffffffffffffffffffffffffffffffffffff1660086000600760019054906101000a900473ffffffffffffffffffffffffffffffffffffffff1673ffffffffffffffffffffffffffffffffffffffff1673ffffffffffffffffffffffffffffffffffffffff16815260200190815260200160002054915091509091565b600760019054906101000a900473ffffffffffffffffffffffffffffffffffffffff1681565b60045481565b60035481565b60025481565b600042600254108015610833575060015442115b151561083e57600080fd5b426001546002540301905090565b4260025410801561085e575060015442115b151561086957600080fd5b60006108bd34600860003373ffffffffffffffffffffffffffffffffffffffff1673ffffffffffffffffffffffffffffffffffffffff16815260200190815260200160002054610ae290919063ffffffff16565b90506000600760019054906101000a900473ffffffffffffffffffffffffffffffffffffffff1673ffffffffffffffffffffffffffffffffffffffff16141561091257600354811015151561091157600080fd5b5b61098860045460086000600760019054906101000a900473ffffffffffffffffffffffffffffffffffffffff1673ffffffffffffffffffffffffffffffffffffffff1673ffffffffffffffffffffffffffffffffffffffff16815260200190815260200160002054610ae290919063ffffffff16565b811015151561099657600080fd5b60065481111515156109a757600080fd5b6000809054906101000a900473ffffffffffffffffffffffffffffffffffffffff1673ffffffffffffffffffffffffffffffffffffffff163373ffffffffffffffffffffffffffffffffffffffff1614151515610a0357600080fd5b33600760016101000a81548173ffffffffffffffffffffffffffffffffffffffff021916908373ffffffffffffffffffffffffffffffffffffffff160217905550610a9634600860003373ffffffffffffffffffffffffffffffffffffffff1673ffffffffffffffffffffffffffffffffffffffff16815260200190815260200160002054610ae290919063ffffffff16565b600860003373ffffffffffffffffffffffffffffffffffffffff1673ffffffffffffffffffffffffffffffffffffffff1681526020019081526020016000208190555050565b60065481565b60008183019050828110151515610af557fe5b809050929150505600a165627a7a723058205fff2bb624384f62c4f57d3583ca0284c21fdae05b35cf87635928a6cd7d50cc0029",
  "source": "pragma solidity ^0.4.24;\n\nimport './ArtworkBase.sol';\nimport '../node_modules/zeppelin-solidity/contracts/math/SafeMath.sol';\n\ncontract Auction {\n  using SafeMath for uint;\n\n  address public owner;\n  uint public startDate;\n  uint public endDate;\n  uint public startingBid;\n  uint public bidIncrement;\n  uint public artworkIndex;\n  uint public highestAllowedBidAmount;\n  bool public hasOwnerWithdrawn;\n  address public highestBidder;\n  mapping (address => uint) bidderToAmount;\n\n  modifier onlyNotEnded() {\n    require(endDate < now && now > startDate);\n    _;\n  }\n\n  modifier onlyEnded() {\n    require(now >= endDate);\n    _;\n  }\n\n  modifier onlyNotOwner() {\n    require(msg.sender != owner);\n    _;\n  }\n\n  modifier onlyValidBid() {\n    uint currentBid = bidderToAmount[msg.sender].add(msg.value);\n    if (highestBidder == 0x0) require(currentBid >= startingBid);\n    require(currentBid >= bidderToAmount[highestBidder].add(bidIncrement));\n    require(currentBid <= highestAllowedBidAmount);\n    _;\n  }\n\n  constructor (uint _durationInSec, uint _artworkIndex, uint _startingBid, uint _highestAllowedBidAmount, uint _bidIncrement) public {\n    owner = msg.sender;\n    startDate = now;\n    endDate = startDate.add(_durationInSec);\n    artworkIndex = _artworkIndex;\n    startingBid = _startingBid;\n    highestAllowedBidAmount = _highestAllowedBidAmount;\n    bidIncrement = _bidIncrement;\n  }\n\n  function getTimeRemaining() public view onlyNotEnded returns (uint) {\n    return endDate - startDate + now;\n  }\n\n  function getHighestBid() public view returns (uint) {\n    return bidderToAmount[highestBidder];\n  }\n\n  function placeBid() public payable onlyNotEnded onlyValidBid onlyNotOwner {\n    highestBidder = msg.sender;\n    bidderToAmount[msg.sender] = bidderToAmount[msg.sender].add(msg.value);\n  }\n\n  function getWinner() external view onlyEnded returns (address, uint) {\n    return (\n      highestBidder,\n      bidderToAmount[highestBidder]\n    );\n  }\n\n  function withdraw() external payable onlyEnded returns (bool) {\n    require(highestBidder != msg.sender);\n    if (msg.sender == owner && !hasOwnerWithdrawn) {\n      owner.transfer(bidderToAmount[highestBidder]);\n      bidderToAmount[highestBidder] = 0;\n      hasOwnerWithdrawn = true;\n      return true;\n    } else {\n      msg.sender.transfer(bidderToAmount[msg.sender]);\n      bidderToAmount[msg.sender] = 0;\n      return true;\n    }\n    return false;\n  }\n}",
  "sourcePath": "C:\\Users\\User\\Trainings\\SoftUni_BlockChain\\DApp\\DArt\\contracts\\Auction.sol",
  "compiler": {
    "name": "solc",
    "version": "0.4.24+commit.e67f0147.Emscripten.clang"
  },
  "schemaVersion": "2.0.1",
  "updatedAt": "2018-09-24T03:33:47.996Z"
}